:100000000C94CD000C94F5000C94F5000C94F500C4
:100010000C94F5000C94F5000C94F5000C94F5008C
:100020000C94F5000C94F5000C94D70E0C94460F2C
:100030000C94F5000C94F5000C94F5000C94F5006C
:100040000C94F5000C94F5000C94F5000C94F5005C
:100050000C94F5000C94F5000C94F5000C948D0EA6
:100060000C94F5000C94F5000C94F5000C94F5003C
:100070000C94F5000C94F5000C94F5000C94F5002C
:100080000C94F5000C94F5000C94F5000C94F5001C
:100090000C9478110C94F5000C94F5000C94F50078
:1000A0000C94F5000C94F5000C94F500080B00027C
:1000B0000202000009040000010202000005240001
:1000C0001001052401010104240206052406000193
:1000D0000705810310004009040100020A00000026
:1000E00007050202400000070583024000000403E8
:1000F000090412010002EF02014041233680000191
:100100000102030141726475696E6F204C4C43001B
:1001100041726475696E6F204C656F6E6172646FB9
:1001200000070605040100080A0B0C0D0900000079
:1001300000250028002B002E0031000404040404D4
:10014000030405020202020403020202020606067A
:100150000606060404020202040404080201104018
:100160008040102040804080080204018040201020
:100170000201108010204040200000000200090F02
:100180000000030401000C0000000000000000005B
:100190000000000000000000971211241FBECFEFE6
:1001A000DAE0DEBFCDBF22E0AAE4B1E001C01D92DB
:1001B000AC3AB207E1F711E0A0E0B1E0EEEDFAE20F
:1001C00002C005900D92AA34B107D9F710E0CDEC2A
:1001D000D0E004C02197FE010E943A14CC3CD10724
:1001E000C9F70E94E9120C946D150C9400002FB70A
:1001F000F89483E08093E9009091E800892F807261
:1002000095FF04C09091F20080E4891B2FBF0895F0
:10021000FC018091BA01882311F13FB7F89482E084
:100220008093E9002091F200822F90E018161906C1
:1002300014F481E090E0882339F0289844E6409354
:10024000B9014091F1004083222339F02091F2005E
:10025000211103C02BE62093E8003FBF08958FEFE4
:100260009FEF08958091B10181110DC082E08093CC
:10027000AD0184E08093AE011092B0011092AF0105
:1002800081E08093B1018DEA91E00895282F30E05C
:10029000F901E758FE4F9491F901E65AFE4F849117
:1002A000255C3E4FF9012491222309F430C09923A3
:1002B000E9F091509F30D0F4E92FF0E0EE59FE4F75
:1002C0000C943A1490019401710188018C0176011B
:1002D0007601760197019D01A101A501AB0176018F
:1002E000AF01909180009F7790938000E22FF0E023
:1002F000EE0FFF1FE35DFE4FA591B4919FB7F894F9
:10030000EC91611132C080958E238C939FBF08952C
:10031000909180009F7DE8CF90918000977FE4CFFF
:1003200094B59F7794BDE2CF94B59F7DFBCF90911C
:1003300090009F7790939000D9CF909190009F7DEF
:10034000F9CF90919000977FF5CF9091C0009F7763
:100350009093C000CBCF9091C0009F7DF9CF90913A
:10036000C200977F9093C200C1CF8E2BCECF823137
:1003700008F08251E82FF0E0EF5DFE4FE49190919C
:100380007B008E2F880F880F80729F7D892B809332
:100390007B0080910C0120E4829FC0011124E77052
:1003A000E82BE0937C0080917A00806480937A004F
:1003B00080917A0086FDFCCF809178009091790041
:1003C00008953FB7F8948091A9019091AA01A09156
:1003D000AB01B091AC0126B5A89B05C02F3F19F029
:1003E0000196A11DB11D3FBFBA2FA92F982F8827B5
:1003F000BC01CD01620F711D811D911D42E0660F90
:10040000771F881F991F4A95D1F70895CF92DF92E1
:10041000EF92FF920E94E1016B017C010E94E101D9
:100420006C197D098E099F09683E7340810591050D
:10043000A8F3FF90EF90DF90CF9008952FB7F89436
:100440006091A5017091A6018091A7019091A801EA
:100450002FBF0895409196015091970120919401EA
:100460003091950142175307B4F49091E8009570CC
:10047000E1F39091E80092FD19C08093F100809122
:1004800096019091970101968F739927892B19F402
:100490008EEF8093E80080919601909197010196EC
:1004A000909397018093960181E0089580E00895EC
:1004B000EF92FF920F931F93CF93DF93F82E192F94
:1004C000E62E042F81E0860F880F0E942A0283E027
:1004D0000E942A02CF2DD12FEC0EFD2EF11CCE153D
:1004E000DF05B9F007FF13C0FE0184910E942A02C4
:1004F000182F80E00E942A02812321968111EFCFDC
:10050000DF91CF911F910F91FF90EF900895888117
:10051000EDCF81E0F5CFDF92EF92FF920F931F9323
:10052000CF93DF93D82E8A01EB017B01E40EF51EF9
:10053000CE15DF0559F0D7FE12C0FE0184910E944E
:100540002A0221968111F4CF0FEF1FEFC801DF912E
:10055000CF911F910F91FF90EF90DF9008958881C8
:10056000EECF0F931F93CF93DF931F92CDB7DEB7DC
:1005700082E0898342E450E06CEA70E080E80E9407
:100580008B020E943201DC0112960D911C91011523
:10059000110589F0D801ED91FC910280F381E02DE5
:1005A000BE016F5F7F4FC801099597FD04C0F80138
:1005B00000851185ECCF89810F90DF91CF911F913C
:1005C0000F910895615030F02091F100FC012083DB
:1005D0000196F8CF289884E68093B90108958F9208
:1005E0009F92AF92BF92CF92DF92EF92FF920F93C2
:1005F0001F93CF93DF936C017B018A0180910B01E4
:10060000882309F458C08091BA01882309F453C0A3
:1006100080919A0180FF05C08091E0008260809304
:10062000E000E801B12C8AEFA82E93E0892E2AE39E
:10063000922E209711F4BB20B9F10E94F70081118E
:1006400006C0AA94AA20B9F10E940602F2CF8C1724
:100650001D0611F00CF08C2F9FB7F8948092E900E2
:100660002091E80025FD02C09FBFE3CF282F30E096
:10067000C21BD30BF701815020F041914093F10050
:10068000FACFE20EF31EBB2021F09092E800B12CCD
:10069000EBCF8091E80085FDE7CF9092E800BB2486
:1006A000B394209709F3F3CF5D9884E68093990182
:1006B000101611063CF081E090E0F60193838283EE
:1006C00010E000E0C801DF91CF911F910F91FF90E2
:1006D000EF90DF90CF90BF90AF909F908F90089554
:1006E000CF93DF931F92CDB7DEB76983DC01ED9125
:1006F000FC910280F381E02D41E050E0BE016F5F8C
:100700007F4F09950F90DF91CF91089583E08093FB
:10071000E9008091F200882319F08AE38093E800D1
:1007200008950E94F70090E00895CF93DF931F9201
:10073000CDB7DEB7FC018485958597FD08C02FEF06
:100740003FEF358724870F90DF91CF910895CE0139
:1007500001960E940801019719F4898190E0F3CF76
:100760008FEF9FEFF0CF0F931F93CF93DF931F92E5
:10077000CDB7DEB78C01FC018485958597FF0BC052
:10078000CE0101960E940801019771F4898190E0E1
:10079000F80195878487F801848595850F90DF910E
:1007A000CF911F910F9108958FEF9FEFF1CFFC0133
:1007B0008485958597FD0BC09FB7F89482E0809360
:1007C000E9008091F2009FBF90E0019608959FB7E5
:1007D000F89482E08093E9008091F2009FBF90E05E
:1007E000089520916D01260F3327331F21323105E3
:1007F000ECF420910102FC0190E080E0243069F0EB
:1008000082E00895A0916D012191AC01455B5E4F9E
:10081000A40FB52FB11D2C930196861798F38091E4
:100820006D01680F60936D0180E0089581E0089587
:100830001092010281E0809300021092DB0161E0DE
:1008400082E00E94460161E083E00E944601E9EBFC
:10085000F0E080818E7F808380818D7F808388E43B
:100860008093B80085E48093BC000895CF93DF9314
:1008700091E090934A018823B9F0C091B800D091DB
:10088000BA008091BC008A7B8093BC0060E082E06B
:100890000E94460160E083E00E9446010E94180425
:1008A000D093BA00C093B800DF91CF910895CF9252
:1008B000DF92EF92FF920F931F93CF93DF93D0912C
:1008C0002A0281E0D13208F09CC0C09129020E9426
:1008D000E1016B017C018091010281116CC082E019
:1008E0008093010281E0809300028FEF8093FF01EB
:1008F0001092FE01D093FD01A9E0B2E0EDEDF1E030
:1009000080E0D8138DC01092DC018091DC01CC0F07
:10091000C82BC093DC018091DB01813009F084C0D9
:100920001092DB010E94E1016B017C018091DC01EE
:100930008093BB008091030290910402A091050274
:10094000B0910602892B8A2B8B2BA1F00E94E1012A
:1009500000910302109104022091050230910602D9
:100960006C197D098E099F09061717072807390793
:1009700008F442C08091BC0083FDD8CF85EC809301
:10098000BC000E94E1016B017C0180910102823078
:1009900009F44CC08091FF018F3F09F469C0809138
:1009A000FF01803209F466C08091FF01803309F4B1
:1009B00063C084E026C08091030290910402A0915C
:1009C0000502B0910602892B8A2B8B2B09F483CF69
:1009D0000E94E1010091030210910402209105029E
:1009E000309106026C197D098E099F0906171707B9
:1009F0002807390708F06FCF809102020E94360461
:100A000085E01092080210922A0210920702DF91EC
:100A1000CF911F910F91FF90EF90DF90CF900895AD
:100A20009D9191938F5F6DCF85EEA9CF8091030249
:100A300090910402A0910502B0910602892B8A2BA5
:100A40008B2B09F4A2CF0E94E101009103021091C7
:100A5000040220910502309106026C197D098E096D
:100A60009F09061717072807390708F08ECFC4CF4C
:100A700080E0C7CF82E0C5CF83E0C3CFCF92DF92C3
:100A8000EF92FF920F931F93CF93DF93D82FC62F30
:100A9000613208F098C00E94E1016B017C018091F5
:100AA000010281116BC081E08093010280930002FA
:100AB0009FEF9093FF011092FE019C0F9093FD0118
:100AC0008093DC018091DC01DD0FD82BD093DC0119
:100AD0008091DB01813009F078C01092DB010E9427
:100AE000E1016B017C018091DC018093BB0080916E
:100AF000030290910402A0910502B0910602892B95
:100B00008A2B8B2BA1F00E94E1010091030210912E
:100B1000040220910502309106026C197D098E09AC
:100B20009F09061717072807390708F448C080915E
:100B3000BC0083FDD8CF85EC8093BC000E94E1010E
:100B40006B017C0180910102813009F440C08091E9
:100B5000FE018C1710F4C091FE01EDEDF1E0ABEB5E
:100B6000B1E080E08C1355C08C2FDF91CF911F91A5
:100B70000F91FF90EF90DF90CF9008958091030246
:100B800090910402A0910502B0910602892B8A2B54
:100B90008B2B09F484CF0E94E10100910302109194
:100BA000040220910502309106026C197D098E091C
:100BB0009F09061717072807390708F070CF80919B
:100BC00002020E943604C0E0CFCF85EEB5CF8091FF
:100BD000030290910402A0910502B0910602892BB4
:100BE0008A2B8B2B09F4AECF0E94E1010091030206
:100BF0001091040220910502309106026C197D09C2
:100C00008E099F09061717072807390708F09ACF9A
:100C1000D6CF91919D938F5FA5CF089508950895A4
:100C2000E091930180919201E81730F4F0E0E554EF
:100C3000FE4F808190E008958FEF9FEF089590918F
:100C40009301809192012FEF3FEF981748F4E92F1D
:100C5000F0E0E554FE4F208130E09F5F90939301D8
:100C6000C90108958091920190919301891B990B7C
:100C70000895CF92DF92EF92FF920F931F93CF933D
:100C8000DF937C01CB018A0120910702222389F0A6
:100C9000EB016B01C40ED51ECC15DD0569F0699121
:100CA000D701ED91FC910190F081E02DC7010995EC
:100CB000F3CF642F0E94F103C801DF91CF911F9100
:100CC0000F91FF90EF90DF90CF900895CF93DF9337
:100CD0001F92CDB7DEB76983209107022223F9F076
:100CE00020912A02203258F021E030E0FC013383C9
:100CF000228390E080E00F90DF91CF910895809162
:100D00000802E82FF0E0E75FFD4F998190838F5F45
:100D10008093080280932A0281E090E0ECCF61E0AA
:100D2000CE0101960E94F103F7CF0F931F93CF934B
:100D3000DF93EC01142F052F898191E09093070236
:100D4000809329021092080210922A028BE792E007
:100D50000E946606602F8BE792E00E946606612F74
:100D60008BE792E00E9466060E9457048883DF9119
:100D7000CF911F910F9108951F93CF93DF93EC01B3
:100D8000142F898191E09093070280932902109299
:100D9000080210922A028BE792E00E946606612FF9
:100DA0008BE792E00E9466060E9457048883DF91D9
:100DB000CF911F91089590E080E00895CF93DF9345
:100DC000EB01FC01808591E090930702809329025A
:100DD0001092080210922A0260E48BE792E00E94CF
:100DE0006606BE0184E0759567958A95E1F78BE705
:100DF00092E00E9466066C2F6295607F8BE792E01E
:100E00000E946606DF91CF910C945704FC01848107
:100E10000C94B7014F925F926F927F92AF92BF9204
:100E2000CF92DF92EF92FF920F931F93CF93DF93B6
:100E30008C015B017A01DC011D96CD91DC911E973E
:100E40001996CD90DC90CC0EDD1ECC16DD0659F146
:100E50000E941E0260933302709334028093350225
:100E6000909336028BE292E00E94950397FF41C077
:100E70000E941E024090330250903402609035026E
:100E800070903602641975098609970940902F02FF
:100E900050903002609031027090320264157505F6
:100EA00086059705F8F2D8011D96ED91FC911E97E5
:100EB000808190E0F501918380831D96ED91FC91F6
:100EC000818190E0982F88272281820F911DD70180
:100ED0008D939C93DF91CF911F910F91FF90EF9095
:100EE000DF90CF90BF90AF907F906F905F904F90CA
:100EF00008958993AACF8FEF9FEF90933802809344
:100F000037021092930110929201109208021092EF
:100F10002A020E9418048DE096E090936C01809361
:100F20006B018EE096E09093700180936F010895BD
:100F3000CF93DF93EC01898191E090930702809336
:100F400029021092080210922A028BE792E00E9476
:100F500066060E945704888362E089810E943E05EC
:100F600010929301809392018BE792E00E941F06FA
:100F7000D82F80E0C82F8BE792E00E941F068C2BB1
:100F80009D2BDF91CF910895CF93DF93EC01898161
:100F900091E0909307028093290210920802109228
:100FA0002A028BE792E00E9466060E94570488831B
:100FB00061E089810E943E05109293018093920125
:100FC0008BE792E00E941F06DF91CF910895CF93A7
:100FD000DF93EC01462F416060E00E94BC060E9456
:100FE0001E027E836D8363E1CE010E94C407877079
:100FF00089F48A819B81892BB1F30E941E022D8185
:101000003E81621B730B8A819B818617970758F775
:1010100080E00BC041E06BE0CE010E94BC0640E0E6
:1010200060E0CE010E94BC0681E0DF91CF9108957F
:101030008F929F92AF92BF92CF92DF92EF92FF92E8
:101040000F931F93CF93DF936C017B01EA0160E55F
:101050000E94C4078F5F880F90E09983888366E4BD
:10106000C6010E94C407082F10E00F5F1F4F1D83A9
:101070000C83A881B0E020E03FE24AE350E00E9408
:10108000FE136C507E4F8F4F9F4F38EE832E33E010
:10109000932EA12CB12CA50194010E941814D80103
:1010A0000E9440146C507E4F8F4F9F4FA5019401BA
:1010B0000E9418142A873B874C875D8761E5C6012B
:1010C0000E9498078C01112702C0000F111F9A95EA
:1010D000E2F70F5F1F4F1F830E83A881B0E020E06F
:1010E0003FE24AE350E00E94FE136C507E4F8F4F68
:1010F0009F4FA50194010E941814D8010E94FE136D
:101100006C507E4F8F4F9F4FA50194010E94181481
:101110002E873F87488B598B60E7C6010E94C40722
:101120008F5F880F90E09B838A8361E7C6010E94EE
:1011300098079C01992702C0880F991F3A95E2F7FA
:10114000019699878887F7012381222331F02E8128
:101150003F81821B930B99878887AA81B0E020E0AA
:101160003FE24AE350E00E94FE136C507E4F8F4FE7
:101170009F4F28EEC22E23E0D22EE12CF12CA701A6
:1011800096010E941814A885B9850E94FE136C5020
:101190007E4F8F4F9F4FA70196010E9418142A8BF4
:1011A0003B8B4C8B5D8BDF91CF911F910F91FF900B
:1011B000EF90DF90CF90BF90AF909F908F90089569
:1011C000CF93DF93EB0161E00E94C40784FB992772
:1011D00090F9988383FB992790F99A8382FB99274A
:1011E00090F9998386FB992790F99B83881F88271C
:1011F000881F8C83DF91CF9108952F923F924F9259
:101200005F926F927F928F929F92AF92BF92CF9296
:10121000DF92EF92FF920F931F93CF93DF93CDB79F
:10122000DEB76B970FB6F894DEBF0FBECDBF8C0153
:101230004A015B01BE01695E7F4F0E94E008AE017A
:101240004F5F5F4FBE01695E7F4FC8010E94180863
:101250008F89882309F494C08B859C85AD85BE85D4
:101260008C57924FAF4FBF4F298D222309F48DC069
:101270004B855C856D857E854E545D4F6F4F7F4FEE
:10128000440F551F661F771F840F951FA61FB71F9A
:101290003A8C332061F04F85588969897A894C5698
:1012A0005D4F6F4F7F4F840F951FA61FB71F2B8C6D
:1012B000222009F4A1C06C017D0126E2C20E22E0C9
:1012C000D21EE11CF11C8C149D04AE04BF0408F472
:1012D00096C0AB81B0E020E03FE24AE350E00E94DC
:1012E000FE132B013C01E4EF4E0EE1E05E1E611C9B
:1012F000711CA50194012C193D094E095F09A8EE46
:10130000B3E00E94FE136B017C01C301B20120ED2A
:1013100037E040E050E00E941814C20ED31EE41ED5
:10132000F51EC301B20128EE33E040E050E00E9418
:101330001814C701B6010E941814332031F08F81B0
:101340009885280F391F411D511D21153105410573
:10135000510509F44EC0BA01A90141505109610972
:10136000710990E080E02A013B0144244528462889
:101370004728C1F076956795579547950196F3CF25
:1013800086E39BE0A0E0B0E06FCF288D222309F434
:101390007FCF4B855C856D857E854C565D4F6F4F4D
:1013A0007F4F72CF982F8827482B592B61E7C801B0
:1013B0000E949506F80180869186A286B386822DCA
:1013C0006B960FB6F894DEBF0FBECDBFDF91CF9105
:1013D0001F910F91FF90EF90DF90CF90BF90AF9053
:1013E0009F908F907F906F905F904F903F902F9045
:1013F000089550E040E0DACF22242394E0CF212C5E
:10140000DECF0F931F93CF93DF93EC010E941E0258
:101410007E836D8363E1CE010E94C4078770C9F4A7
:101420008A819B81892BB1F30E941E022D813E810E
:10143000621B730B8A819B818617970758F781E09F
:101440008C830FEF1FEFC801DF91CF911F910F9198
:1014500008956EE1CE010E9498078C0141E06BE097
:10146000CE010E94BC06EFCF45960C94010A8F92E4
:101470009F92AF92BF92CF92DF92EF92FF920F9323
:101480001F93CF93DF93CDB7DEB7A1970FB6F89434
:10149000DEBF0FBECDBF7C010E947B07D701ED915F
:1014A000FC910680F781E02D70E060E0C7010995AE
:1014B00010920C0187010B5E1F4F60ECC8010E9467
:1014C000C4078E3E09F0A0C069E8C8010E94C407A5
:1014D000482F416069E8C8010E94BC0640E068E806
:1014E000C8010E94BC0641E060E8C8010E94BC0639
:1014F00041E06FEFC8010E94BC0640E060E0C80117
:101500000E94BC0661E9C8010E94C407F701848FEC
:1015100041E060E0C8010E94BC0640E06FEFC801F6
:101520000E94BC0640E060E8C8010E94BC0660E67C
:10153000C8010E94C407482F426160E6C8010E94AA
:10154000BC0640E250E064E4C8010E9495064FEFFB
:1015500061E0C8010E94BC0641E060E8C8010E9449
:10156000BC0641E06FEFC8010E94BC0640E060E0AD
:10157000C8010E94BC0646E06FEFC8010E94BC068D
:1015800063E8C8010E94C407482F446063E8C801AB
:101590000E94BC0647E06FEFC8010E94BC0641E014
:1015A00061E8C8010E94BC0641E060E8C8010E94F1
:1015B000BC064BE664E9C8010E94BC0640E063E853
:1015C000C8010E94BC060E941E02D7015B967C9354
:1015D0006E935A9763E8C8010E94C407811157C0EF
:1015E000F7018789908D892BA9F30E941E02D701EC
:1015F0005A962D913C915B97621B730B57968D9178
:101600009C918617970730F740E25EE460E070E057
:10161000C8010E94FD0841E060E8C8010E94BC06C4
:1016200041E06FEFC8010E94BC0640E060E0C801E5
:101630000E94BC06F701448D61E9C8010E94BC0606
:1016400041E060E0C8010E94BC0640E06FEFC801C5
:101650000E94BC0640E060E8C8010E94BC0642E06F
:1016600060E0C8010E94BC06A1960FB6F894DEBFE8
:101670000FBECDBFDF91CF911F910F91FF90EF90E3
:10168000DF90CF90BF90AF909F908F90089541E0F2
:1016900063E8C8010E94BC0662E9C8010E94C40751
:1016A000A82E40E061E8C8010E94BC0646E06FEF4A
:1016B000C8010E94BC0663E8C8010E94C407482F05
:1016C0004B7F63E8C8010E94BC0641E06FEFC80190
:1016D0000E94BC0641E060E0C8010E94BC0640E0F8
:1016E0006FEFC8010E94BC0640E060E8C8010E949C
:1016F000BC06F701868991E0909307028093290246
:101700001092080210922A0260EB8BE792E00E948E
:1017100066060E945704D70155968C93559766E04C
:1017200056968C910E943E051092930180939201EF
:101730006E01B7E1CB0ED11C460147E0B42EBA943E
:10174000BB2041F08BE792E00E941F06F4018193D9
:101750004F01F5CF41E06FEFC8010E94BC0640E0A9
:101760006FE4C8010E94BC064CE26EE4C8010E940E
:10177000BC0640E06FEFC8010E94BC0644EB66EB7C
:10178000C8010E94BC06BCE0A7FEB0E0A0E090E06B
:1017900061E070E08A2D8F77E92FE695E695E69572
:1017A000AE2EB12C96012A0D3B1DF9012081492F47
:1017B00047709B1710F08A132EC0F501EC0DFD1D2C
:1017C0005B0102C0AA0CBB1C4A95E2F7A50140953B
:1017D000242320839F5F9033F9F6D70156968C918E
:1017E00091E09093070280932902109208021092D0
:1017F0002A0260EB8BE792E00E94660637E0B32E88
:10180000BA94BB2091F0F60161916F018BE792E0F1
:101810000E946606F5CF30E002C0359527954A95BF
:10182000E2F720FFD7CFAF5FD5CF0E945704D70193
:1018300055968C9341E06FEFC8010E94BC0640E0D2
:1018400060E0C8010E94BC0640E06FEFC8010E9442
:10185000BC0640E069E0C8010E94BC0640E060E1CF
:10186000C8010E94BC0640E061E1C8010E94BC06BC
:1018700041E064E2C8010E94BC064FEF65E2C80186
:101880000E94BC0640E065E7C8010E94BC0641E03A
:101890006FEFC8010E94BC064CE26EE4C8010E94D2
:1018A000BC0640E068E4C8010E94BC0640E260E378
:1018B000C8010E94BC0640E06FEFC8010E94BC0650
:1018C00049E060E3C8010E94BC0640E064E5C8014D
:1018D0000E94BC0644E061E3C8010E94BC0643E0EC
:1018E00062E3C8010E94BC0643E860E4C8010E94AC
:1018F000BC0645E266E4C8010E94BC0640E060E622
:10190000C8010E94BC0640E067E2C8010E94BC0614
:1019100046E060E5C8010E94BC0640E061E5C80100
:101920000E94BC0646E962E5C8010E94BC0648E088
:1019300066E5C8010E94BC0640E367E5C8010E9455
:10194000BC0640E061E6C8010E94BC0640E062E6D9
:10195000C8010E94BC0640E064E6C8010E94BC06C3
:1019600040E065E6C8010E94BC0640EA66E6C801A0
:101970000E94BC0641E06FEFC8010E94BC0642E332
:1019800062E2C8010E94BC0644E167E4C8010E940B
:10199000BC064FEF69E4C8010E94BC0640E06AE45F
:1019A000C8010E94BC0640E06FEFC8010E94BC065F
:1019B0004AE06AE7C8010E94BC0640E06BE7C80144
:1019C0000E94BC0641E268E7C8010E94BC0641E0F3
:1019D0006FEFC8010E94BC0644E363E2C8010E94A5
:1019E000BC0640E062E4C8010E94BC064FEF64E41C
:1019F000C8010E94BC0646E265E4C8010E94BC061C
:101A000045E066E4C8010E94BC0640E460E4C80109
:101A10000E94BC0646E06EE0C8010E94BC064AE196
:101A200060E2C8010E94BC0640E463E4C8010E9471
:101A3000BC0640E06FEFC8010E94BC0643E064E3CF
:101A4000C8010E94BC0644E465E3C8010E94BC06CC
:101A500041E06FEFC8010E94BC0644E061E3C801A9
:101A60000E94BC0649E06BE4C8010E94BC0645E048
:101A70006CE4C8010E94BC0644E06DE4C8010E9409
:101A8000BC0640E06FEFC8010E94BC0640E064E481
:101A9000C8010E94BC0640E265E4C8010E94BC0681
:101AA00048E067E4C8010E94BC0648E268E4C80157
:101AB0000E94BC0640E067E6C8010E94BC0644E004
:101AC00060E7C8010E94BC0641E061E7C8010E94CE
:101AD000BC064EEF62E7C8010E94BC0640E066E724
:101AE000C8010E94BC0640E067E7C8010E94BC062E
:101AF00041E06FEFC8010E94BC0641E06DE0C80103
:101B00000E94BC0640E06FEFC8010E94BC0641E0A5
:101B100060E8C8010E94BC0648EF61E0C8010E946D
:101B2000BC0641E06FEFC8010E94BC0641E06EE8D0
:101B3000C8010E94BC0641E060E0C8010E94BC06EA
:101B400040E06FEFC8010E94BC0640E060E8C801B9
:101B50000E94BC0644E06AE0C8010E94BC0664E83A
:101B6000C8010E94C407482F4F7E64E8C8010E9444
:101B7000BC0641E06BE0C8010E94BC06BE01635E8A
:101B80007F4FC8010E94E008AE014F5F5F4FBE016A
:101B9000635E7F4FC8010E9418088D8D882309F469
:101BA00072C08B859C85AD85BE858C57924FAF4F9B
:101BB000BF4F2F8D222309F46BC04B855C856D854B
:101BC0007E854E545D4F6F4F7F4F440F551F661FEC
:101BD000771F840F951FA61FB71F28A1222361F02E
:101BE0004F85588969897A894C565D4F6F4F7F4F71
:101BF000840F951FA61FB71F29A1222361F04B89CF
:101C00005C896D897E894A5D5D4F6F4F7F4F840F80
:101C1000951FA61FB71FF701858F968FA78FB0A3BB
:101C200048EE61E0C8010E94BC06D7015D964D9167
:101C30005D916D917C9190974032BEE45B076105A8
:101C4000710518F0C8010E94FD0841E061E0C8017B
:101C50000E94BC0660E4C8010E94E707882309F4DB
:101C6000D3CC42E061E0C8010E94BC0660E0C8013C
:101C70000E94E707882309F4C7CC48EE61E0C80159
:101C80000E94BC06C1CC86E39BE0A0E0B0E091CF0F
:101C90002E8D222309F4A1CF4B855C856D857E8531
:101CA0004C565D4F6F4F7F4F94CF85ED8093BC00B6
:101CB0008091030290910402A0910502B091060266
:101CC0000796A11DB11D23E0B695A7959795879519
:101CD0002A95D1F72091BC0024FD03C01092010287
:101CE00008954091030250910402609105027091A1
:101CF0000602452B462B472B69F30097A105B1053A
:101D000041F02AE22A95F1F700C00197A109B10933
:101D1000E1CF809102020C9436041F920F920FB60D
:101D20000F9211242F933F938F939F93AF93BF9361
:101D30008091A5019091A601A091A701B091A80161
:101D40003091A40123E0230F2D3758F50196A11DF2
:101D5000B11D2093A4018093A5019093A601A093A7
:101D6000A701B093A8018091A9019091AA01A09127
:101D7000AB01B091AC010196A11DB11D8093A901E9
:101D80009093AA01A093AB01B093AC01BF91AF9126
:101D90009F918F913F912F910F900FBE0F901F90A9
:101DA000189526E8230F0296A11DB11DD2CF1F92D0
:101DB0000F920FB60F9211248F939F938091E100A1
:101DC0009091E100937F9093E10083FF0FC0109208
:101DD000E90091E09093EB001092EC0092E3909375
:101DE000ED001092BA0198E09093F00082FF22C0BB
:101DF00093E09093E9009091F200992319F09AE30F
:101E00009093E80090919901992341F09091990164
:101E1000915090939901911101C05D9A9091B901EF
:101E2000992341F09091B90191509093B90191118A
:101E300001C0289A84FF18C08091E2008E7E8160E4
:101E40008093E2008091E1008F7E8093E100809199
:101E50009A018E7E806180939A019F918F910F905D
:101E60000FBE0F901F90189580FFF7CF8091E20072
:101E70008E7E80618093E2008091E1008E7E80936F
:101E8000E10080919A018E7E8160E5CF1F920F92D2
:101E90000FB60F921124CF92DF92EF92FF920F9321
:101EA0001F932F933F934F935F936F937F938F93E2
:101EB0009F93AF93BF93EF93FF93CF93DF93CDB7F0
:101EC000DEB76C97DEBFCDBF1092E9008091E800CD
:101ED00083FF25C068E0CE0145960E94E20282EFB2
:101EE0008093E8008D8987FF39C09091E80090FFCA
:101EF000FCCF982F907609F034C19E894F89588D78
:101F00002F89F88C911131C0803861F580919B0147
:101F10008093F1001092F1008EEF8093E8006C96B0
:101F20000FB6F894DEBF0FBECDBFDF91CF91FF910A
:101F3000EF91BF91AF919F918F917F916F915F9141
:101F40004F913F912F911F910F91FF90EF90DF9054
:101F5000CF900F900FBE0F901F9018959EEF90930B
:101F6000E800C7CF1092F100D5CF913059F481111C
:101F7000D3CF4130510581F680919B018D7F8093B5
:101F80009B01CACF933049F48111C6CF413051052E
:101F900019F680919B018260F2CF953041F48091D7
:101FA000E80080FFFCCF20682093E300B5CF963097
:101FB00009F0A9C00B8D1C8D22E01092E90010924F
:101FC000970110929601F2122EC010929501109274
:101FD00094010E94B1021F8299E09983FA8291E0F4
:101FE0009E8390EA98879AEF998720919601309185
:101FF0009701275F3F4F3C832B838D831092E9002D
:1020000010929701109296011093950100939401FC
:1020100049E050E0BE016F5F7F4F80E00E948B027D
:102020000E94B10279CF10939501009394010E9410
:102030003201DC0112960D911C910115110509F474
:1020400051C1D801ED91FC910480F581E02DBE01D4
:102050006B5E7F4FC8010995009709F03EC1F801FA
:1020600000851185EACFF3E0FF120EC08F89882327
:1020700009F440C0823061F440E860E180E191E021
:102080000E945802811148CF81E28093EB0047CF34
:10209000813029F440E86BE084E091E0F1CF8330B7
:1020A00099F70E943201DC011296ED90FC908E01AE
:1020B0000F5F1F4F6801E114F10479F0D701ED9132
:1020C000FC910680F781E02DB801C7010995080F42
:1020D000111DF701E084F184EECFD8011C92F601C6
:1020E00001900020E9F73197BF016C197D0940E0AC
:1020F000C601C6CF6EEE70E0FB01449150E080E86F
:102100000E948B0209CF973009F4BECF983021F49A
:1021100081E08093F10000CF993009F0FDCE83700B
:1021200009F0B2CFE4E1F1E081E031E096E3219102
:10213000222371F08093E9003093EB00DF011197C7
:102140002C912093EC009093ED008F5F873079F70E
:102150008EE78093EA001092EA008F898093BA019B
:10216000DBCE8B8D9C8D1092E9001092970110921E
:1021700096019093950180939401898D811192C06D
:102180008E899D89913A49F4813209F07DCF47E0EB
:1021900050E064E071E080E0B3CF913209F074CF99
:1021A000833269F48F89988DB0E0A0E080930001BC
:1021B00090930101A0930201B0930301ADCE803250
:1021C00069F48091E80082FFFCCF67E084E091E051
:1021D0000E94E2028BEF8093E8009ECE823209F0EB
:1021E0009BCE8F8980930B01EEEFFFE78591949151
:1021F0008B3F9C4D51F1E0E0F8E08091040190911B
:102200000501A0910601B0910701803B9440A10512
:10221000B105F1F480910B0180FD1AC0EE3F8AE018
:10222000F80789F587E797E79183808380916000BD
:102230008093980188E19BE00FB6F894A89580936D
:1022400060000FBE9093600067CEEEEFFAE0D5CF4E
:10225000808191818737974709F05ECEA89580915C
:102260006000886180936000809198018093600095
:10227000EE3F2AE0F20789F08091FE0A9091FF0A72
:102280009183808349CE808191818737980751F26D
:102290009093FF0A8093FE0AC5CF1092FF0A109216
:1022A000FE0A3ACE0E943201DC0112960D911C9179
:1022B0000115110509F4E8CED801ED91FC910190CA
:1022C000F081E02DBE016B5E7F4FC8010995811141
:1022D00023CEF80100851185EBCF181619060CF4F2
:1022E0001BCED2CEF1E0FF12BECE62EF70E004CF83
:1022F0001F920F920FB60F9211242F933F934F937B
:102300005F936F937F938F939F93AF93BF93EF935D
:10231000FF938091B900887F803609F44AC0F0F5B8
:10232000883209F4A7C018F5803109F49BC0B8F4CD
:10233000882309F4F9C0883009F494C0FF91EF9123
:10234000BF91AF919F918F917F916F915F914F91CD
:102350003F912F910F900FBE0F901F9018958831CD
:1023600009F488C0803251F78093FF0114C0803493
:1023700009F49DC040F48033B9F38833F9F68093B3
:10238000FF0185ECB0C0803509F485C0883509F4BB
:1023900096C0883499F60E94550ED0CF883909F43A
:1023A0008CC038F5883729F050F4883611F0803722
:1023B00029F683E0809301021092910157C088387A
:1023C00009F47BC0803919F0803809F0B7CF8091CB
:1023D0009101803208F071C0E091910181E08E0F8F
:1023E000809391018091BB00F0E0EF58FE4F808315
:1023F0003DC0803B39F0E0F4803A09F479C0883A76
:1024000009F09CCF84E08093010210926E0110923B
:102410006D01E0916B01F0916C01099580916D0166
:1024200081110FC081E080936D0110924B0109C0B2
:10243000803C09F4A6CF883C09F4A3CF883B09F07F
:102440007DCFE0916E0181E08E0F80936E01F0E010
:10245000E55BFE4F80818093BB0090916E0180917F
:102460006D0129C08091DC018093BB0085EC8093D5
:10247000BC0064CF9091FE018091FD01981758F542
:10248000E091FE0181E08E0F8093FE01F0E0E352C7
:10249000FE4F8081E9CFE091FE0181E08E0F8093B5
:1024A000FE018091BB00F0E0E352FE4F80839091EB
:1024B000FE018091FD019817C8F285E8D8CFE09120
:1024C000FE0181E08E0F8093FE018091BB00F0E061
:1024D000E352FE4F80838091000281115CCF81E046
:1024E0008093DB0184EA8093BC001092010226CF26
:1024F00085EC8093BC0010920102809191018032A2
:1025000030F4E0919101F0E0EF58FE4F10826091BD
:10251000910170E0E0916F01F091700181E791E02D
:102520000995109291010ACF1092FF0134CFCF93F9
:10253000DF93EBE2F2E01382128288EE93E0A0E0F8
:10254000B0E084839583A683B7832EE131E03183A5
:1025500020832FEF3FEF35872487EBE7F2E01382EC
:10256000128284839583A683B78380E391E091836D
:102570008083C7E8D2E082E190E09B838A831D825A
:102580001C821F821E8280E6888783E090E09A8703
:1025900089879C878B870E9448149E878D8783E05C
:1025A00090E00E944814988B8F8781E090E09A8B8E
:1025B000898B86E48B8B8CE48C8B82E491E099830D
:1025C000888389E28E8B188E1F8A198EDF91CF91B6
:1025D0000895789484B5826084BD84B5816084BD9B
:1025E00085B5826085BD85B5816085BD80916E00B1
:1025F000816080936E0010928100809181008260E2
:10260000809381008091810081608093810080911E
:10261000800081608093800080919100826080932F
:102620009100809191008160809391008091900051
:102630008160809390008091C10084608093C1008C
:102640008091C10082608093C1008091C10081604F
:102650008093C1008091C30081608093C30080910A
:10266000C00082608093C0008091C200816080932E
:10267000C20080917A00846080937A0080917A0011
:10268000826080937A0080917A00816080937A00E2
:1026900080917A00806880937A001092BA0110923B
:1026A0009B0110929A018091D70081608093D7009E
:1026B00080EA8093D80089B5806189BD89B5826040
:1026C00089BD09B400FEFDCF0E9406028091D800AA
:1026D0008F7C80618093D8008091E000807F809320
:1026E000E0008091E1008E7E8093E1008DE0809398
:1026F000E200559A209A87E892E00E94370AC0E0EB
:10270000D0E08BE292E00E94D70318161906B4F5C8
:1027100040EA51E062EA71E087E892E00E940A072D
:102720008091A2019091A3018130910561F18230E5
:10273000910509F45CC0892BA9F4E0919602F0910F
:102740009702809198028083E0919602F09197021F
:1027500080919A028183E0919602F0919702809194
:102760009B02828340919202509193026091960263
:10277000709197028BE292E00E94EF02209709F29B
:102780000E940000BECF6091A0017091A10187E876
:1027900092E00E94DE068CE992E00E94010A90938A
:1027A0009F0180939E01809189020E94B7019093BE
:1027B0009D0180939C01E0919602F091970224E0A4
:1027C000959587952A95E1F7807F90919F01890FD4
:1027D0008083E0919602F091970280919C01818321
:1027E000E0919602F091970280919E01BACF70E03D
:1027F00060E087E892E00E94DE06B4CF0E940914F0
:10280000A59F900DB49F900DA49F800D911D112444
:102810000895A29FB001B39FC001A39F700D811DB9
:102820001124911DB29F700D811D1124911D0895D9
:10283000A1E21A2EAA1BBB1BFD010DC0AA1FBB1FC4
:10284000EE1FFF1FA217B307E407F50720F0A21B36
:10285000B30BE40BF50B661F771F881F991F1A94A3
:1028600069F760957095809590959B01AC01BD01CD
:10287000CF010895EE0FFF1F0590F491E02D09940C
:10288000B7FF0C94FE130E94FE13821B930B089556
:102890000F931F93CF93DF938230910510F482E062
:1028A00090E0E091AA02F091AB0230E020E0B0E0CD
:1028B000A0E0309799F42115310509F44AC0281B8E
:1028C000390B24303105D8F58A819B81611571055A
:1028D00089F1FB0193838283FE0111C04081518104
:1028E0000281138148175907E0F04817590799F4F6
:1028F000109761F012960C93129713961C933296D0
:10290000CF01DF91CF911F910F9108950093AA02FB
:102910001093AB02F4CF2115310551F04217530744
:1029200038F0A901DB019A01BD01DF01F801C1CF37
:10293000EF01F9CF9093AB028093AA02CDCFFE01B5
:10294000E20FF31F81939193225031093983288339
:10295000D7CF2091A8023091A902232B41F42091D6
:102960000F01309110013093A9022093A802209109
:102970000D0130910E012115310541F42DB73EB7FF
:102980004091110150911201241B350BE091A802D6
:10299000F091A902E217F307A0F42E1B3F0B2817B2
:1029A000390778F0AC014E5F5F4F2417350748F0C8
:1029B0004E0F5F1F5093A9024093A80281939193F9
:1029C0009FCFF0E0E0E09CCFCF93DF930097E9F05A
:1029D000FC01329713821282A091AA02B091AB023D
:1029E000ED0130E020E01097A1F420813181820FC9
:1029F000931F2091A8023091A9022817390709F0E6
:102A000061C0F093A902E093A802DF91CF910895ED
:102A1000EA01CE17DF07E8F54A815B819E01411587
:102A20005105B1F7E901FB83EA8349915991C40F3C
:102A3000D51FEC17FD0761F4808191810296840F08
:102A4000951FE90199838883828193819B838A837F
:102A5000F0E0E0E012968D919C9113970097B9F504
:102A60002D913C911197CD010296820F931F2091D9
:102A7000A8023091A9022817390739F6309751F585
:102A80001092AB021092AA02B093A902A093A802DE
:102A9000BCCFD383C28340815181840F951FC81757
:102AA000D90761F44E5F5F4F88819981480F591FA4
:102AB000518340838A819B819383828321153105D1
:102AC00009F0B0CFF093AB02E093AA029ECFFD01D4
:0E2AD000DC01C0CF13821282D7CFF894FFCF63
:102ADE00FFFFFFFF00E1000000000000010000AC5E
:102AEE0002800000C1808100000000000000700321
:102AFE00EF0291038603D7039503B3030000000092
:102B0E0066063906DB060F0632061F0610060000A3
:0A2B1E000000370A0A07340ADE0639
:00000001FF
