:100000000C9458000C9480000C9480000C94800098
:100010000C9480000C9480000C9480000C94800060
:100020000C9480000C9480000C9480000C94800050
:100030000C9480000C9480000C9480000C94800040
:100040000C9405050C9480000C9475050C944F05D8
:100050000C9480000C9480000C9480000C94800020
:100060000C94A7050C9480000000000025002800D7
:100070002B00040404040404040402020202020229
:10008000030303030303010204081020408001025C
:1000900004081020010204081020000000080002DB
:1000A0000100000304070000000000000000C60675
:1000B00011241FBECFEFD8E0DEBFCDBF22E0A8E302
:1000C000B1E001C01D92A53CB207E1F711E0A0E04C
:1000D000B1E0EAE4F2E102C005900D92A833B10765
:1000E000D9F710E0C8E5D0E004C02197FE010E94D6
:1000F000F807C735D107C9F70E942D070C942309CB
:100100000C94000090E0FC01E656FF4F2491FC01A6
:10011000EA57FF4F3491FC01EE58FF4FE491EE2374
:10012000C9F0222339F0233001F1A8F4213019F16C
:10013000223029F1F0E0EE0FFF1FE859FF4FA591A3
:10014000B4918FB7F894EC91611126C030953E239D
:100150003C938FBF08952730A9F02830C9F0243090
:1001600049F7809180008F7D03C0809180008F7758
:1001700080938000DFCF84B58F7784BDDBCF84B5DB
:100180008F7DFBCF8091B0008F778093B000D2CF6E
:100190008091B0008F7DF9CF3E2BDACF8E3008F002
:1001A0008E502091000190E4299F900111248770C6
:1001B000822B80937C0080917A00806480937A0007
:1001C00080917A0086FDFCCF809178009091790033
:1001D00008953FB7F8948091FF0190910002A0919B
:1001E0000102B091020226B5A89B05C02F3F19F06D
:1001F0000196A11DB11D3FBFBA2FA92F982F8827A7
:10020000BC01CD01620F711D811D911D42E0660F81
:10021000771F881F991F4A95D1F70895AF92BF9213
:10022000CF92DF92EF92FF920F931F93CF93DF93C2
:100230006C017B018B01040F151FEB015E01AE18F1
:10024000BF08C017D10759F06991D601ED91FC9113
:100250000190F081E02DC6010995892B79F7C50140
:10026000DF91CF911F910F91FF90EF90DF90CF9092
:10027000BF90AF900895FC01538D448D252F30E041
:10028000842F90E0821B930B541710F0CF960895A3
:1002900001970895FC01918D828D981761F0A28DD0
:1002A000AE0FBF2FB11D5D968C91928D9F5F9F7396
:1002B000928F90E008958FEF9FEF0895FC01918D4C
:1002C000828D981731F0828DE80FF11D858D90E0B9
:1002D00008958FEF9FEF0895FC01918D228D892F56
:1002E00090E0805C9F4F821B91098F73992708953E
:1002F00083E092E00E946C0121E0892B09F420E068
:10030000822F089580E090E0892B29F00E947801E7
:1003100081110C9400000895FC01A48DA80FB92F41
:10032000B11DA35ABF4F2C91848D90E001968F731D
:100330009927848FA689B7892C93A089B1898C913C
:10034000837080648C93938D848D981306C002888B
:10035000F389E02D80818F7D80830895EF92FF9255
:100360000F931F93CF93DF93EC0181E0888F9B8DD8
:100370008C8D98131AC0E889F989808185FF15C092
:100380009FB7F894EE89FF896083E889F9898081B5
:100390008370806480839FBF81E090E0DF91CF9184
:1003A0001F910F91FF90EF900895F62E0B8D10E0A6
:1003B0000F5F1F4F0F731127E02E8C8D8E110CC015
:1003C0000FB607FCFACFE889F989808185FFF5CF60
:1003D000CE010E948C01F1CFEB8DEC0FFD2FF11DB2
:1003E000E35AFF4FF0829FB7F8940B8FEA89FB899D
:1003F00080818062CFCFCF93DF93EC01888D8823FB
:10040000B9F0AA89BB89E889F9898C9185FD03C077
:10041000808186FD0DC00FB607FCF7CF8C9185FF5C
:10042000F2CF808185FFEDCFCE010E948C01E9CF14
:10043000DF91CF9108952091A601260F3327331F16
:1004400021323105ECF42091CC01FC0190E080E0F8
:10045000243069F082E00895A091A6012191AC01B9
:100460004C575E4FA40FB52FB11D2C9301968617E4
:1004700098F38091A601680F6093A60180E008952B
:1004800081E008951092CC0181E08093CE0110921A
:10049000CD0161E082E10E94820061E083E10E947F
:1004A0008200E9EBF0E080818E7F808380818D7F08
:1004B000808388E48093B80085E48093BC0008952D
:1004C000CF93DF9391E0909383018823B9F0C0919B
:1004D000B800D091BA008091BC008A7B8093BC00A8
:1004E00060E082E10E94820060E083E10E9482007D
:1004F0000E944202D093BA00C093B800DF91CF911E
:100500000895089508950895E0917B0180917A01FE
:10051000E81730F4F0E0E65AFE4F808190E008954D
:100520008FEF9FEF089590917B0180917A012FEFDB
:100530003FEF981748F4E92FF0E0E65AFE4F20818C
:1005400030E09F5F90937B01C901089580917A010B
:1005500090917B01891B990B0895CF92DF92EF92C6
:10056000FF920F931F93CF93DF937C01CB018A01FE
:1005700020915901222389F0EB016B01C40ED51E95
:10058000CC15DD0569F06991D701ED91FC910190E1
:10059000F081E02DC7010995F3CF642F0E941B0263
:1005A000C801DF91CF911F910F91FF90EF90DF90E5
:1005B000CF900895CF93DF931F92CDB7DEB76983B5
:1005C000209159012223F9F020917C01203258F02A
:1005D00021E030E0FC013383228390E080E00F9043
:1005E000DF91CF91089580917D01E82FF0E0E75CE5
:1005F000FE4F998190838F5F80937D0180937C0172
:1006000081E090E0ECCF61E0CE0101960E941B02F8
:10061000F7CF90E080E008958F929F92AF92BF92C3
:10062000CF92DF92EF92FF920F931F93CF938B01A4
:10063000FC01C08581E080935901C093380110927C
:100640007D0110927C0160E480EA92E00E94DA026F
:10065000B80184E0759567958A95E1F780EA92E0A4
:100660000E94DA02602F6295607F80EA92E00E9429
:10067000DA0210917C01113208F092C00E94E90068
:100680006B017C018091CC01811165C082E0809377
:10069000CC0181E08093CE018FEF8093CB0110924B
:1006A000F0011093EF01A9E3B1E0EFECF1E080E09D
:1006B000181388C01092F1018091F101CC0FC82B62
:1006C000C093F1018091CD01813009F07FC010927B
:1006D000CD010E94E9006B017C018091F1018093C2
:1006E000BB0080917F0190918001A0918101B09128
:1006F0008201892B8A2B8B2B99F00E94E9000091B3
:100700007F011091800120918101309182016C194B
:100710007D098E099F090617170728073907E0F199
:100720008091BC0083FDD9CF85EC8093BC000E94F2
:10073000E9006B017C018091CC01823009F448C052
:100740008091CB018F3F61F18091CB01803241F1EB
:100750008091CB0125C080917F0190918001A09173
:100760008101B0918201892B8A2B8B2B09F48ACFCE
:100770000E94E90080907F0190908001A09081010B
:10078000B09082016C197D098E099F098616970623
:10079000A806B90608F076CF80917E010E9460021B
:1007A00010927D0110927C0110925901CF911F91FE
:1007B0000F91FF90EF90DF90CF90BF90AF909F9000
:1007C0008F9008959D9191938F5F72CF85EEADCFFD
:1007D00080917F0190918001A0918101B09182016F
:1007E000892B8A2B8B2B09F4A6CF0E94E90000915C
:1007F0007F011091800120918101309182016C195B
:100800007D098E099F09061717072807390708F081
:1008100092CFC2CFFC0184810C94CE00AF92BF92E4
:10082000CF92DF92EF92FF920F931F93CF93DF93BC
:100830008C015B017A01DC011D96CD91DC911E9744
:100840001996CD90DC90CC0EDD1ECC16DD0609F499
:100850003DC02FB7F8948091FB019091FC01A091CD
:10086000FD01B091FE012FBF80930B0290930C020B
:10087000A0930D02B0930E0283E092E00E944A0121
:1008800097FF46C02FB7F8948091FB019091FC012F
:10089000A091FD01B091FE012FBF40910B0250913C
:1008A0000C0260910D0270910E02841B950BA60B39
:1008B000B70B4091070250910802609109027091B4
:1008C0000A0284179507A607B707B0F2D8011D964C
:1008D000ED91FC911E97808190E0F50191838083DA
:1008E0001D96ED91FC91818190E0982F88272281BF
:1008F000820F911DD7018D939C93DF91CF911F9112
:100900000F91FF90EF90DF90CF90BF90AF90089540
:1009100089939BCFE3E0F2E0A089B18982E08C93D8
:10092000A485B5851C92A685B78580E18C93108E31
:10093000A489B58986E08C93A289B3898C91806162
:100940008C93A289B3898C9188608C93A289B38996
:100950008C9180688C930288F389E02D80818F7D53
:10096000808310927B0110927A0110927D01109287
:100970007C010E94420281E892E09093A50180935D
:10098000A40182E892E09093A9018093A8010895C0
:100990000E948A0410920001089585ED8093BC00A6
:1009A00080917F0190918001A0918101B09182019D
:1009B0000796A11DB11D23E0B695A795979587953C
:1009C0002A95D1F72091BC0024FD03C01092CC01E0
:1009D000089540917F015091800160918101709153
:1009E0008201452B462B472B69F30097A105B105E2
:1009F00041F02AE22A95F1F700C00197A109B10957
:100A0000E1CF80917E010C9460021F920F920FB68D
:100A10000F9211242F933F938F939F93AF93BF9384
:100A20008091FB019091FC01A091FD01B091FE012C
:100A30003091FA0123E0230F2D3758F50196A11DBF
:100A4000B11D2093FA018093FB019093FC01A093C8
:100A5000FD01B093FE018091FF0190910002A091F1
:100A60000102B09102020196A11DB11D8093FF0108
:100A700090930002A0930102B0930202BF91AF9144
:100A80009F918F913F912F910F900FBE0F901F90CC
:100A9000189526E8230F0296A11DB11DD2CF1F92F3
:100AA0000F920FB60F9211242F933F934F935F93A2
:100AB0006F937F938F939F93AF93BF93EF93FF9326
:100AC00083E092E00E948C01FF91EF91BF91AF9182
:100AD0009F918F917F916F915F914F913F912F9156
:100AE0000F900FBE0F901F9018951F920F920FB688
:100AF0000F9211242F938F939F93EF93FF93E09185
:100B00001302F09114028081E0911902F0911A020F
:100B100082FD1BC0908180911C028F5F8F7320919A
:100B20001D02821741F0E0911C02F0E0ED5FFD4FE5
:100B3000958F80931C02FF91EF919F918F912F9140
:100B40000F900FBE0F901F9018958081F4CF1F92C9
:100B50000F920FB60F9211242F933F934F935F93F1
:100B60006F937F938F939F93AF93BF93EF93FF9375
:100B70008091B900887F803609F44AC0F0F5883248
:100B800009F4A7C018F5803109F49BC0B8F4882394
:100B900009F4F9C0883009F494C0FF91EF91BF9136
:100BA000AF919F918F917F916F915F914F913F9105
:100BB0002F910F900FBE0F901F901895883109F458
:100BC00088C0803251F78093CB0114C0803409F47F
:100BD0009DC040F48033B9F38833F9F68093CB019C
:100BE00085ECB0C0803509F485C0883509F496C01D
:100BF000883499F60E94CD04D0CF883909F48CC08E
:100C000038F5883729F050F4883611F0803729F606
:100C100083E08093CC011092CA0157C0883809F450
:100C20007BC0803919F0803809F0B7CF8091CA01B4
:100C3000803208F071C0E091CA0181E08E0F80938C
:100C4000CA018091BB00F0E0E655FE4F80833DC0B5
:100C5000803B39F0E0F4803A09F479C0883A09F031
:100C60009CCF84E08093CC011092A7011092A60142
:100C7000E091A401F091A50109958091A60181114F
:100C80000FC081E08093A6011092840109C0803CCE
:100C900009F4A6CF883C09F4A3CF883B09F07DCFA7
:100CA000E091A70181E08E0F8093A701F0E0EC575F
:100CB000FE4F80818093BB009091A7018091A60197
:100CC00029C08091F1018093BB0085EC8093BC002A
:100CD00064CF9091F0018091EF01981758F5E09161
:100CE000F00181E08E0F8093F001F0E0E153FE4FC0
:100CF0008081E9CFE091F00181E08E0F8093F001D7
:100D00008091BB00F0E0E153FE4F80839091F001B1
:100D10008091EF019817C8F285E8D8CFE091F001F3
:100D200081E08E0F8093F0018091BB00F0E0E153F1
:100D3000FE4F80838091CE0181115CCF81E0809352
:100D4000CD0184EA8093BC001092CC0126CF85ECC3
:100D50008093BC001092CC018091CA01803230F4A3
:100D6000E091CA01F0E0E655FE4F10826091CA01A1
:100D700070E0E091A801F091A9018AEA91E009955B
:100D80001092CA010ACF1092CB0134CFCF93DF93D8
:100D9000E3E0F2E01382128288EE93E0A0E0B0E09C
:100DA00084839583A683B7832BE031E0318320834E
:100DB00025EC30E03587248724EC30E03787268720
:100DC00020EC30E0318B208B21EC30E0338B228B18
:100DD00022EC30E0358B248B26EC30E0378B268BF1
:100DE000118E128E138E148EE0EAF2E013821282BC
:100DF00084839583A683B7838DE191E0918380837B
:100E0000CCEAD2E08EE090E09B838A8381E190E09F
:100E10009D838C831F821E8280E6888783E090E01A
:100E20009A8789879C878B870E94FE079E878D877C
:100E300083E090E00E94FE07988B8F8781E090E02E
:100E40009A8B898B8DE48B8B87E48C8B8FE291E07E
:100E500099838883DF91CF910895789484B58260D7
:100E600084BD84B5816084BD85B5826085BD85B54E
:100E7000816085BD80916E00816080936E001092CC
:100E80008100809181008260809381008091810047
:100E900081608093810080918000816080938000D8
:100EA0008091B10084608093B1008091B000816036
:100EB0008093B00080917A00846080937A00809162
:100EC0007A00826080937A0080917A0081608093BA
:100ED0007A0080917A00806880937A001092C10035
:100EE0008CEA92E00E94C804C0E0D0E083E092E087
:100EF0000E946C0118161906B4F546EF51E068EF30
:100F000071E08CEA92E00E940E048091F8019091C9
:100F1000F9018130910589F18230910509F461C0B0
:100F2000892BA9F4E091BB02F091BC028091BD0233
:100F30008083E091BB02F091BC028091BF0281836B
:100F4000E091BB02F091BC028091C002828340918B
:100F5000B7025091B8026091BB027091BC0283E06D
:100F600092E00E940E01209709F20E9478018823E6
:100F700009F4BCCF0E940000B9CF6091F6017091D6
:100F8000F7018CEA92E00E940C038CEA92E00E9446
:100F90000A049093F5018093F4018091AE020E94BF
:100FA000CE009093F3018093F201E091BB02F091A7
:100FB000BC0224E0959587952A95E1F7807F909172
:100FC000F501890F8083E091BB02F091BC02809112
:100FD000F2018183E091BB02F091BC028091F401A7
:100FE000B5CF70E060E08CEA92E00E940C03AFCFD6
:100FF000EE0FFF1F0590F491E02D09940F931F93BE
:10100000CF93DF938230910510F482E090E0E0917D
:10101000C302F091C40230E020E0B0E0A0E03097DD
:1010200099F42115310509F44AC0281B390B2430E5
:101030003105D8F58A819B816115710589F1FB0124
:1010400093838283FE0111C040815181028113810B
:1010500048175907E0F04817590799F4109761F0BD
:1010600012960C93129713961C933296CF01DF9130
:10107000CF911F910F9108950093C3021093C40262
:10108000F4CF2115310551F04217530738F0A9016B
:10109000DB019A01BD01DF01F801C1CFEF01F9CFFA
:1010A0009093C4028093C302CDCFFE01E20FF31FE1
:1010B000819391932250310939832883D7CF20918E
:1010C000C1023091C202232B41F4209103013091DF
:1010D00004013093C2022093C1022091010130919A
:1010E00002012115310541F42DB73EB740910501AC
:1010F00050910601241B350BE091C102F091C20210
:10110000E217F307A0F42E1B3F0B2817390778F0DE
:10111000AC014E5F5F4F2417350748F04E0F5F1F3D
:101120005093C2024093C102819391939FCFF0E00C
:10113000E0E09CCFCF93DF930097E9F0FC0132977A
:1011400013821282A091C302B091C402ED0130E07B
:1011500020E01097A1F420813181820F931F20910C
:10116000C1023091C2022817390709F061C0F0931B
:10117000C202E093C102DF91CF910895EA01CE1738
:10118000DF07E8F54A815B819E0141155105B1F702
:10119000E901FB83EA8349915991C40FD51FEC17EC
:1011A000FD0761F4808191810296840F951FE9010A
:1011B00099838883828193819B838A83F0E0E0E036
:1011C00012968D919C9113970097B9F52D913C91B2
:1011D0001197CD010296820F931F2091C102309189
:1011E000C2022817390739F6309751F51092C40218
:1011F0001092C302B093C202A093C102BCCFD383AA
:10120000C28340815181840F951FC817D90761F4AB
:101210004E5F5F4F88819981480F591F51834083EA
:101220008A819B81938382832115310509F0B0CF98
:10123000F093C402E093C3029ECFFD01DC01C0CF56
:0A12400013821282D7CFF894FFCF7B
:10124A00010000C502800000000000AE010E013B53
:10125A0001FB016C014A015E0100000000DA02ADE7
:10126A000209038302A6029302840200000000C856
:08127A00040E040A040C030039
:00000001FF
