:100000000C9464010C9495010C9495010C94950149
:100010000C9495010C9495010C9495010C94950108
:100020000C9495010C9495010C9495010C949501F8
:100030000C9495010C9495010C9495010C949501E8
:100040000C9495010C9495010C9495010C949501D8
:100050000C9495010C9495010C9495010C941B093A
:100060000C9495010C948F090C9465090C949501DE
:100070000C9495010C9495010C9495010C949501A8
:100080000C9495010C9495010C9495010C94950198
:100090000C9495010C9495010C9495010C94C50950
:1000A0000C9495010C9495010C9495010C94950178
:1000B0000C9495010C9495010C9495010C94950168
:1000C0000C9495010C9495010C9495010C94950158
:1000D0000C9495010C9495010C9495010C94950148
:1000E0000C9495010C9484020C946E050C942007DA
:1000F0000C9497050C94E6010C94EB010C943202DD
:100100000C94C6060C946C050C94C0020C947D05EE
:100110000C94FD010C9420020C9424020C946B05A9
:100120000C9409020C94C4030C9490050C941202D4
:100130000C940C070C9466070C948A060C945707D1
:100140000C942A020C943F030C94C4050C946D0586
:100150000C94FA060C9401020C948A070C944D0737
:100160000C9477030C941C020C94D4060C942F0767
:100170000C94B1020C94F2060C9416070C94E0084F
:100180000C9405020C94CF060C942E020C94430799
:100190000C9439070C9431030C94F3050C94E80685
:1001A0000C94DE060C9416020C94E90A0C943C02A2
:1001B0000C9438020C940C020C9402070C94610706
:1001C00000000A0B02090C0D0E08070304010000D1
:1001D000000000000000000000000000000000001F
:1001E00000000000000000000000000012111000DC
:1001F00000000000000000000000000000000000FF
:1002000000000000000000002200250028002B0054
:100210002E003100340002010000050108010B012D
:1002200000002100240027002A002D0030003300A8
:1002300001010000040107010A0105050505070584
:1002400008080808020202020A0A08080404040452
:10025000010101010101010103030303030303037E
:10026000040707070C0C0C0C0C0C0C0C020202020D
:1002700006060606060606060B0B0B0B0B0B0B0BF6
:1002800001021020200808102040102040800201A8
:10029000020108040201010204081020408080408D
:1002A000201008040201800402018040201008048C
:1002B000020108040201010204081020408001022A
:1002C000040810204080E90A11241FBECFEFD1E2BC
:1002D000DEBFCDBF00E00CBF23E0A6E3B2E001C06B
:1002E0001D92A83DB207E1F712E0A0E0B2E0ECE118
:1002F000FBE100E00BBF02C007900D92A633B107EF
:10030000D9F711E0C4E6D1E000E006C02197010969
:10031000802FFE010E945F0CC336D10780E00807E2
:10032000A9F70E94700B0C948C0D0C94000090E0C7
:10033000FC01E058FD4F2491865C9D4FFC018491A7
:10034000882399F090E0880F991FFC01E05EFD4F33
:10035000A591B491FC01EA5FFD4F859194918FB70F
:10036000F894EC91E22BEC938FBF0895282F30E0A6
:10037000F901E054FE4F9491F901E058FD4F44918A
:10038000265C3D4FF9012491222309F435C09923BD
:1003900011F191509231F8F4E92FF0E08827EC52F6
:1003A000FE4F8F4F0C945F0C05020902E601FD0120
:1003B0000102EB010C02120216021C0220022402AE
:1003C0002A022E02EB01320238023C0280918000A8
:1003D0008F7780938000E22FF0E0EE0FFF1FEA5F3F
:1003E000FD4FA591B4918FB7F894EC91611148C07D
:1003F00040954E234C938FBF0895809180008F7D50
:10040000E8CF80918000877FE4CF84B58F7784BD6B
:10041000E2CF84B58F7DFBCF8091B0008F77809342
:10042000B000D9CF8091B0008F7DF9CF809190003E
:100430008F7780939000CFCF809190008F7DF9CF00
:1004400080919000877FF5CF8091A0008F77809377
:10045000A000C1CF8091A0008F7DF9CF8091A00036
:10046000877FF5CF809120018F7780932001B3CFD4
:10047000809120018F7DF9CF80912001877FF5CF7A
:100480004E2BB8CF863308F0865320917B00982FEF
:100490009870277F922B90937B0087708064809365
:1004A0007C0080917A00806480937A0080917A0049
:1004B00086FDFCCF809178009091790008953FB738
:1004C000F8948091A9029091AA02A091AB02B091F8
:1004D000AC0226B5A89B05C02F3F19F00196A11DBF
:1004E000B11D3FBFBA2FA92F982F8827BC01CD017E
:1004F000620F711D811D911D42E0660F771F881FDD
:10050000991F4A95D1F70895AF92BF92CF92DF928B
:10051000EF92FF920F931F93CF93DF936C017B01B8
:100520008B01040F151FEB015E01AE18BF08C01749
:10053000D10759F06991D601ED91FC910190F081BC
:10054000E02DC6011995892B79F7C501DF91CF916F
:100550001F910F91FF90EF90DF90CF90BF90AF90E1
:100560000895FC01538D448D252F30E0842F90E0B9
:10057000821B930B541710F0CF960895019708959E
:10058000FC01918D828D981761F0A28DAE0FBF2F67
:10059000B11D5D968C91928D9F5F9F73928F90E0BD
:1005A00008958FEF9FEF0895CF92DF92EF92FF9221
:1005B0000F931F93CF93DF937C018C01060F171FBE
:1005C000EC016E01CE18DF080C171D0709F43DC0C1
:1005D0002FB7F8948091AD029091AE02A091AF0236
:1005E000B091B0022FBF8093090390930A03A093A8
:1005F0000B03B0930C0381E093E00E94C00297FFCD
:100600002EC02FB7F8948091AD029091AE02A091C8
:10061000AF02B091B0022FBF4091090350910A037D
:1006200060910B0370910C03841B950BA60BB70B09
:1006300040910503509106036091070370910803F0
:1006400084179507A607B707B0F2C601DF91CF91CF
:100650001F910F91FF90EF90DF90CF9008958993B5
:10066000B0CFFC01918D828D981731F0828DE80F0B
:10067000F11D858D90E008958FEF9FEF0895FC01A7
:10068000918D228D892F90E0805C9F4F821B910974
:100690008F739927089581E093E00E943F0321E042
:1006A000892B09F420E0822F0895FC01A48DA80F66
:1006B000B92FB11DA35ABF4F2C91848D90E00196A4
:1006C0008F739927848FA689B7892C93A089B189C4
:1006D0008C91837080648C93938D848D981306C065
:1006E0000288F389E02D80818F7D80830895EF92C9
:1006F000FF920F931F93CF93DF93EC0181E0888FDC
:100700009B8D8C8D98131AC0E889F989808185FFAB
:1007100015C09FB7F894EE89FF896083E889F9894D
:1007200080818370806480839FBF81E090E0DF914F
:10073000CF911F910F91FF90EF900895F62E0B8DA2
:1007400010E00F5F1F4F0F731127E02E8C8D8E115D
:100750000CC00FB607FCFACFE889F989808185FFC4
:10076000F5CFCE010E945503F1CFEB8DEC0FFD2F9D
:10077000F11DE35AFF4FF0829FB7F8940B8FEA897F
:10078000FB8980818062CFCFCF93DF93EC01888D8E
:100790008823B9F0AA89BB89E889F9898C9185FDFC
:1007A00003C0808186FD0DC00FB607FCF7CF8C918A
:1007B00085FFF2CF808185FFEDCFCE010E945503EA
:1007C000E9CFDF91CF91089580E090E0892B29F067
:1007D0000E944B0381110E94000080E090E0892B71
:1007E00049F080E090E0892B29F00E9400008111FF
:1007F0000E94000080E090E0892B49F080E090E0CA
:10080000892B29F00E94000081110E94000080E0E5
:1008100090E0892B49F080E090E0892B29F00E943C
:10082000000081110C940000089520915902260FB8
:100830003327331F21323105ECF42091D702FC011C
:1008400090E080E0243069F082E00895A0915902A0
:100850002191AC01495C5D4FA40FB52FB11D2C93C4
:100860000196861798F380915902680F6093590298
:1008700080E0089581E008951092D70281E080938E
:10088000D6021092B10261E084E10E94B60161E0FB
:1008900085E10E94B601E9EBF0E080818E7F8083E4
:1008A00080818D7F808388E48093B80085E4809385
:1008B000BC000895CF93DF9391E090933602882394
:1008C000B9F0C091B800D091BA008091BC008A7B89
:1008D0008093BC0060E084E10E94B60160E085E1A5
:1008E0000E94B6010E943C04D093BA00C093B800A5
:1008F000DF91CF9108958F929F92AF92BF92CF9246
:10090000DF92EF92FF920F931F93CF93DF93D091DB
:100910000003D13208F0D7C0182FC091FF020E9407
:100920005F026B017C018091D70281116BC082E074
:100930008093D7021093D6028FEF8093D502109246
:10094000D402D093D302AFEDB2E0E3EBF2E080E06B
:10095000D81391C01092B2028091B202CC0FC82B72
:10096000C093B2028091B102813009F088C0109228
:10097000B1020E945F026B017C018091B202809300
:10098000BB008091D9029091DA02A091DB02B09174
:10099000DC02892B8A2B8B2BA1F00E945F02009135
:1009A000D9021091DA022091DB023091DC026C193D
:1009B0007D098E099F09061717072807390708F4CC
:1009C00042C08091BC0083FDD8CF85EC8093BC00F1
:1009D0000E945F026B017C018091D702823009F492
:1009E00050C08091D5028F3F09F46FC08091D5022D
:1009F000803209F46CC08091D502803309F469C05B
:100A000084E026C08091D9029091DA02A091DB02A5
:100A1000B091DC02892B8A2B8B2B09F484CF0E94A6
:100A20005F028090D9029090DA02A090DB02B09031
:100A3000DC026C197D098E099F0986169706A806A7
:100A4000B90608F070CF8091D8020E945A0485E060
:100A50001092DE02109200031092DD02DF91CF911E
:100A60001F910F91FF90EF90DF90CF90BF90AF90CC
:100A70009F908F9008959D9191938F5F69CF85EEA0
:100A8000A5CF8091D9029091DA02A091DB02B091BA
:100A9000DC02892B8A2B8B2B09F49ECF0E945F02EC
:100AA0000091D9021091DA022091DB023091DC0230
:100AB0006C197D098E099F09061717072807390742
:100AC00008F08ACFC0CF81E0C3CF80E0C1CF82E001
:100AD000BFCF83E0BDCF089508950895E0917F02D0
:100AE00080917E02E81730F4F0E0E058FD4F8081FD
:100AF00090E008958FEF9FEF089590917F0280918D
:100B00007E022FEF3FEF981748F4E92FF0E0E0580E
:100B1000FD4F208130E09F5F90937F02C9010895CF
:100B200080917E0290917F02891B990B0895CF924C
:100B3000DF92EF92FF920F931F93CF93DF937C018D
:100B4000CB018A012091DD02222389F0EB016B01A8
:100B5000C40ED51ECC15DD0569F06991D701ED9164
:100B6000FC910190F081E02DC7011995F3CF642F1E
:100B70000E941504C801DF91CF911F910F91FF9042
:100B8000EF90DF90CF900895CF93DF931F92CDB772
:100B9000DEB769832091DD022223F9F02091000362
:100BA000203258F021E030E0FC013383228390E0D2
:100BB00080E00F90DF91CF9108958091DE02E82FC1
:100BC000F0E0E152FD4F998190838F5F8093DE02C8
:100BD0008093000381E090E0ECCF61E0CE010196CC
:100BE0000E941504F7CF90E080E00895CF93DF9343
:100BF000EB01FC01808591E09093DD028093FF0280
:100C00001092DE021092000360E48EE993E00E94ED
:100C1000C405BE0184E0759567958A95E1F78EE974
:100C200093E00E94C4056C2F6295607F8EE993E08B
:100C30000E94C40581E0DF91CF910C947B04FC01FC
:100C400084810C944202EF92FF920F931F93CF93F3
:100C5000DF93EC017B018A0169857A858D859E850C
:100C60000E94D402ED85FE85808190E0F70191839A
:100C70008083ED85FE85818190E0982F88272281F1
:100C8000820F911DF80191838083DF91CF911F9195
:100C90000F91FF90EF900895E1E0F3E0A089B18912
:100CA00082E08C93A485B5851C92A685B78580E1EA
:100CB0008C93108EA489B58986E08C93A289B38920
:100CC0008C9180618C93A289B3898C9188608C937C
:100CD000A289B3898C9180688C930288F389E02D76
:100CE00080818F7D808310927F0210927E0210920D
:100CF000DE02109200030E943C048BE695E0909384
:100D00005802809357028CE695E090935C028093A2
:100D10005B0208950F931F93CF93DF93EB01FC01C8
:100D200006811781802F0E949701209741F460E08F
:100D3000802FDF91CF911F910F910C94B601CF3F7F
:100D4000D10511F461E0F4CFF801FF27E054FE4F24
:100D5000E491E150E23108F0B4C0F0E08827EC54AF
:100D6000F94F8F4F0C945F0CC606CF06D406DE06F3
:100D7000E8066107F206FA0602070C0716072007C5
:100D80002F073907610743074D07570784B5806868
:100D900084BDC7BDDF91CF911F910F91089584B598
:100DA000806284BDC8BDF6CF80918000806880934A
:100DB0008000D0938900C0938800ECCF80918000A0
:100DC000806280938000D0938B00C0938A00E2CF32
:100DD00080918000886080938000D0938D00C093C4
:100DE0008C00D8CF8091B00080688093B000C09311
:100DF000B300D0CF8091B00080628093B000C093E8
:100E0000B400C8CF80919000806880939000D09308
:100E10009900C0939800BECF80919000806280932B
:100E20009000D0939B00C0939A00B4CF8091900023
:100E3000886080939000D0939D00C0939C00AACFBF
:100E40008091A00080688093A0008091A0008F7B9B
:100E50008093A000D093A900C093A8009BCF80915D
:100E6000A00080628093A000D093AB00C093AA0042
:100E700091CF8091A00088608093A000D093AD00B6
:100E8000C093AC0087CF80912001806880932001BF
:100E9000D0932901C09328017DCF809120018062E9
:100EA00080932001D0932B01C0932A0173CF8091AE
:100EB0002001886080932001D0932D01C0932C01E4
:100EC00069CFC038D1050CF03DCF31CFEF92FF9202
:100ED0000F931F93CF93DF93EC017B018A01698508
:100EE0007A858D859E850E94D402ED85FE85808160
:100EF00090E0F70191838083ED85FE85818190E00C
:100F0000F80191838083DF91CF911F910F91FF9022
:100F1000EF900895CF93DF93EC010E944C061E8A58
:100F200080E00E9497011F8A8E898F3F19F060E050
:100F30000E94B6018D8991E09093DD028093FF02BB
:100F40001092DE021092000381E0DF91CF910C94A9
:100F50007B048F929F92AF92BF92CF92DF92EF92DB
:100F6000FF920F931F93CF93DF938C01DC011496B4
:100F70001C921E92139715968D919C9116972C9109
:100F800031E03093DD022093FF021092DE021092D6
:100F90000003DC01ED91FC910190F081E02D6CE00B
:100FA000199581E00E947B04C82F8AE99FEFC11147
:100FB0009CC0D801DC910E945F026B017C01809192
:100FC000D702811164C081E08093D7028093D6025A
:100FD0009FEF9093D5021092D4028093D302809316
:100FE000B2028091B202DD0FD82BD093B202809171
:100FF000B102813009F0A3C01092B1020E945F02D9
:101000006B017C018091B2028093BB008091D90278
:101010009091DA02A091DB02B091DC02892B8A2B3D
:101020008B2BA1F00E945F028090D9029090DA028F
:10103000A090DB02B090DC026C197D098E099F093B
:1010400086169706A806B90608F442C08091BC002F
:1010500083FDD8CF85EC8093BC000E945F026B01BA
:101060007C018091D702813009F46BC08091D40259
:10107000823008F088C08091D402A3EBB2E0E0E8AF
:10108000F2E0C81749F19D919193CF5FFACF80911B
:10109000D9029091DA02A091DB02B091DC02892B97
:1010A0008A2B8B2B09F48BCF0E945F028090D90290
:1010B0009090DA02A090DB02B090DC026C197D09FE
:1010C0008E099F0986169706A806B90608F077CFFD
:1010D0008091D8020E945A0410927F02C0937E022F
:1010E000C23009F452C089E99FEFF80194838383E9
:1010F00090E080E09F70F801258536852115310547
:1011000019F0820F931F9F70D80111962C9111979F
:101110002F3F41F412962C91213021F49195819525
:1011200091099F70DF91CF911F910F91FF90EF90E8
:10113000DF90CF90BF90AF909F908F90089585EEF5
:101140008ACF8091D9029091DA02A091DB02B0910E
:10115000DC02892B8A2B8B2B09F483CF0E945F0240
:101160008090D9029090DA02A090DB02B090DC026D
:101170006C197D098E099F0986169706A806B9067F
:1011800008F06FCFA5CF82E078CFD80115968D916A
:101190009C91DC01ED91FC910284F385E02D199581
:1011A000D82FB0E0CB2FF80185819681DC01ED913D
:1011B000FC910284F385E02D19958C0F9D1F9ACF29
:1011C00045960C94A90785ED8093BC008091D902C7
:1011D0009091DA02A091DB02B091DC020796A11D8A
:1011E000B11D23E0B695A795979587952A95D1F7D8
:1011F0002091BC0024FD03C01092D70208954091B5
:10120000D9025091DA026091DB027091DC02452B29
:10121000462B472B69F30097A105B10541F02AE25F
:101220002A95F1F700C00197A109B109E1CF80919A
:10123000D8020C945A041F920F920FB60F921124E9
:101240002F933F938F939F93AF93BF938091AD0262
:101250009091AE02A091AF02B091B0023091A8027D
:1012600023E0230F2D3758F50196A11DB11D2093C2
:10127000A8028093AD029093AE02A093AF02B09308
:10128000B0028091A9029091AA02A091AB02B09104
:10129000AC020196A11DB11D8093A9029093AA02F0
:1012A000A093AB02B093AC02BF91AF919F918F918D
:1012B0003F912F910F900FBE0F901F90189526E829
:1012C000230F0296A11DB11DD2CF1F920F920FB610
:1012D0000F9211240BB60F922F933F934F935F936E
:1012E0006F937F938F939F93AF93BF93EF93FF93EE
:1012F00081E093E00E945503FF91EF91BF91AF9180
:101300009F918F917F916F915F914F913F912F911D
:101310000F900BBE0F900FBE0F901F9018951F924D
:101320000F920FB60F9211240BB60F922F938F933B
:101330009F93EF93FF93E0911103F091120380814B
:10134000E0911703F091180382FD1DC090818091F8
:101350001A038F5F8F7320911B03821741F0E09176
:101360001A03F0E0EF5FFC4F958F80931A03FF9113
:10137000EF919F918F912F910F900BBE0F900FBE09
:101380000F901F9018958081F2CF1F920F920FB689
:101390000F9211240BB60F922F933F934F935F93AD
:1013A0006F937F938F939F93AF93BF93EF93FF932D
:1013B0008091B900887F803609F44DC008F040C0A4
:1013C000883209F4A9C028F5803109F49DC0C8F419
:1013D000882309F4FBC0883009F496C0FF91EF918F
:1013E000BF91AF919F918F917F916F915F914F913D
:1013F0003F912F910F900BBE0F900FBE0F901F903B
:101400001895883109F488C0803241F78093D5025D
:1014100014C0803409F49DC040F48033B9F388339C
:10142000E9F68093D50285ECB0C0803509F485C01B
:10143000883509F496C0883489F60E94E308CECF37
:10144000883909F48CC038F5883729F050F488368B
:1014500011F0803719F683E08093D70210927D0255
:1014600057C0883809F47BC0803919F0803809F0FA
:10147000B5CF80917D02803208F071C0E0917D028D
:1014800081E08E0F80937D028091BB00F0E0E35AF3
:10149000FD4F80833DC0803B39F0E0F4803A09F491
:1014A00079C0883A09F09ACF84E08093D7021092ED
:1014B0005A0210925902E0915702F0915802199580
:1014C0008091590281110FC081E0809359021092DE
:1014D000370209C0803C09F4A6CF883C09F4A3CFA9
:1014E000883B09F07BCFE0915A0281E08E0F809318
:1014F0005A02F0E0E95CFD4F80818093BB0090913F
:101500005A028091590229C08091B2028093BB0097
:1015100085EC8093BC0062CF9091D4028091D3027D
:10152000981758F5E091D40281E08E0F8093D40291
:10153000F0E0ED54FD4F8081E9CFE091D40281E0ED
:101540008E0F8093D4028091BB00F0E0ED54FD4FEC
:1015500080839091D4028091D3029817C8F285E8D5
:10156000D8CFE091D40281E08E0F8093D402809195
:10157000BB00F0E0ED54FD4F80838091D6028111D5
:101580005CCF81E08093B10284EA8093BC0010922A
:10159000D70224CF85EC8093BC001092D7028091B3
:1015A0007D02803230F4E0917D02F0E0E35AFD4F9D
:1015B000108260917D0270E0E0915B02F0915C022C
:1015C0008DE592E0199510927D0208CF1092D50218
:1015D00034CF0F931F93CF93DF93E1E0F3E01382B7
:1015E000128288EE93E0A0E0B0E084839583A68326
:1015F000B7832AE032E03183208325EC30E0358761
:10160000248724EC30E03787268720EC30E0318BCC
:10161000208B21EC30E0338B228B22EC30E0358BB9
:10162000248B26EC30E0378B268B118E128E138E96
:10163000148E0EE913E0F8011382128284839583DD
:10164000A683B7838CE192E091838083CAEAD3E0DA
:1016500089E390E09B838A831D821C8285E090E071
:101660009F838E8380E6888782E090E09A878987CF
:1016700083E090E09C878B8782E090E00E94670C7B
:101680009E878D8783E090E00E94670C988B8F8700
:1016900081E090E09A8B898B81E48B8B85E48C8B45
:1016A0008EE292E09983888386E38D8B8FEF8E8B19
:1016B0001F8A198E188E1C8E1D8E1E8E1F8E19A2CB
:1016C00018A21BA21AA21CA21DA21EA21FA219A62A
:1016D00018A61B8F0A8FDF91CF911F910F9108954C
:1016E000789484B5826084BD84B5816084BD85B5FD
:1016F000826085BD85B5816085BD80916E00816009
:1017000080936E00109281008091810082608093AE
:1017100081008091810081608093810080918000B0
:101720008160809380008091B10084608093B100DB
:101730008091B00081608093B000809191008260C0
:1017400080939100809191008160809391008091BD
:1017500090008160809390008091A10082608093CE
:10176000A1008091A10081608093A1008091A000E0
:1017700081608093A000809121018260809321018B
:1017800080912101816080932101809120018160FD
:101790008093200180917A00846080937A00809108
:1017A0007A00826080937A0080917A0081608093D1
:1017B0007A0080917A00806880937A001092C1004C
:1017C0008AEA93E00E948A0781E093E00E943F0347
:1017D00018161906B4F544EA52E066EA72E08AEA9D
:1017E00093E00E9466078091A6029091A702813043
:1017F000910551F18230910509F45AC0892BA9F461
:10180000E091B903F091BA038091BB038083E0912A
:10181000B903F091BA038091BD038183E091B903CC
:10182000F091BA038091BE0382834091B503509139
:10183000B6036091B9037091BA0381E093E00E940E
:1018400084020E94E403C0CF6091A4027091A502BB
:101850008AEA93E00E948A068FEB93E00E94A90730
:101860009093A3028093A2028091AC030E94420253
:101870009093A1028093A002E091B903F091BA0382
:1018800024E0959587952A95E1F7807F9091A302B2
:10189000890F8083E091B903F091BA038091A0028F
:1018A0008183E091B903F091BA038091A202BCCF89
:1018B00070E060E08AEA93E00E948A06B6CFEE0FFD
:1018C000FF1F881F8BBF0790F691E02D19940F938F
:1018D0001F93CF93DF938230910510F482E090E064
:1018E000E091D603F091D70330E020E0B0E0A0E033
:1018F000309799F42115310509F44AC0281B390B9A
:1019000024303105D8F58A819B816115710589F1F3
:10191000FB0193838283FE0111C0408151810281CA
:10192000138148175907E0F04817590799F41097A1
:1019300061F012960C93129713961C933296CF0176
:10194000DF91CF911F910F9108950093D6031093CB
:10195000D703F4CF2115310551F04217530738F062
:10196000A901DB019A01BD01DF01F801C1CFEF013F
:10197000F9CF9093D7038093D603CDCFFE01E20F2A
:10198000F31F819391932250310939832883D7CF54
:101990002091D4033091D503232B41F420910202EE
:1019A000309103023093D5032093D4032091000299
:1019B000309101022115310541F42DB73EB7409118
:1019C000040250910502241B350BE091D403F091E1
:1019D000D503E217F307A0F42E1B3F0B2817390796
:1019E00078F0AC014E5F5F4F2417350748F04E0F7B
:1019F0005F1F5093D5034093D403819391939FCF5E
:101A0000F0E0E0E09CCFCF93DF930097E9F0FC019A
:101A1000329713821282A091D603B091D703ED01C1
:101A200030E020E01097A1F420813181820F931FD4
:101A30002091D4033091D5032817390709F061C0EC
:101A4000F093D503E093D403DF91CF910895EA0199
:101A5000CE17DF07E8F54A815B819E0141155105EC
:101A6000B1F7E901FB83EA8349915991C40FD51F6E
:101A7000EC17FD0761F4808191810296840F951F18
:101A8000E90199838883828193819B838A83F0E033
:101A9000E0E012968D919C9113970097B9F52D91E6
:101AA0003C911197CD010296820F931F2091D40390
:101AB0003091D5032817390739F6309751F5109230
:101AC000D7031092D603B093D503A093D403BCCF11
:101AD000D383C28340815181840F951FC817D907D2
:101AE00061F44E5F5F4F88819981480F591F518380
:101AF00040838A819B81938382832115310509F07C
:101B0000B0CFF093D703E093D6039ECFFD01DC0165
:0C1B1000C0CF13821282D7CFF894FFCF11
:101B1C000000D80380000000000077038402B102AB
:101B2C00C4033F03C002310300000000C405970545
:101B3C00F3056D0590057D056E05000000008A0714
:061B4C006607E0088A06AE
:00000001FF
