:100000000C94CD000C94F5000C94F5000C94F500C4
:100010000C94F5000C94F5000C94F5000C94F5008C
:100020000C94F5000C94F5000C94F8060C946707FA
:100030000C94F5000C94F5000C94F5000C94F5006C
:100040000C94F5000C94F5000C94F5000C94F5005C
:100050000C94F5000C94F5000C94F5000C94AE068D
:100060000C94F5000C94F5000C94F5000C94F5003C
:100070000C94F5000C94F5000C94F5000C94F5002C
:100080000C94F5000C94F5000C94F5000C94F5001C
:100090000C9499090C94F5000C94F5000C94F5005F
:1000A0000C94F5000C94F5000C94F500080B00027C
:1000B0000202000009040000010202000005240001
:1000C0001001052401010104240206052406000193
:1000D0000705810310004009040100020A00000026
:1000E00007050202400000070583024000000403E8
:1000F000090412010002EF02014041233680000191
:100100000102030141726475696E6F204C4C43001B
:1001100041726475696E6F204C656F6E6172646FB9
:1001200000070605040100080A0B0C0D0900000079
:1001300000250028002B002E0031000404040404D4
:10014000030405020202020403020202020606067A
:100150000606060404020202040404080201104018
:100160008040102040804080080204018040201020
:100170000201108010204040200000000200090F02
:100180000000030401000C0000000000000000005B
:100190000000000000000000B80A11241FBECFEFCD
:1001A000DAE0DEBFCDBF22E0AAE4B1E001C01D92DB
:1001B000A03AB207E1F711E0A0E0B1E0E2E9FAE12C
:1001C00002C005900D92AA34B107D9F710E0CDEC2A
:1001D000D0E004C02197FE010E941C0CCC3CD1074A
:1001E000C9F70E94070B0C94470D0C9400002FB721
:1001F000F89483E08093E9009091E800892F807261
:1002000095FF04C09091F20080E4891B2FBF0895F0
:10021000FC0180912A02882311F13FB7F89482E013
:100220008093E9002091F200822F90E018161906C1
:1002300014F481E090E0882339F0289844E6409354
:1002400029024091F1004083222339F02091F200ED
:10025000211103C02BE62093E8003FBF08958FEFE4
:100260009FEF08958091210281110DC082E080935B
:100270001D0284E080931E021092200210921F0241
:1002800081E0809321028DE192E00895282F30E0F3
:10029000F901E758FE4F9491F901E65AFE4F849117
:1002A000255C3E4FF9012491222309F430C09923A3
:1002B000E9F091509F30D0F4E92FF0E0EE59FE4F75
:1002C0000C941C0C90019401710188018C01760141
:1002D0007601760197019D01A101A501AB0176018F
:1002E000AF01909180009F7790938000E22FF0E023
:1002F000EE0FFF1FE35DFE4FA591B4919FB7F894F9
:10030000EC91611132C080958E238C939FBF08952C
:10031000909180009F7DE8CF90918000977FE4CFFF
:1003200094B59F7794BDE2CF94B59F7DFBCF90911C
:1003300090009F7790939000D9CF909190009F7DEF
:10034000F9CF90919000977FF5CF9091C0009F7763
:100350009093C000CBCF9091C0009F7DF9CF90913A
:10036000C200977F9093C200C1CF8E2BCECF823137
:1003700008F08251E82FF0E0EF5DFE4FE49190919C
:100380007B008E2F880F880F80729F7D892B809332
:100390007B0080910C0120E4829FC0011124E77052
:1003A000E82BE0937C0080917A00806480937A004F
:1003B00080917A0086FDFCCF809178009091790041
:1003C00008953FB7F8948091190290911A02A09174
:1003D0001B02B0911C0226B5A89B05C02F3F19F047
:1003E0000196A11DB11D3FBFBA2FA92F982F8827B5
:1003F000BC01CD01620F711D811D911D42E0660F90
:10040000771F881F991F4A95D1F70895CF92DF92E1
:10041000EF92FF920E94E1016B017C010E94E101D9
:100420006C197D098E099F09683E7340810591050D
:10043000A8F3FF90EF90DF90CF90089540910602CF
:100440005091070220910402309105024217530790
:10045000B4F49091E8009570E1F39091E80092FD7A
:1004600019C08093F10080910602909107020196D5
:100470008F739927892B19F48EEF8093E800809170
:10048000060290910702019690930702809306025C
:1004900081E0089580E00895EF92FF920F931F93FB
:1004A000CF93DF93F82E192FE62E042F81E0860FCD
:1004B000880F0E941E0283E00E941E02CF2DD12FC2
:1004C000EC0EFD2EF11CCE15DF05B9F007FF13C0B1
:1004D000FE0184910E941E02182F80E00E941E02DD
:1004E000812321968111EFCFDF91CF911F910F9141
:1004F000FF90EF9008958881EDCF81E0F5CFDF92F6
:10050000EF92FF920F931F93CF93DF93D82E8A0120
:10051000EB017B01E40EF51ECE15DF0559F0D7FE89
:1005200012C0FE0184910E941E0221968111F4CF17
:100530000FEF1FEFC801DF91CF911F910F91FF9037
:10054000EF90DF9008958881EECF0F931F93CF93A4
:10055000DF931F92CDB7DEB782E0898342E450E09B
:100560006CEA70E080E80E947F020E943201DC01A8
:1005700012960D911C910115110589F0D801ED918C
:10058000FC910280F381E02DBE016F5F7F4FC801B7
:10059000099597FD04C0F80100851185ECCF89818C
:1005A0000F90DF91CF911F910F910895615030F01E
:1005B0002091F100FC0120830196F8CF289884E671
:1005C0008093290208958F929F92AF92BF92CF920B
:1005D000DF92EF92FF920F931F93CF93DF936C0103
:1005E0007B018A0180910B01882309F458C0809116
:1005F0002A02882309F453C080910A0280FF05C0B3
:100600008091E00082608093E000E801B12C8AEFE5
:10061000A82E93E0892E2AE3922E209711F4BB2076
:10062000B9F10E94F700811106C0AA94AA20B9F17D
:100630000E940602F2CF8C171D0611F00CF08C2FD1
:100640009FB7F8948092E9002091E80025FD02C050
:100650009FBFE3CF282F30E0C21BD30BF70181509F
:1006600020F041914093F100FACFE20EF31EBB203F
:1006700021F09092E800B12CEBCF8091E80085FD4D
:10068000E7CF9092E800BB24B394209709F3F3CF0F
:100690005D9884E680930902101611063CF081E013
:1006A00090E0F6019383828310E000E0C801DF91BF
:1006B000CF911F910F91FF90EF90DF90CF90BF905F
:1006C000AF909F908F900895CF93DF931F92CDB7F7
:1006D000DEB76983DC01ED91FC910280F381E02DAE
:1006E00041E050E0BE016F5F7F4F09950F90DF91B1
:1006F000CF91089583E08093E9008091F2008823F0
:1007000019F08AE38093E80008950E94F70090E0D2
:100710000895CF93DF931F92CDB7DEB7FC01848598
:10072000958597FD08C02FEF3FEF358724870F9001
:10073000DF91CF910895CE0101960E9408010197A3
:1007400019F4898190E0F3CF8FEF9FEFF0CF0F93F3
:100750001F93CF93DF931F92CDB7DEB78C01FC01BF
:100760008485958597FF0BC0CE0101960E940801F4
:10077000019771F4898190E0F80195878487F801E9
:10078000848595850F90DF91CF911F910F910895EA
:100790008FEF9FEFF1CFFC018485958597FD0BC00E
:1007A0009FB7F89482E08093E9008091F2009FBFA8
:1007B00090E0019608959FB7F89482E08093E90055
:1007C0008091F2009FBF90E008952091B801260F1C
:1007D0003327331F21323105ECF42091DE01FC0177
:1007E00090E080E0243069F082E00895A091B801A3
:1007F0002191AC014A565E4FA40FB52FB11D2C9329
:100800000196861798F38091B801680F6093B8013C
:1008100080E0089581E008951092DE0181E08093E8
:10082000E0011092DF0161E082E00E94460161E098
:1008300083E00E944601E9EBF0E080818E7F8083B7
:1008400080818D7F808388E48093B80085E48093E5
:10085000BC000895CF93DF9391E090939501882396
:10086000B9F0C091B800D091BA008091BC008A7BE9
:100870008093BC0060E082E00E94460160E083E07B
:100880000E9446010E940C04D093BA00C093B800A5
:10089000DF91CF910895089508950895E0918D0115
:1008A00080918C01E81730F4F0E0E459FE4F80812C
:1008B00090E008958FEF9FEF089590918D018091C2
:1008C0008C012FEF3FEF981748F4E92FF0E0E4593F
:1008D000FE4F208130E09F5F90938D01C901089504
:1008E00080918C0190918D01891B990B0895CF9275
:1008F000DF92EF92FF920F931F93CF93DF937C01D0
:10090000CB018A0120916B01222389F0EB016B015D
:10091000C40ED51ECC15DD0569F06991D701ED91A6
:10092000FC910190F081E02DC7010995F3CF642F70
:100930000E94E503C801DF91CF911F910F91FF90B5
:10094000EF90DF90CF900895CF93DF931F92CDB7B4
:10095000DEB7698320916B012223F9F020918E018B
:10096000203258F021E030E0FC013383228390E014
:1009700080E00F90DF91CF91089580918F01E82F53
:10098000F0E0E55BFE4F998190838F5F80938F014C
:1009900080938E0181E090E0ECCF61E0CE01019682
:1009A0000E94E503F7CF90E080E008958F929F9238
:1009B000AF92BF92CF92DF92EF92FF920F931F936D
:1009C000CF938B01FC01C08581E080936B01C093C4
:1009D0004A0110928F0110928E0160E48BE792E041
:1009E0000E94A404B80184E0759567958A95E1F7A3
:1009F0008BE792E00E94A404602F6295607F8BE7F2
:100A000092E00E94A40410918E01113208F092C06D
:100A10000E94E1016B017C018091DE01811165C0C2
:100A200082E08093DE0181E08093E0018FEF80938C
:100A3000DD011092020210930102ABE4B1E0E1EE9D
:100A4000F1E080E0181388C0109203028091030245
:100A5000CC0FC82BC09303028091DF01813009F0D5
:100A60007FC01092DF010E94E1016B017C01809147
:100A700003028093BB008091910190919201A0911B
:100A80009301B0919401892B8A2B8B2B99F00E94B2
:100A9000E101009191011091920120919301309117
:100AA00094016C197D098E099F09061717072807FD
:100AB0003907E0F18091BC0083FDD9CF85EC8093AC
:100AC000BC000E94E1016B017C018091DE0182305B
:100AD00009F448C08091DD018F3F61F18091DD0113
:100AE000803241F18091DD0125C08091910190918A
:100AF0009201A0919301B0919401892B8A2B8B2BA9
:100B000009F48ACF0E94E1018090910190909201B6
:100B1000A0909301B09094016C197D098E099F09F2
:100B200086169706A806B90608F076CF8091900140
:100B30000E942A0410928F0110928E0110926B0174
:100B4000CF911F910F91FF90EF90DF90CF90BF90CA
:100B5000AF909F908F9008959D9191938F5F72CFEA
:100B600085EEADCF8091910190919201A09193017A
:100B7000B0919401892B8A2B8B2B09F4A6CF0E946C
:100B8000E101009191011091920120919301309126
:100B900094016C197D098E099F090617170728070C
:100BA000390708F092CFC2CFFC0184810C94B701C1
:100BB000AF92BF92CF92DF92EF92FF920F931F936B
:100BC000CF93DF938C015B017A01DC011D96CD91FF
:100BD000DC911E971996CD90DC90CC0EDD1ECC16C4
:100BE000DD0609F43DC02FB7F8948091150290916D
:100BF0001602A0911702B09118022FBF8093330202
:100C000090933402A0933502B09336028BE292E0C7
:100C10000E94890397FF46C02FB7F8948091150270
:100C200090911602A0911702B09118022FBF409127
:100C30003302509134026091350270913602841B68
:100C4000950BA60BB70B40912F025091300260918B
:100C500031027091320284179507A607B707B0F2E8
:100C6000D8011D96ED91FC911E97808190E0F501D1
:100C7000918380831D96ED91FC91818190E0982F66
:100C800088272281820F911DD7018D939C93DF913C
:100C9000CF911F910F91FF90EF90DF90CF90BF9079
:100CA000AF90089589939BCF8FEF9FEF9093380279
:100CB0008093370210928D0110928C0110928F0157
:100CC00010928E010E940C048BE494E09093B70183
:100CD0008093B6018CE494E09093BB018093BA01B9
:100CE00008950E94540610920C01089585ED80939A
:100CF000BC008091910190919201A0919301B091DB
:100D000094010796A11DB11D23E0B695A79597956F
:100D100087952A95D1F72091BC0024FD03C010923D
:100D2000DE010895409191015091920160919301EB
:100D300070919401452B462B472B69F30097A10531
:100D4000B10541F02AE22A95F1F700C00197A10907
:100D5000B109E1CF809190010C942A041F920F9267
:100D60000FB60F9211242F933F938F939F93AF93BE
:100D7000BF938091150290911602A0911702B09135
:100D800018023091140223E0230F2D3758F50196F5
:100D9000A11DB11D20931402809315029093160299
:100DA000A0931702B09318028091190290911A0231
:100DB000A0911B02B0911C020196A11DB11D809350
:100DC000190290931A02A0931B02B0931C02BF91C8
:100DD000AF919F918F913F912F910F900FBE0F90E8
:100DE0001F90189526E8230F0296A11DB11DD2CFA2
:100DF0001F920F920FB60F9211248F939F938091A1
:100E0000E1009091E100937F9093E10083FF0FC098
:100E10001092E90091E09093EB001092EC0092E3C5
:100E20009093ED0010922A0298E09093F00082FFD8
:100E300022C093E09093E9009091F200992319F079
:100E40009AE39093E80090910902992341F09091E0
:100E50000902915090930902911101C05D9A9091FD
:100E60002902992341F090912902915090932902EF
:100E7000911101C0289A84FF18C08091E2008E7EF3
:100E800081608093E2008091E1008F7E8093E10099
:100E900080910A028E7E806180930A029F918F91D9
:100EA0000F900FBE0F901F90189580FFF7CF809185
:100EB000E2008E7E80618093E2008091E1008E7E70
:100EC0008093E10080910A028E7E8160E5CF1F92BF
:100ED0000F920FB60F921124CF92DF92EF92FF92F2
:100EE0000F931F932F933F934F935F936F937F9332
:100EF0008F939F93AF93BF93EF93FF93CF93DF9322
:100F0000CDB7DEB76C97DEBFCDBF1092E900809100
:100F1000E80083FF25C068E0CE0145960E94D60216
:100F200082EF8093E8008D8987FF39C09091E800B7
:100F300090FFFCCF982F907609F034C19E894F899D
:100F4000588D2F89F88C911131C0803861F58091CE
:100F50000B028093F1001092F1008EEF8093E80075
:100F60006C960FB6F894DEBF0FBECDBFDF91CF9168
:100F7000FF91EF91BF91AF919F918F917F916F9171
:100F80005F914F913F912F911F910F91FF90EF90A3
:100F9000DF90CF900F900FBE0F901F9018959EEF8F
:100FA0009093E800C7CF1092F100D5CF913059F45B
:100FB0008111D3CF4130510581F680910B028D7F95
:100FC00080930B02CACF933049F48111C6CF4130D0
:100FD000510519F680910B028260F2CF953041F4F1
:100FE0008091E80080FFFCCF20682093E300B5CF1C
:100FF000963009F0A9C00B8D1C8D22E01092E900FB
:101000001092070210920602F2122EC010920502F0
:10101000109204020E94A5021F8299E09983FA822D
:1010200091E09E8390EA98879AEF99872091060233
:1010300030910702275F3F4F3C832B838D831092B3
:10104000E900109207021092060210930502009325
:10105000040249E050E0BE016F5F7F4F80E00E94D4
:101060007F020E94A50279CF10930502009304022B
:101070000E943201DC0112960D911C91011511059F
:1010800009F451C1D801ED91FC910480F581E02D66
:10109000BE016B5E7F4FC8010995009709F03EC104
:1010A000F80100851185EACFF3E0FF120EC08F89A9
:1010B000882309F440C0823061F440E860E180E1B7
:1010C00091E00E944C02811148CF81E28093EB00B5
:1010D00047CF813029F440E86BE084E091E0F1CF24
:1010E000833099F70E943201DC011296ED90FC905A
:1010F0008E010F5F1F4F6801E114F10479F0D701F1
:10110000ED91FC910680F781E02DB801C7010995AA
:10111000080F111DF701E084F184EECFD8011C9275
:10112000F60101900020E9F73197BF016C197D09A4
:1011300040E0C601C6CF6EEE70E0FB01449150E086
:1011400080E80E947F0209CF973009F4BECF983023
:1011500021F481E08093F10000CF993009F0FDCEB9
:10116000837009F0B2CFE4E1F1E081E031E096E391
:101170002191222371F08093E9003093EB00DF018D
:1011800011972C912093EC009093ED008F5F8730A6
:1011900079F78EE78093EA001092EA008F898093B6
:1011A0002A02DBCE8B8D9C8D1092E90010920702F3
:1011B000109206029093050280930402898D81119A
:1011C00092C08E899D89913A49F4813209F07DCF90
:1011D00047E050E064E071E080E0B3CF913209F085
:1011E00074CF833269F48F89988DB0E0A0E080934A
:1011F000000190930101A0930201B0930301ADCED1
:10120000803269F48091E80082FFFCCF67E084E0DF
:1012100091E00E94D6028BEF8093E8009ECE82324E
:1012200009F09BCE8F8980930B01EEEFFFE785914C
:1012300094918B3F9C4D51F1E0E0F8E080910401E6
:1012400090910501A0910601B0910701803B944067
:10125000A105B105F1F480910B0180FD1AC0EE3FAC
:101260008AE0F80789F587E797E791838083809183
:1012700060008093080288E19BE00FB6F894A8957F
:10128000809360000FBE9093600067CEEEEFFAE0AF
:10129000D5CF808191818737974709F05ECEA89599
:1012A0008091600088618093600080910802809343
:1012B0006000EE3F2AE0F20789F08091FE0A9091EB
:1012C000FF0A9183808349CE808191818737980777
:1012D00051F29093FF0A8093FE0AC5CF1092FF0A45
:1012E0001092FE0A3ACE0E943201DC0112960D9154
:1012F0001C910115110509F4E8CED801ED91FC917E
:101300000190F081E02DBE016B5E7F4FC801099511
:10131000811123CEF80100851185EBCF181619062F
:101320000CF41BCED2CEF1E0FF12BECE62EF70E025
:1013300004CF1F920F920FB60F9211242F933F9359
:101340004F935F936F937F938F939F93AF93BF93CD
:10135000EF93FF938091B900887F803609F44AC0EB
:10136000F0F5883209F4A7C018F5803109F49BC064
:10137000B8F4882309F4F9C0883009F494C0FF91C7
:10138000EF91BF91AF919F918F917F916F915F91FD
:101390004F913F912F910F900FBE0F901F90189576
:1013A000883109F488C0803251F78093DD0114C080
:1013B000803409F49DC040F48033B9F38833F9F6E2
:1013C0008093DD0185ECB0C0803509F485C0883597
:1013D00009F496C0883499F60E947606D0CF8839F1
:1013E00009F48CC038F5883729F050F4883611F0AC
:1013F000803729F683E08093DE011092DC0157C02C
:10140000883809F47BC0803919F0803809F0B7CFEB
:101410008091DC01803208F071C0E091DC0181E054
:101420008E0F8093DC018091BB00F0E0E454FE4F0E
:1014300080833DC0803B39F0E0F4803A09F479C004
:10144000883A09F09CCF84E08093DE011092B901C4
:101450001092B801E091B601F091B7010995809121
:10146000B80181110FC081E08093B80110929601FC
:1014700009C0803C09F4A6CF883C09F4A3CF883B7F
:1014800009F07DCFE091B90181E08E0F8093B90121
:10149000F0E0EA56FE4F80818093BB009091B90145
:1014A0008091B80129C0809103028093BB0085EC34
:1014B0008093BC0064CF9091020280910102981742
:1014C00058F5E091020281E08E0F80930202F0E075
:1014D000EF51FE4F8081E9CFE091020281E08E0F53
:1014E000809302028091BB00F0E0EF51FE4F8083B9
:1014F00090910202809101029817C8F285E8D8CF36
:10150000E091020281E08E0F809302028091BB0085
:10151000F0E0EF51FE4F80838091E00181115CCFBC
:1015200081E08093DF0184EA8093BC001092DE01A9
:1015300026CF85EC8093BC001092DE018091DC0107
:10154000803230F4E091DC01F0E0E454FE4F108290
:101550006091DC0170E0E091BA01F091BB018CEB8D
:1015600091E009951092DC010ACF1092DD0134CF91
:10157000CF93DF93EBE2F2E01382128288EE93E0E6
:10158000A0E0B0E084839583A683B7832EE131E0A9
:10159000318320832FEF3FEF35872487EBE7F2E09D
:1015A0001382128284839583A683B78380E391E0BC
:1015B00091838083C7E8D2E082E190E09B838A83B5
:1015C00085E190E09D838C831F821E8280E6888760
:1015D00083E090E09A8789879C878B870E94220C02
:1015E0009E878D8783E090E00E94220C988B8F87E6
:1015F00081E090E09A8B898B8DE48B8B87E48C8BD8
:1016000082E491E099838883DF91CF910895789463
:1016100084B5826084BD84B5816084BD85B58260F7
:1016200085BD85B5816085BD80916E0081608093A8
:101630006E00109281008091810082608093810011
:101640008091810081608093810080918000816021
:1016500080938000809191008260809391008091BE
:1016600091008160809391008091900081608093CF
:1016700090008091C10084608093C1008091C1007E
:1016800082608093C1008091C10081608093C1001D
:101690008091C30081608093C3008091C00082600C
:1016A0008093C0008091C20081608093C2008091CD
:1016B0007A00846080937A0080917A0082608093BF
:1016C0007A0080917A00816080937A0080917A001C
:1016D000806880937A0010922A0210920B02109276
:1016E0000A028091D70081608093D70080EA8093BE
:1016F000D80089B5806189BD89B5826089BD09B48A
:1017000000FEFDCF0E9406028091D8008F7C806190
:101710008093D8008091E000807F8093E0008091EA
:10172000E1008E7E8093E1008DE08093E200559A87
:10173000209A87E892E00E947106C0E0D0E08BE238
:1017400092E00E94CB0318161906B4F540E152E06E
:1017500062E172E087E892E00E94D805809112026F
:10176000909113028130910561F18230910509F465
:101770005CC0892BA9F4E0919602F09197028091C8
:1017800098028083E0919602F091970280919A02EC
:101790008183E0919602F091970280919B0282836F
:1017A000409192025091930260919602709197023B
:1017B0008BE292E00E94E302209709F20E9400006F
:1017C000BECF609110027091110287E892E00E94F2
:1017D000D60487E892E00E94D40590930F0280938C
:1017E0000E02809189020E94B70190930D028093AE
:1017F0000C02E0919602F091970224E0959587956E
:101800002A95E1F7807F90910F02890F8083E09104
:101810009602F091970280910C028183E0919602EA
:10182000F091970280910E02BACF70E060E087E8F5
:1018300092E00E94D604B4CFEE0FFF1F0590F49102
:10184000E02D09940F931F93CF93DF93823091057E
:1018500010F482E090E0E0919E02F0919F0230E06F
:1018600020E0B0E0A0E0309799F42115310509F4AB
:101870004AC0281B390B24303105D8F58A819B8159
:101880006115710589F1FB0193838283FE0111C00B
:10189000408151810281138148175907E0F04817B0
:1018A000590799F4109761F012960C9312971396BA
:1018B0001C933296CF01DF91CF911F910F91089524
:1018C00000939E0210939F02F4CF2115310551F031
:1018D0004217530738F0A901DB019A01BD01DF016E
:1018E000F801C1CFEF01F9CF90939F0280939E0240
:1018F000CDCFFE01E20FF31F819391932250310966
:1019000039832883D7CF20919C0230919D02232BCD
:1019100041F420910F013091100130939D022093EA
:101920009C0220910D0130910E012115310541F4E9
:101930002DB73EB74091110150911201241B350B78
:10194000E0919C02F0919D02E217F307A0F42E1B98
:101950003F0B2817390778F0AC014E5F5F4F241713
:10196000350748F04E0F5F1F50939D0240939C0235
:10197000819391939FCFF0E0E0E09CCFCF93DF93F2
:101980000097E9F0FC01329713821282A0919E0227
:10199000B0919F02ED0130E020E01097A1F420818A
:1019A0003181820F931F20919C0230919D02281754
:1019B000390709F061C0F0939D02E0939C02DF912A
:1019C000CF910895EA01CE17DF07E8F54A815B81E0
:1019D0009E0141155105B1F7E901FB83EA83499165
:1019E0005991C40FD51FEC17FD0761F480819181D7
:1019F0000296840F951FE9019983888382819381E0
:101A00009B838A83F0E0E0E012968D919C9113977E
:101A10000097B9F52D913C911197CD010296820F57
:101A2000931F20919C0230919D022817390739F6A7
:101A3000309751F510929F0210929E02B0939D0232
:101A4000A0939C02BCCFD383C28340815181840F79
:101A5000951FC817D90761F44E5F5F4F8881998140
:101A6000480F591F518340838A819B8193838283CE
:101A70002115310509F0B0CFF0939F02E0939E024B
:101A80009ECFFD01DC01C0CF13821282D7CFF89424
:021A9000FFCF86
:101A9200FFFFFFFF00E1000000000000010000A0C6
:101AA20002800000C1808100000000000000640389
:101AB200E30285037A03CB038903A7030000000036
:101AC200A4047704D3044D0470045D044E040000A2
:0A1AD20000007106D805D405D60403
:00000001FF
