:100000000C945E000C9486000C9486000C94860080
:100010000C9486000C9486000C9486000C94860048
:100020000C9486000C9486000C9486000C94860038
:100030000C9486000C9486000C9486000C94860028
:100040000C94CF020C9486000C94D9040C941C05DB
:100050000C9486000C9486000C9486000C94860008
:100060000C9486000C94860000000007000201003A
:100070000003040600000000000000000102040864
:100080001020408001020408102001020408102002
:10009000040404040404040402020202020203032E
:1000A0000303030300000000250028002B000000CC
:1000B0000000240027002A003201D80511241FBEA9
:1000C000CFEFD8E0DEBFCDBF11E0A0E0B1E0E0E0CF
:1000D000FDE002C005900D92A831B107D9F711E0FB
:1000E000A8E1B1E001C01D92AA3EB107E1F710E01E
:1000F000CCEBD0E004C02297FE010E947A06C83BF8
:10010000D107C9F70E9425010C947E060C940000CB
:10011000CF9385E00E94F70180932D01882309F495
:1001200043C0C0E080912D01C81750F486E00E94C2
:10013000F701EC2FF0E0E95DFE4F8083CF5FF2CF57
:1001400087E00E9415026A3071058105910548F02B
:1001500060932301709324018093250190932601DD
:100160000CC08AE090E0A0E0B0E08093230190937F
:100170002401A0932501B093260120912D0130E0A8
:1001800040E050E0609123017091240180912501AD
:10019000909126010E94560620931F013093200162
:1001A0004093210150932201CF9108950E94920221
:1001B00063E082E00E94BA010C948800CF938EE243
:1001C00091E00E94740280912E018823E1F1C0E049
:1001D00080912D01C817B8F5EC2FF0E0E95DFE4FD6
:1001E000808180931E010E94B20290931D01809332
:1001F0001C0160911F01709120018091210190915B
:1002000022010E94480380911E010E94B202909335
:100210001D0180931C018EE291E00E9460029B010F
:10022000AC01609318017093190180931A019093A7
:100230001B0160911C0170911D0180911E010E94A3
:10024000CE01CF5FC5CFCF9108950E946E030E946B
:10025000D600C3E1D5E00E94DE002097E1F30E94C2
:100260001305F9CF8EE291E00C943C02CF93DF931B
:1002700000D0CDB7DEB799838A83E0914001F09139
:1002800041010280F381E02D42E050E0BE016F5F4A
:100290007F4F80E491E009950F900F90DF91CF910F
:1002A0000895CF93DF9300D000D0CDB7DEB7998308
:1002B0008A837B836C83E0914001F091410102804D
:1002C000F381E02D44E050E0BE016F5F7F4F80E49A
:1002D00091E009950F900F900F900F90DF91CF91C3
:1002E000089580E491E00E946E040895CF92DF9219
:1002F000EF92FF920F931F9380E491E00E946E04AF
:100300006C0180E491E00E946E04382F20E0C22A44
:10031000D32AEE24D7FCE094FE2C80E491E00E94E6
:100320006E048C0180E491E00E946E04AA2797FD80
:10033000A095BA2F982F882777276627222717FDA1
:100340002095322F980111270027602B712B822BCB
:10035000932B6C297D298E299F291F910F91FF9046
:10036000EF90DF90CF900895682F80E491E00E9495
:100370009B040895CF93DF93D82FC62F40E052EC13
:1003800061E070E080E491E00E9457058D2F0E94AB
:10039000B4018C2FDF91CF910C94B401EF92FF92B6
:1003A0001F93CF93DF9300D000D0CDB7DEB7182FC7
:1003B0007B0182EA29833A834B835C830E94B401E8
:1003C000812F0E94B40129813A814B815C81CA014D
:1003D000B9010E945101C7010F900F900F900F902B
:1003E000DF91CF911F91FF90EF900C9436011F93F6
:1003F000CF93DF93D82F80E491E00E9441040297CD
:10040000D4F30E947101182F0E947101C82F8D2F03
:100410000E94B401812F0E94B4018C2F0E94B4016C
:100420008C2FDF91CF911F910895CF92DF92EF92A1
:10043000FF92CF93DF93C82F80E491E00E944104A4
:100440000597D4F30E947101D82F0E9476016B01A9
:100450007C018C2F0E94B4018D2F0E94B401C70132
:10046000B6010E945101C701B601DF91CF91FF9003
:10047000EF90DF90CF900895FC01108211821282DC
:100480001382148215821682178210860895CF93E4
:10049000DF93EC010E94250369837A838B839C831D
:1004A0000E9419036D837E838F83988781E0888300
:1004B000DF91CF910895FC01108280EB0C94B40180
:1004C0000F931F93CF93DF93EC010E9419030D81CB
:1004D0001E812F813885601B710B820B930BDF917E
:1004E000CF911F910F910895CF93DF93EC0180E49A
:1004F00091E00E944104892B91F080E491E00E94F8
:100500006E04813029F4CE01DF91CF910C94470223
:10051000823029F4CE01DF91CF910C945B02DF9100
:10052000CF91089561E08DE00E94D20360E08DE0FC
:100530000E940B0461E08CE00E94D20360E08CE03A
:100540000E940B0460E082E00E94D20360E083E03E
:100550000E94D20361E082E00E940B0461E083E02C
:100560000C940B048E3008F08E5087702091060199
:1005700090E4299F90011124822B80937C0080912C
:100580007A00806480937A0080917A0086FDFCCFA7
:10059000809178002091790090E0922B08951F922D
:1005A0000F920FB60F9211242F933F938F939F9327
:1005B000AF93BF938091380190913901A0913A0196
:1005C000B0913B013091370123E0230F2D3720F408
:1005D0000196A11DB11D05C026E8230F0296A11D9D
:1005E000B11D209337018093380190933901A09376
:1005F0003A01B0933B0180913C0190913D01A09163
:100600003E01B0913F010196A11DB11D80933C01B7
:1006100090933D01A0933E01B0933F01BF91AF91F4
:100620009F918F913F912F910F900FBE0F901F9030
:1006300018952FB7F8946091380170913901809125
:100640003A0190913B012FBF08953FB7F8948091F4
:100650003C0190913D01A0913E01B0913F0126B532
:10066000A89B05C02F3F19F00196A11DB11D3FBFEA
:100670006627782F892F9A2F620F711D811D911D7A
:1006800042E0660F771F881F991F4A95D1F708959A
:10069000CF92DF92EF92FF92CF93DF936B017C01B9
:1006A0000E942503EB01C114D104E104F10479F0A7
:1006B0000E9425036C1B7D0B683E7340A0F381E014
:1006C000C81AD108E108F108C851DC4FECCFDF911E
:1006D000CF91FF90EF90DF90CF900895789484B5FC
:1006E000826084BD84B5816084BD85B5826085BD2E
:1006F00085B5816085BDEEE6F0E080818160808314
:10070000E1E8F0E0108280818260808380818160F6
:100710008083E0E8F0E0808181608083E1EBF0E0BD
:10072000808184608083E0EBF0E080818160808361
:10073000EAE7F0E08081846080838081826080834A
:100740008081816080838081806880831092C10075
:100750000895833081F028F4813099F08230A1F03F
:1007600008958630A9F08730B9F08430D1F48091B3
:1007700080008F7D03C0809180008F778093800000
:10078000089584B58F7702C084B58F7D84BD0895A8
:100790008091B0008F7703C08091B0008F7D8093EF
:1007A000B0000895CF93DF9390E0FC01E458FF4F31
:1007B0002491FC01E057FF4F8491882349F190E098
:1007C000880F991FFC01E255FF4FA591B4918C55FC
:1007D0009F4FFC01C591D4919FB7611108C0F89457
:1007E0008C91209582238C93888182230AC0623069
:1007F00051F4F8948C91322F309583238C93888117
:10080000822B888304C0F8948C91822B8C939FBF99
:10081000DF91CF9108950F931F93CF93DF931F9292
:10082000CDB7DEB7282F30E0F901E859FF4F8491AA
:10083000F901E458FF4F1491F901E057FF4F04917B
:100840000023C9F0882321F069830E94A9036981EC
:10085000E02FF0E0EE0FFF1FEC55FF4FA591B49194
:100860009FB7F8948C91611103C01095812301C04A
:10087000812B8C939FBF0F90DF91CF911F910F9190
:100880000895FC0124853585F901E05CFF4F8081E6
:100890009181F901EE5BFF4F20813181821B930B27
:1008A0008F7399270895FC0184859585FC01E05C90
:1008B000FF4F40815181FC01EE5BFF4F2081318170
:1008C0004217530741F00190F081E02DE80FF91F26
:1008D000808190E008958FEF9FEF0895FC0184855B
:1008E0009585FC01E05CFF4F40815181FC01EE5B8E
:1008F000FF4F208131814217530779F0A081B181E8
:10090000A80FB91F8C91208131812F5F3F4F2F732A
:1009100033273183208390E008958FEF9FEF089570
:10092000FC0181A1882329F0A489B5898C9186FFD7
:10093000FBCF11A20895CF93DF93FC012685378565
:10094000D901A05CBF4F8D919C91119701968F7337
:100950009927E901CE5BDF4F4881598184179507BC
:10096000D9F30D90BC91A02DA20FB31F6C93A68557
:10097000B785A05CBF4F11969C938E93A689B789CB
:100980002C9181E090E0078C02C0880F991F0A9497
:10099000E2F7282B2C9381E081A30488F589E02DD0
:1009A00080818064808381E090E0DF91CF91089521
:1009B00008951F920F920FB60F9211242F933F9319
:1009C0004F938F939F93EF93FF938091C00082FD8D
:1009D0001CC04091C6008091E6019091E70101960C
:1009E0008F7399272091E8013091E90182179307CD
:1009F00071F0E091E601F091E701EA55FE4F408386
:100A00009093E7018093E60102C08091C600FF91B8
:100A1000EF919F918F914F913F912F910F900FBE2A
:100A20000F901F90189580E491E00E944104892B5B
:100A300011F00C94D80408951F920F920FB60F92E4
:100A400011242F933F938F939F93EF93FF932091C4
:100A5000A2013091A3018091A4019091A5012817D2
:100A6000390731F48091C1008F7D8093C10014C09B
:100A7000E091A401F091A501EE59FE4F20818091F3
:100A8000A4019091A50101968F7399279093A501D8
:100A90008093A4012093C600FF91EF919F918F91C5
:100AA0003F912F910F900FBE0F901F901895CF92EE
:100AB000DF92EF92FF92CF93DF93EC016A017B010B
:100AC000411581EE580761057105F9F0EC89FD8942
:100AD00081E090E008A002C0880F991F0A94E2F715
:100AE000808360E079E08DE390E0A70196010E94A9
:100AF00056062150310941095109569547953795B8
:100B00002795211580E1380798F0EC89FD8910823E
:100B100060E874E88EE190E0A70196010E94560615
:100B20002150310941095109569547953795279527
:100B3000E889F9893083EA89FB89208319A2EE8943
:100B4000FF89408181E090E09C010C8C02C0220F63
:100B5000331F0A94E2F7422B4083EE89FF894081DC
:100B60009C010D8C02C0220F331F0A94E2F7422B26
:100B70004083EE89FF8940819C010E8C02C0220FC8
:100B8000331F0A94E2F7422B4083EE89FF892081CC
:100B90000F8C02C0880F991F0A94E2F78095822378
:100BA0008083DF91CF91FF90EF90DF90CF900895F9
:100BB000109243011092420188EE93E0A0E0B0E071
:100BC0008093440190934501A0934601B09347015F
:100BD0008BE091E0909341018093400186EA91E09F
:100BE00090934D0180934C0182E691E090934F01E8
:100BF00080934E0185EC90E09093510180935001D9
:100C000084EC90E0909353018093520180EC90E04B
:100C1000909355018093540181EC90E0909357019B
:100C20008093560182EC90E0909359018093580193
:100C300086EC90E090935B0180935A0184E080936E
:100C40005C0183E080935D0187E080935E0185E035
:100C500080935F0181E0809360010895CF92DF92DD
:100C6000EF92FF920F931F93CF93DF936C017A0162
:100C7000EB01E60EF71E00E010E0CE15DF0561F097
:100C80006991D601ED91FC910190F081E02DC601B2
:100C90000995080F191FF1CFC801DF91CF911F915E
:100CA0000F91FF90EF90DF90CF900895A1E21A2E60
:100CB000AA1BBB1BFD010DC0AA1FBB1FEE1FFF1F00
:100CC000A217B307E407F50720F0A21BB30BE40B50
:100CD000F50B661F771F881F991F1A9469F7609597
:100CE0007095809590959B01AC01BD01CF01089551
:100CF000EE0FFF1F0590F491E02D0994F894FFCFBB
:100D00000000EA01200001000000009B042E0641C3
:080D1000046E0453049004007A
:00000001FF
