:100000000C9463000C94AA030C94D7030C948B00FB
:100010000C948B000C948B000C948B000C948B0034
:100020000C948B000C948B000C948B000C948B0024
:100030000C948B000C948B000C948B000C948B0014
:100040000C9415020C948B000C949C040C94DF040B
:100050000C948B000C948B000C948B000C948B00F4
:100060000C948B000C948B00000000070002010030
:100070000003040600000000000000000102040864
:100080001020408001020408102001020408102002
:10009000040404040404040402020202020203032E
:1000A00003030303000000002300260029000000D2
:1000B0000000250028002B0000000000240027007D
:1000C0002A0017019B0511241FBECFEFD8E0DEBF29
:1000D000CDBF11E0A0E0B1E0E6E8FCE002C0059091
:1000E0000D92A631B107D9F711E0A6E1B1E001C048
:1000F0001D92AE3DB107E1F710E0C6ECD0E004C0C0
:100100002297FE010E943D06C23CD107C9F70E941A
:100110000A010C9441060C94000080911E01882372
:1001200039F18EE191E00E94C30160931A0170934E
:100130001B0180931C0190931D0182E00E946103CA
:10014000BC01882777FD8095982F609316017093E6
:100150001701809318019093190120911A01309191
:100160001B0140911C0150911D0182E00C945A0129
:10017000089580911E01882339F18EE191E00E945B
:10018000C30160931A0170931B0180931C0190932B
:100190001D0183E00E946103BC01882777FD8095E3
:1001A000982F609316017093170180931801909314
:1001B000190120911A0130911B0140911C015091AD
:1001C0001D0183E00C945A01089588E00E9481018A
:1001D000882339F0482F50E06DE870E080E00E94FD
:1001E0008A0388E00E948101882339F0482F50E07B
:1001F00069EB70E081E00C948A0308950E94F50198
:1002000063E081E00E9446010C94E5008EE191E0FC
:100210000C94D7010E948E020E94FE00C6EDD4E02D
:100220000E9406012097E1F30E94D604F9CF8EE1E7
:1002300091E00C949F01CF93DF9300D000D0CDB715
:10024000DEB799838A837B836C83E0913401F091DC
:1002500035010280F381E02D44E050E0BE016F5F84
:100260007F4F84E391E009950F900F900F900F90CE
:10027000DF91CF91089584E391E00E9431040895C5
:10028000682F84E391E00E945E040895CF93DF938A
:10029000D82FC62F40E052EC61E070E084E391E09B
:1002A0000E941A058D2F0E9440018C2FDF91CF9163
:1002B0000C9440011F93CF93DF9300D000D01F9286
:1002C000CDB7DEB7182F81EA2A833B834C835D8349
:1002D00069830E9440016981812F60FB87F90E9438
:1002E00040012A813B814C815D81CA01B9010F9097
:1002F0000F900F900F900F90DF91CF911F910C9462
:100300001B011F93CF93DF93D82F84E391E00E94CA
:1003100004040297D4F30E943B01182F0E943B0172
:10032000C82F8D2F0E944001812F0E9440018C2FE9
:100330000E9440018C2FDF91CF911F910895FC0105
:100340001082118212821382148215821682178201
:1003500010860895CF93DF93EC010E946B026983AE
:100360007A838B839C830E945F026D837E838F835D
:10037000988781E08883DF91CF910895FC011082F6
:1003800080EB0C9440010F931F93CF93DF93EC010C
:100390000E946B0209811A812B813C81601B710BC9
:1003A000820B930BDF91CF911F910F910895CF9303
:1003B000DF93EC0184E391E00E940404892B91F027
:1003C00084E391E00E943104813029F4CE01DF9171
:1003D000CF910C94AA01823029F4CE01DF91CF9104
:1003E0000C94BE01DF91CF91089561E08DE00E94F1
:1003F000F20260E08DE00E942B0361E08CE00E943D
:10040000F20260E08CE00E942B0360E082E00E9438
:10041000F20260E083E00E94F20261E082E00E946A
:100420002B0361E083E00C942B031F920F920FB615
:100430000F9211242F933F938F939F93AF93BF936A
:100440008091280190912901A0912A01B0912B015E
:100450003091270123E0230F2D3720F40196A11DB1
:10046000B11D05C026E8230F0296A11DB11D2093E2
:1004700027018093280190932901A0932A01B0932A
:100480002B0180912C0190912D01A0912E01B09112
:100490002F010196A11DB11D80932C0190932D0178
:1004A000A0932E01B0932F01BF91AF919F918F9197
:1004B0003F912F910F900FBE0F901F9018952FB75F
:1004C000F894609128017091290180912A019091FE
:1004D0002B012FBF08953FB7F89480912C01909184
:1004E0002D01A0912E01B0912F0126B5A89B05C02A
:1004F0002F3F19F00196A11DB11D3FBF6627782F30
:10050000892F9A2F620F711D811D911D42E0660F88
:10051000771F881F991F4A95D1F70895789484B55D
:10052000826084BD84B5816084BD85B5826085BDEF
:1005300085B5816085BDEEE6F0E0808181608083D5
:10054000E1E8F0E0108280818260808380818160B8
:100550008083E0E8F0E0808181608083E1EBF0E07F
:10056000808184608083E0EBF0E080818160808323
:10057000EAE7F0E08081846080838081826080830C
:100580008081816080838081806880831092C10037
:100590000895833081F028F4813099F08230A1F001
:1005A00008958630A9F08730B9F08430D1F4809175
:1005B00080008F7D03C0809180008F7780938000C2
:1005C000089584B58F7702C084B58F7D84BD08956A
:1005D0008091B0008F7703C08091B0008F7D8093B1
:1005E000B0000895CF93DF9390E0FC01E458FF4FF3
:1005F0002491FC01E057FF4F8491882349F190E05A
:10060000880F991FFC01E854FF4FA591B4918255C2
:100610009F4FFC01C591D4919FB7611108C0F89418
:100620008C91209582238C93888182230AC062302A
:1006300051F4F8948C91322F309583238C938881D8
:10064000822B888304C0F8948C91822B8C939FBF5B
:10065000DF91CF9108950F931F93CF93DF931F9254
:10066000CDB7DEB7282F30E0F901E859FF4F84916C
:10067000F901E458FF4F1491F901E057FF4F04913D
:100680000023C9F0882321F069830E94C90269818F
:10069000E02FF0E0EE0FFF1FE255FF4FA591B49160
:1006A0009FB7F8948C91611103C01095812301C00C
:1006B000812B8C939FBF0F90DF91CF911F910F9152
:1006C0000895CF93DF93282F30E0F901E859FF4FC9
:1006D0008491F901E458FF4FD491F901E057FF4F9D
:1006E000C491CC2391F081110E94C902EC2FF0E05B
:1006F000EE0FFF1FEC55FF4FA591B4912C912D23C8
:1007000081E090E021F480E002C080E090E0DF91A1
:10071000CF9108958230E8F4E82FF0E0EE0FFF1F4C
:10072000E05DFE4F71836083813041F0809169000C
:100730008C7F842B80936900E89A089580916900EA
:10074000440F551F440F551F837F842B80936900EE
:10075000E99A08951F920F920FB60F9211242F93CA
:100760003F934F935F936F937F938F939F93AF9339
:10077000BF93EF93FF938091300190913101892BCA
:1007800029F0E0913001F09131010995FF91EF914D
:10079000BF91AF919F918F917F916F915F914F9199
:1007A0003F912F910F900FBE0F901F9018951F92A1
:1007B0000F920FB60F9211242F933F934F935F9395
:1007C0006F937F938F939F93AF93BF93EF93FF9319
:1007D0008091320190913301892B29F0E09132010F
:1007E000F09133010995FF91EF91BF91AF919F91E6
:1007F0008F917F916F915F914F913F912F910F90CA
:100800000FBE0F901F901895FC0124853585F901C6
:10081000E05CFF4F80819181F901EE5BFF4F208109
:100820003181821B930B8F7399270895FC01848576
:100830009585FC01E05CFF4F40815181FC01EE5B3E
:10084000FF4F208131814217530741F00190F08121
:10085000E02DE80FF91F808190E008958FEF9FEF62
:100860000895FC0184859585FC01E05CFF4F408183
:100870005181FC01EE5BFF4F20813181421753070C
:1008800079F0A081B181A80FB91F8C9120813181AD
:100890002F5F3F4F2F7333273183208390E00895DC
:1008A0008FEF9FEF0895FC0181A1882329F0A4898F
:1008B000B5898C9186FFFBCF11A20895CF93DF936A
:1008C000FC0126853785D901A05CBF4F8D919C9195
:1008D000119701968F739927E901CE5BDF4F48810D
:1008E000598184179507D9F30D90BC91A02DA20FC3
:1008F000B31F6C93A685B785A05CBF4F11969C93E0
:100900008E93A689B7892C9181E090E0078C02C074
:10091000880F991F0A94E2F7282B2C9381E081A37A
:100920000488F589E02D80818064808381E090E0F7
:10093000DF91CF91089508951F920F920FB60F92F5
:1009400011242F933F934F938F939F93EF93FF9394
:100950008091C00082FD1CC04091C6008091DA01E8
:100960009091DB0101968F7399272091DC013091E2
:10097000DD018217930771F0E091DA01F091DB015C
:10098000E656FE4F40839093DB018093DA0102C06C
:100990008091C600FF91EF919F918F914F913F9170
:1009A0002F910F900FBE0F901F90189584E391E048
:1009B0000E940404892B11F00C949B0408951F924B
:1009C0000F920FB60F9211242F933F938F939F9303
:1009D000EF93FF93209196013091970180919801B8
:1009E000909199012817390731F48091C1008F7DCA
:1009F0008093C10014C0E0919801F0919901EA5AE6
:100A0000FE4F2081809198019091990101968F73FA
:100A1000992790939901809398012093C600FF91A4
:100A2000EF919F918F913F912F910F900FBE0F905B
:100A30001F901895CF92DF92EF92FF92CF93DF93A2
:100A4000EC016A017B01411581EE580761057105D2
:100A5000F9F0EC89FD8981E090E008A002C0880FE0
:100A6000991F0A94E2F7808360E079E08DE390E0DB
:100A7000A70196010E941906215031094109510927
:100A80005695479537952795211580E1380798F0B9
:100A9000EC89FD89108260E874E88EE190E0A7019E
:100AA00096010E94190621503109410951095695B4
:100AB000479537952795E889F9893083EA89FB8935
:100AC000208319A2EE89FF89408181E090E09C019A
:100AD0000C8C02C0220F331F0A94E2F7422B408392
:100AE000EE89FF8940819C010D8C02C0220F331FCB
:100AF0000A94E2F7422B4083EE89FF8940819C01F2
:100B00000E8C02C0220F331F0A94E2F7422B40835F
:100B1000EE89FF8920810F8C02C0880F991F0A94EB
:100B2000E2F7809582238083DF91CF91FF90EF9051
:100B3000DF90CF900895109237011092360188EE21
:100B400093E0A0E0B0E08093380190933901A09346
:100B50003A01B0933B018AE091E090933501809394
:100B600034018AE991E0909341018093400186E548
:100B700091E0909343018093420185EC90E0909343
:100B800045018093440184EC90E090934701809369
:100B9000460180EC90E0909349018093480181ECFC
:100BA00090E090934B0180934A0182EC90E0909307
:100BB0004D0180934C0186EC90E090934F0180931F
:100BC0004E0184E08093500183E08093510187E0DF
:100BD0008093520185E08093530181E0809354011A
:100BE0000895CF92DF92EF92FF920F931F93CF93CE
:100BF000DF936C017A01EB01E60EF71E00E010E0D6
:100C0000CE15DF0561F06991D601ED91FC9101905F
:100C1000F081E02DC6010995080F191FF1CFC80119
:100C2000DF91CF911F910F91FF90EF90DF90CF90C8
:100C30000895A1E21A2EAA1BBB1BFD010DC0AA1F1D
:100C4000BB1FEE1FFF1FA217B307E407F50720F035
:100C5000A21BB30BE40BF50B661F771F881F991FB0
:100C60001A9469F760957095809590959B01AC01F9
:100C7000BD01CF010895EE0FFF1F0590F491E02D07
:060C80000994F894FFCF77
:100C86000000DE012000000000005E04F1050404FF
:060C9600310416045304B2
:00000001FF
