:100000000C945D000C9485000C9485000C94850084
:100010000C9485000C9485000C9485000C9485004C
:100020000C9485000C9485000C9485000C9485003C
:100030000C9485000C9485000C9485000C9485002C
:100040000C942A080C9485000C949A080C9474085B
:100050000C9485000C9485000C9485000C9485000C
:100060000C94CC080C9485000000000800020100EC
:100070000003040700000000000000000000000072
:10008000250028002B0000000000240027002A0083
:10009000040404040404040402020202020203032E
:1000A0000303030301020408102040800102040836
:1000B0001020010204081020EB0911241FBECFEF0D
:1000C000D8E0DEBFCDBF11E0A0E0B1E0ECEBF2E2A2
:1000D00002C005900D92A034B107D9F722E0A0E448
:1000E000B1E001C01D92A23DB207E1F710E0CDE5FD
:1000F000D0E004C02197FE010E944711CC35D10702
:10010000C9F70E943B0A0C945C110C94000090E02B
:10011000FC01EC55FF4F249180579F4FFC018491C7
:10012000882399F090E0880F991FFC01EA57FF4F50
:10013000A591B491FC01E458FF4F859194918FB73C
:10014000F894EC91E22BEC938FBF089590E0FC01C2
:10015000E859FF4F2491FC01EC55FF4F3491FC010D
:10016000E057FF4FE491EE23C9F0222339F023300A
:1001700001F1A8F4213019F1223029F1F0E0EE0F5D
:10018000FF1FE458FF4FA591B4918FB7F894EC91FD
:10019000611126C030953E233C938FBF08952730D0
:1001A000A9F02830C9F0243049F7809180008F7D74
:1001B00003C0809180008F7780938000DFCF84B56B
:1001C0008F7784BDDBCF84B58F7DFBCF8091B0006E
:1001D0008F778093B000D2CF8091B0008F7DF9CF20
:1001E0003E2BDACF806480937C0080917A0080641B
:1001F00080937A0080917A0086FDFCCF8091780010
:100200009091790008953FB7F8948091A001909162
:10021000A101A091A201B091A30126B5A89B05C0A0
:100220002F3F19F00196A11DB11D3FBFBA2FA92F75
:10023000982F8827BC01CD01620F711D811D911D72
:1002400042E0660F771F881F991F4A95D1F70895DE
:1002500008950895AF92BF92CF92DF92EF92FF92EE
:100260000F931F93CF93DF936C017B018B01040FDE
:10027000151FEB015E01AE18BF08C017D10759F07A
:100280006991D601ED91FC910190F081E02DC601BC
:100290000995892B79F7C501DF91CF911F910F91B6
:1002A000FF90EF90DF90CF90BF90AF900895FC014A
:1002B000538D448D252F30E0842F90E0821B930BCB
:1002C000541710F0CF96089501970895FC01918D71
:1002D000828D981761F0A28DAE0FBF2FB11D5D9674
:1002E0008C91928D9F5F9F73928F90E008958FEF16
:1002F0009FEF0895FC01918D828D981731F0828DCA
:10030000E80FF11D858D90E008958FEF9FEF089520
:10031000FC01918D228D892F90E0805C9F4F821B84
:1003200091098F739927089586E192E00E948801D0
:1003300021E0892B09F420E0822F089580E090E0ED
:10034000892B29F00E94940181110C9400000895DA
:10035000FC01A48DA80FB92FB11DA35ABF4F2C913A
:10036000848D90E001968F739927848FA689B78931
:100370002C93A089B1898C91837080648C93938D28
:10038000848D981306C00288F389E02D80818F7DCB
:1003900080830895EF92FF920F931F93CF93DF9383
:1003A000EC0181E0888F9B8D8C8D98131AC0E889B1
:1003B000F989808185FF15C09FB7F894EE89FF8980
:1003C0006083E889F98980818370806480839FBF1E
:1003D00081E090E0DF91CF911F910F91FF90EF901E
:1003E0000895F62E0B8D10E00F5F1F4F0F7311272E
:1003F000E02E8C8D8E110CC00FB607FCFACFE88969
:10040000F989808185FFF5CFCE010E94A801F1CF47
:10041000EB8DEC0FFD2FF11DE35AFF4FF0829FB7DC
:10042000F8940B8FEA89FB8980818062CFCF682F97
:1004300086E192E00C94CA01CF93DF93EC01888DA2
:100440008823B9F0AA89BB89E889F9898C9185FD4F
:1004500003C0808186FD0DC00FB607FCF7CF8C91DD
:1004600085FFF2CF808185FFEDCFCE010E94A801EC
:10047000E9CFDF91CF9108958FB7F89480918401EF
:100480008FBF08958EBD00000DB407FEFDCF8EB561
:1004900008958CBD9DBD089520916101260F3327DD
:1004A000331F21323105ECF420911002FC0190E061
:1004B00080E0243069F082E00895A09161012191EB
:1004C000AC014F5B5E4FA40FB52FB11D2C9301966D
:1004D000861798F380916101680F6093610180E055
:1004E000089581E008951092100281E08093EF0159
:1004F0001092EA0161E082E10E94A60061E083E1DE
:100500000E94A600E9EBF0E080818E7F80838081ED
:100510008D7F808388E48093B80085E48093BC005D
:100520000895CF93DF9391E0909340018823B9F031
:10053000C091B800D091BA008091BC008A7B8093B2
:10054000BC0060E082E10E94A60060E083E10E94BE
:10055000A6000E947302D093BA00C093B800DF9146
:10056000CF910895CF92DF92EF92FF920F931F9356
:10057000CF93DF93D82FC62F613208F098C00E9426
:1005800003016B017C018091100281116BC081E03D
:10059000809310028093EF019FEF9093EE011092F1
:1005A000ED019C0F9093EC018093EB018091EB01A6
:1005B000DD0FD82BD093EB018091EA01813009F057
:1005C00078C01092EA010E9403016B017C018091C6
:1005D000EB018093BB008091120290911302A091D5
:1005E0001402B0911502892B8A2B8B2BA1F00E944B
:1005F0000301009112021091130220911402309114
:1006000015026C197D098E099F090617170728071F
:10061000390708F448C08091BC0083FDD8CF85EC31
:100620008093BC000E9403016B017C018091100249
:10063000813009F440C08091ED018C1710F4C09115
:10064000ED01EAECF1E0A0EFB1E080E08C1355C0E1
:100650008C2FDF91CF911F910F91FF90EF90DF9042
:10066000CF9008958091120290911302A0911402EC
:10067000B0911502892B8A2B8B2B09F484CF0E9411
:100680000301009112021091130220911402309183
:1006900015026C197D098E099F090617170728078F
:1006A000390708F070CF809111020E949102C0E0DA
:1006B000CFCF85EEB5CF8091120290911302A09119
:1006C0001402B0911502892B8A2B8B2B09F4AECF23
:1006D0000E94030100911202109113022091140252
:1006E000309115026C197D098E099F0906171707AD
:1006F0002807390708F09ACFD6CF91919D938F5F45
:10070000A5CF8F929F92AF92BF92CF92DF92EF923E
:10071000FF920F931F93CF93DF93D091C901D132F2
:1007200008F0D7C0182FC091C8010E9403016B01C7
:100730007C018091100281116BC082E080931002D5
:100740001093EF018FEF8093EE011092ED01D093A3
:10075000EC01A8EAB1E0EAECF1E080E0D81391C046
:100760001092EB018091EB01CC0FC82BC093EB01F1
:100770008091EA01813009F088C01092EA010E945C
:1007800003016B017C018091EB018093BB008091A0
:10079000120290911302A0911402B0911502892BBC
:1007A0008A2B8B2BA1F00E94030100911202109161
:1007B000130220911402309115026C197D098E09E3
:1007C0009F09061717072807390708F442C08091C8
:1007D000BC0083FDD8CF85EC8093BC000E94030150
:1007E0006B017C0180911002823009F450C080912D
:1007F000EE018F3F09F46FC08091EE01803209F461
:100800006CC08091EE01803309F469C084E026C099
:100810008091120290911302A0911402B0911502DE
:10082000892B8A2B8B2B09F484CF0E9403018090A3
:10083000120290901302A0901402B09015026C194D
:100840007D098E099F0986169706A806B90608F045
:1008500070CF809111020E94910285E01092A70151
:100860001092C9011092A601DF91CF911F910F91B3
:10087000FF90EF90DF90CF90BF90AF909F908F90C0
:1008800008959D9191938F5F69CF85EEA5CF80915B
:10089000120290911302A0911402B0911502892BBB
:1008A0008A2B8B2B09F49ECF0E9403010091120228
:1008B0001091130220911402309115026C197D09D8
:1008C0008E099F09061717072807390708F08ACFEE
:1008D000C0CF81E0C3CF80E0C1CF82E0BFCF83E053
:1008E000BDCF0F931F93CF93DF938C01CFECD2E05A
:1008F000A881B9819A81969581E08093A601909311
:10090000C8011092A7011092C901ED91FC911197B5
:100910000190F081E02D60E2CD01099588819981F7
:10092000DC01ED91FC910190F081E02DD8016C91FA
:10093000099581E00E94810390E080E0DF91CF91F2
:100940001F910F9108950895E091A5018091A40150
:10095000E81730F4F0E0E051FE4F808190E0089518
:100960008FEF9FEF08959091A5018091A4012FEF43
:100970003FEF981748F4E92FF0E0E051FE4F208157
:1009800030E09F5F9093A501C90108958091A40173
:100990009091A501891B990B0895CF92DF92EF9258
:1009A000FF920F931F93CF93DF937C01CB018A01BA
:1009B0002091A601222389F0EB016B01C40ED51E04
:1009C000CC15DD0569F06991D701ED91FC9101909D
:1009D000F081E02DC7010995F3CF642F0E944C02EE
:1009E000C801DF91CF911F910F91FF90EF90DF90A1
:1009F000CF900895CF93DF931F92CDB7DEB7698371
:100A00002091A6012223F9F02091C901203258F04B
:100A100021E030E0FC013383228390E080E00F90FE
:100A2000DF91CF9108958091A701E82FF0E0E8557C
:100A3000FE4F998190838F5F8093A7018093C901B6
:100A400081E090E0ECCF61E0CE0101960E944C0283
:100A5000F7CF90E080E00895FC0101900020E9F7D5
:100A60003197AF01481B590BBC0186E192E00C9411
:100A70002A018F929F92AF92BF920F931F93CF93B1
:100A8000DF93CDB7DEB7A1970FB6F894DEBF0FBEE8
:100A9000CDBF19A2423008F44AE08E010F5D1F4F0E
:100AA000842E912CB12CA12CA50194010E94E71059
:100AB000E62FB901CA01EA30F4F4E05DD801EE9303
:100AC0008D01232B242B252B79F790E080E01097C4
:100AD00019F0CD010E942C05A1960FB6F894DEBF47
:100AE0000FBECDBFDF91CF911F910F91BF90AF90FF
:100AF0009F908F900895E95CE1CF4F925F926F9243
:100B00007F928F929F92AF92BF92CF92DF92EF929D
:100B1000FF920F931F93CF936B017C01742EAC0156
:100B20009B010E94CE10882399F084E291E0CF913E
:100B30001F910F91FF90EF90DF90CF90BF90AF90FB
:100B40009F908F907F906F905F904F900C942C05AA
:100B500046015701E894B7F82FEF3FEF4FE75FE703
:100B6000C501B4010E94CE1081110DC02FEF3FEFDF
:100B70004FE75FE7C501B4010E94FD0E18161CF493
:100B800088E291E0D4CF2FEF3FEF4FE75FE4C7015A
:100B9000B6010E945C1018161CF48CE291E0C7CFDD
:100BA0002FEF3FEF4FE75FECC701B6010E94FD0E4C
:100BB00087FDF3CF20E030E0A901C701B6010E9414
:100BC000FD0E10E000E087FF08C08DE20E941702D2
:100BD0008C01F7FAF094F7F8F094C0E060E070E070
:100BE00080E09FE37C1641F020E030E040E251E4F9
:100BF0000E94020FCF5FF6CFA70196010E94910ECF
:100C00002B013C010E947B0F4B015C014AE00E94DA
:100C100039057C01E00EF11ECC23B1F1C501B40110
:100C20000E94AA0F9B01AC01C301B2010E94900E69
:100C30004B015C018EE20E941702E80EF91EC150C2
:100C400018F120E030E040E251E4C501B4010E9417
:100C500061102B013C010E947B0F4B01B12CA12C98
:100C60004AE0C501B4010E943905E80EF91EC5012C
:100C7000B4010E94AA0F9B01AC01C301B2010E9402
:100C8000900E4B015C01DBCFC701CF911F910F91FB
:100C9000FF90EF90DF90CF90BF90AF909F908F909C
:100CA0007F906F905F904F9008950F931F93CF9315
:100CB000DF93EB018A016130710509F08068A09132
:100CC000CF02B091D0029091D102969521E020936D
:100CD000A6019093C8011092A7011092C901ED914D
:100CE000FC9111970190F081E02D682FCD010995BD
:100CF00080E00E9481038091D1026C2F86950E9432
:100D0000B2021092A5018093A401E8018091CF0264
:100D10009091D002DC01ED91FC910084F185E02DF1
:100D20000995892B69F08091CF029091D002DC0166
:100D3000ED91FC910284F385E02D09958993E6CF2E
:100D400090E080E0DF91CF911F910F9108950F9374
:100D50001F93FC0100E012E12AE730E090E0401729
:100D600051076207730740F4369527951795079545
:100D70009F5F9630A1F797E0292F286B2695208357
:100D80009095917091831F910F910895AF92BF92AA
:100D9000CF92DF92EF92FF920F931F93CF93DF9347
:100DA00000D0CDB7DEB7F82E8A016B01C40ED51E78
:100DB000EE24E394C016D10679F490E080E00F9021
:100DC0000F90DF91CF911F910F91FF90EF90DF90E7
:100DD000CF90BF90AF9008958091B5029091B602E8
:100DE000892B39F14091BA025091BB026091BC024B
:100DF0007091BD02CE0101960E94A70689819A8159
:100E00000E94490260E08091B8020E94A6008F2DE6
:100E100080680E94420280E00E944202D8018C93C6
:100E200061E08091B8020E94A6000F5F1F4FF3940B
:100E3000C1CF8091B3029091B4020097E9F1209163
:100E4000B7022695E092A6012093C8011092A7014F
:100E50001092C901DC01ED91FC910190F081E02D2F
:100E60006F2D099580E00E9481038091B70261E0B7
:100E700086950E94B2021092A5018093A4015801A8
:100E80008091B3029091B402DC01ED91FC91008459
:100E9000F185E02D0995892B41F28091B302909163
:100EA000B402DC01ED91FC910284F385E02D0995FB
:100EB000F50181935F01E4CF81E090E080CFFF9264
:100EC0000F931F93CF93DF9300D0CDB7DEB7F82EEB
:100ED0008B018091B5029091B602892B59F1409116
:100EE000BA025091BB026091BC027091BD02CE016A
:100EF00001960E94A70689819A810E94490260E0BA
:100F00008091B8020E94A6008F2D0E944202D80153
:100F10008C910E94420261E08091B8020E94A6007A
:100F200090E080E00F900F90DF91CF911F910F9193
:100F3000FF9008958091B3029091B402009729F137
:100F40002091B702269531E03093A6012093C80185
:100F50001092A7011092C901DC01ED91FC91019062
:100F6000F081E02D6F2D09958091B3029091B4022C
:100F7000DC01ED91FC910190F081E02DD8016C91A4
:100F8000099581E00E948103CBCF81E090E0CACF38
:100F90001F93CF93DF931F92CDB7DEB7182FAE010B
:100FA0004F5F5F4F61E070E080E10E94C606892BD1
:100FB000B1F489818F78812B8983BE016F5F7F4F68
:100FC00080E10E945F0731E020E0892B09F430E0E6
:100FD000832F922F0F90DF91CF911F91089581E081
:100FE00090E0F8CF85ED8093BC0080911202909143
:100FF0001302A0911402B09115020796A11DB11D14
:1010000023E0B695A795979587952A95D1F72091D6
:10101000BC0024FD03C010921002089540911202FA
:10102000509113026091140270911502452B462BCA
:10103000472B69F30097A105B10541F02AE22A95F3
:10104000F1F700C00197A109B109E1CF8091110228
:101050000C9491021F920F920FB60F9211242F93AE
:101060003F938F939F93AF93BF9380919C019091F7
:101070009D01A0919E01B0919F0130919B0123E0C1
:10108000230F2D3758F50196A11DB11D20939B010B
:1010900080939C0190939D01A0939E01B0939F012A
:1010A0008091A0019091A101A091A201B091A30112
:1010B0000196A11DB11D8093A0019093A101A09361
:1010C000A201B093A301BF91AF919F918F913F91E6
:1010D0002F910F900FBE0F901F90189526E8230FA9
:1010E0000296A11DB11DD2CF1F920F920FB60F9283
:1010F00011242F933F934F935F936F937F938F931D
:101100009F93AF93BF93EF93FF9386E192E00E948A
:10111000A801FF91EF91BF91AF919F918F917F9126
:101120006F915F914F913F912F910F900FBE0F9054
:101130001F9018951F920F920FB60F9211242F93A4
:101140008F939F93EF93FF93E0912602F0912702F4
:101150008081E0912C02F0912D0282FD1BC09081D4
:1011600080912F028F5F8F7320913002821741F0A0
:10117000E0912F02F0E0EA5EFD4F958F80932F0201
:10118000FF91EF919F918F912F910F900FBE0F9034
:101190001F9018958081F4CF1F920F920FB60F9277
:1011A00011242F933F934F935F936F937F938F936C
:1011B0009F93AF93BF93EF93FF938091B900887F84
:1011C000803609F44AC0F0F5883209F4A7C018F552
:1011D000803109F49BC0B8F4882309F4F9C0883041
:1011E00009F494C0FF91EF91BF91AF919F918F91BE
:1011F0007F916F915F914F913F912F910F900FBE13
:101200000F901F901895883109F488C0803251F7EB
:101210008093EE0114C0803409F49DC040F4803303
:10122000B9F38833F9F68093EE0185ECB0C08035D0
:1012300009F485C0883509F496C0883499F60E946F
:10124000F207D0CF883909F48CC038F5883729F0F7
:1012500050F4883611F0803729F683E0809310022D
:101260001092830157C0883809F47BC0803919F087
:10127000803809F0B7CF80918301803208F071C0C7
:10128000E091830181E08E0F809383018091BB0008
:10129000F0E0ED59FE4F80833DC0803B39F0E0F433
:1012A000803A09F479C0883A09F09CCF84E08093B1
:1012B00010021092620110926101E0918701F09199
:1012C000880109958091610181110FC081E08093AF
:1012D00061011092410109C0803C09F4A6CF883C0D
:1012E00009F4A3CF883B09F07DCFE091620181E052
:1012F0008E0F80936201F0E0EF5BFE4F8081809360
:10130000BB00909162018091610129C08091EB0145
:101310008093BB0085EC8093BC0064CF9091ED017D
:101320008091EC01981758F5E091ED0181E08E0F66
:101330008093ED01F0E0E653FE4F8081E9CFE0912C
:10134000ED0181E08E0F8093ED018091BB00F0E014
:10135000E653FE4F80839091ED018091EC01981748
:10136000C8F285E8D8CFE091ED0181E08E0F80933F
:10137000ED018091BB00F0E0E653FE4F8083809149
:10138000EF0181115CCF81E08093EA0184EA8093D0
:10139000BC001092100226CF85EC8093BC00109206
:1013A000100280918301803230F4E0918301F0E0FB
:1013B000ED59FE4F10826091830170E0E09185014C
:1013C000F091860183E691E00995109283010ACF9E
:1013D0001092EE0134CFE6E1F2E01382128288EE41
:1013E00093E0A0E0B0E084839583A683B78324E0F4
:1013F00031E03183208325EC30E03587248724ECED
:1014000030E03787268720EC30E0318B208B21ECD1
:1014100030E0338B228B22EC30E0358B248B26ECB2
:1014200030E0378B268B118E128E138E148EE3ECE8
:10143000F2E01382128284839583A683B78386E1C8
:1014400091E091838083AFECB2E01196FC93EE9330
:101450008EEB12968C93A3EBB2E01196FC93EE9375
:101460008AEB14968C93149713961C921E921297E3
:101470001B961C920895CF93DF93CDB7DEB72997C3
:101480000FB6F894DEBF0FBECDBF789484B58260EE
:1014900084BD84B5816084BD85B5826085BD85B518
:1014A000816085BD80916E00816080936E00109296
:1014B0008100809181008260809381008091810011
:1014C00081608093810080918000816080938000A2
:1014D0008091B10084608093B1008091B000816000
:1014E0008093B00080917A00846080937A0080912C
:1014F0007A00826080937A0080917A008160809384
:101500007A0080917A00806880937A001092C100FE
:101510008DE00E948700E0912602F091270282E090
:101520008083E0912202F09123021082E091240254
:10153000F091250280E1808310922E02E0912A0230
:10154000F0912B0286E08083E0912802F09129023D
:10155000808180618083E0912802F091290280815E
:1015600088608083E0912802F09129028081806860
:101570008083E0912802F091290280818F7D808311
:101580001092A5011092A4011092A7011092C90116
:101590000E94730288E291E0909388018093870112
:1015A00089E291E09093860180938501AE014F5FBF
:1015B0005F4F61E070E080E20E945506892B71F573
:1015C00089818F778983CE0101960E947104892BCE
:1015D00029F5AE014F5F5F4F61E070E080E20E944D
:1015E0005506892BD9F4898184608983CE010196BF
:1015F0000E947104892B91F4AE014F5F5F4F61E04F
:1016000070E080E20E945506892B41F489818C7F2D
:1016100081608983CE0101960E947104AE014F5F03
:101620005F4F61E070E080E20E945506892B39F43B
:10163000898180688983CE0101960E94710480911E
:10164000B5029091B602892B49F08091B8020E94B0
:10165000870061E08091B8020E94A600AE014F5F52
:101660005F4F61E070E08AE10E94C606892B09F0B5
:1016700078C0898181608983BE016F5F7F4F8AE175
:101680000E945F07892B09F06CC090E080E00E9407
:10169000C807019709F465C0AE014F5F5F4F61E075
:1016A00070E080E10E94C606892B09F05AC089814A
:1016B000877F8983BE016F5F7F4F80E10E945F0754
:1016C000892B09F04EC0AE014F5F5F4F61E070E0C3
:1016D00080E10E94C606892B09F043C089818B7F77
:1016E0008983BE016F5F7F4F80E10E945F07892B76
:1016F000C1F5AE014F5F5F4F61E070E080E10E9495
:10170000C606892B71F5898182608983BE016F5F6E
:101710007F4F80E10E945F07892B19F5AE014F5F73
:101720005F4F61E070E081E10E94C606892BC9F439
:1017300089818F7E8983BE016F5F7F4F81E10E9427
:101740005F07892B71F41092BE0280E090E0A8EC54
:10175000B1E48093BF029093C002A093C102B09302
:10176000C2028091BE02813009F45DC0C090BF0208
:10177000D090C002E090C102F090C20220E030E0C0
:1017800040E85FE3C701B6010E94FD0E18160CF099
:1017900087C220E030E040E251E4C701B6010E9478
:1017A000FD0E18160CF07FC220E030E048EC51E44A
:1017B000C701B6010E94FD0E18160CF077C220E09A
:1017C00030E048E452E4C701B6010E94FD0E18164D
:1017D0000CF46FC280E490E00E94C807019719F1F1
:1017E000AE014F5F5F4F61E070E080E10E94C6068E
:1017F000892BC9F489818077803209F482C208F08C
:101800005BC2882309F464C2803109F46DC280E0B0
:1018100090E0A0E8BFEB8093BF029093C002A0933A
:10182000C102B093C20283E20E94170280E391E0FA
:101830000E942C058BE30E9417024AE063E070E0EF
:1018400080E090E00E9439058AE00E94170286E15C
:1018500092E00E948801181619060CF014C286E165
:1018600092E00E94660161E08DE00E94A600AE0158
:101870004F5F5F4F62E070E080E30E945506892B66
:1018800009F098C009817A80AE014F5F5F4F62E036
:1018900070E086E30E945506892B09F08BC0C98051
:1018A000DA80AE014F5F5F4F62E070E08AE30E9432
:1018B0005506892B09F07EC0E980FA80AE014F5FA2
:1018C0005F4F62E070E088E20E945506892B09F0C4
:1018D00071C0069510E069817A816C197D09072E27
:1018E000000C880B990B0E94AC0F4B015C017694A5
:1018F000672D70E0601B710B072E000C880B990B95
:101900000E94AC0F9B01AC01C501B4010E946110A3
:101910004B015C01B7016C197D09072E000C880B87
:10192000990B0E94AC0F9B01AC01C501B4010E9450
:10193000020F6B017C01B801110F880B990B0E94FB
:10194000AC0F9B01AC01C701B6010E94910E20E0D3
:1019500030E040E251E40E9461106B017C0120E024
:1019600030E04AE754E40E945C1068EE73E0181619
:101970007CF020E030E0A901C701B6010E94FD0E15
:1019800070E060E087FD04C0C701B6010E947B0FD4
:1019900090E080E00E94AA0F20E030E040E251E4B5
:1019A0000E94020F609397017093980180939901B0
:1019B00090939A01AE014F5F5F4F62E070E082E367
:1019C0000E945506892B09F097C0AE014B5F5F4F0F
:1019D00061E070E085E30E945506892B09F08CC018
:1019E0000D8110E0F02EEE24EE2483E0F8228981B0
:1019F000E82AE3E0F594E794EA95E1F7F6E0000FD2
:101A0000111FFA95E1F7002713708A81082BA3E0D4
:101A100015950795AA95E1F7AE014F5F5F4F64E01A
:101A200070E08CE30E945506892B09F065C0C980DF
:101A3000DA806B807C80AE014F5F5F4F62E070E0C8
:101A40008AE20E945506892B09F056C069817A8185
:101A50006C197D09072E000C880B990B0E94AC0FA6
:101A60004B015C01B8016E197F09072E000C880B31
:101A7000990B0E94AC0F9B01AC01C501B4010E94FF
:101A800061104B015C01B3016C197D09072E000C3C
:101A9000880B990B0E94AC0F9B01AC01C501B401EE
:101AA0000E94020F4B015C01B701FF0C880B990BE0
:101AB0000E94AC0F9B01AC01C501B4010E94910EC4
:101AC00020E030E040E251E40E9461100E94740F77
:101AD000072E000C880B990B0E94AC0F20E030E021
:101AE00040E251E40E94020F6093930170939401CD
:101AF0008093950190939601AE014F5F5F4F63E035
:101B000070E088E20E94C606892B49F58A812B8104
:101B100030E050E040E0A90133272227382B8981AB
:101B2000282B47FD5F6FA4E6B0E00E94281120E05B
:101B300030E140E050E00E940911CA01B9010E9461
:101B4000AC0F20E030E048EC52E40E94020F6093BA
:101B50008F01709390018093910190939201AE0157
:101B60004F5F5F4F62E070E08BE20E94C606892BF8
:101B7000F9F48A8190E0982F88272981820F911D9E
:101B80006AE070E00E94D310072E000C880B990BBE
:101B90000E94AC0F20E030E040E251E40E94020FCE
:101BA00060938B0170938C0180938D0190938E01D3
:101BB00080E00E94F2008C0190938A018093890159
:101BC00081E00E94F2001C01409097015090980122
:101BD0006090990170909A01809093019090940187
:101BE000A0909501B0909601C0908F01D090900187
:101BF000E0909101F090920180918B0190918C0185
:101C0000A0918D01B0918E018E839F83A887B987A3
:101C100083E20E94170243E0C301B2010E947D05E6
:101C20008BE30E94170243E0C501B4010E947D05C9
:101C30008BE30E94170243E0C701B6010E947D05B5
:101C40008BE30E94170243E06E817F81888599852E
:101C50000E947D058BE30E941702B80190E080E0AE
:101C60004AE00E9439058BE30E941702B10190E01F
:101C700080E04AE00E9439058AE00E94170260E095
:101C80008DE00E94A600A0E0B0E0AB2B09F4DFCD10
:101C90000E949401882309F4DACD0E940000D7CD78
:101CA00080E190E099CD80E290E096CD80E390E0F5
:101CB00093CD80E590E090CD803441F1803559F1AD
:101CC000803309F0A4CD80E090E0A8ECB1E410C02E
:101CD0001092BF021092C0021092C1021092C20272
:101CE00081E08093BE029FCD80E090E0A0E8BFE35A
:101CF0008093BF029093C002A093C102B093C2022E
:101D0000EFCF80E090E0A0E2B1E4F2CF80E090E09D
:101D1000A8E4B2E4EDCF80E090E0A6E9B2E4E8CF39
:101D20005058BB27AA270E94A80E0C9422100E948C
:101D3000141038F00E941B1020F039F49F3F19F462
:101D400026F40C9411100EF4E095E7FB0C940B10A4
:101D5000E92F0E94331058F3BA17620773078407FC
:101D6000950720F079F4A6F50C9455100EF4E09543
:101D70000B2EBA2FA02D0B01B90190010C01CA0145
:101D8000A0011124FF27591B99F0593F50F4503EF0
:101D900068F11A16F040A22F232F342F4427585FE2
:101DA000F3CF469537952795A795F0405395C9F7FA
:101DB0007EF41F16BA0B620B730B840BBAF09150B2
:101DC000A1F0FF0FBB1F661F771F881FC2F70EC051
:101DD000BA0F621F731F841F48F487957795679524
:101DE000B795F7959E3F08F0B0CF9395880F08F010
:101DF0009927EE0F9795879508950E94E70F08F4AD
:101E000081E008950E94160F0C9422100E941B106E
:101E100058F00E94141040F029F45F3F29F00C9410
:101E20000B1051110C9456100C9411100E94331089
:101E300068F39923B1F3552391F3951B550BBB27F9
:101E4000AA2762177307840738F09F5F5F4F220F3E
:101E5000331F441FAA1FA9F335D00E2E3AF0E0E835
:101E600032D091505040E695001CCAF72BD0FE2F7F
:101E700029D0660F771F881FBB1F26173707480713
:101E8000AB07B0E809F0BB0B802DBF01FF279358CB
:101E90005F4F3AF09E3F510578F00C940B100C9474
:101EA00056105F3FE4F3983ED4F386957795679597
:101EB000B795F7959F5FC9F7880F911D9695879500
:101EC00097F90895E1E0660F771F881FBB1F62171F
:101ED00073078407BA0720F0621B730B840BBA0BDD
:101EE000EE1F88F7E09508950E947B0F6894B1116A
:101EF0000C94561008950E943B1088F09F5798F05C
:101F0000B92F9927B751B0F0E1F0660F771F881FFE
:101F1000991F1AF0BA95C9F714C0B13091F00E9418
:101F20005510B1E008950C945510672F782F88272D
:101F3000B85F39F0B93FCCF3869577956795B3953F
:101F4000D9F73EF490958095709561957F4F8F4FAE
:101F50009F4F0895E89409C097FB3EF490958095B3
:101F6000709561957F4F8F4F9F4F9923A9F0F92F5F
:101F700096E9BB279395F695879577956795B795DD
:101F8000F111F8CFFAF4BB0F11F460FF1BC06F5FC3
:101F90007F4F8F4F9F4F16C0882311F096E911C0D5
:101FA000772321F09EE8872F762F05C0662371F0F6
:101FB00096E8862F70E060E02AF09A95660F771F0A
:101FC000881FDAF7880F9695879597F90895990FE6
:101FD0000008550FAA0BE0E8FEEF16161706E807F3
:101FE000F907C0F012161306E407F50798F0621B14
:101FF000730B840B950B39F40A2661F0232B242BE9
:10200000252B21F408950A2609F4A140A6958FEF07
:10201000811D811D089597F99F6780E870E060E059
:1020200008959FEF80EC089500240A941616170671
:1020300018060906089500240A94121613061406B9
:1020400005060895092E0394000C11F4882352F01C
:10205000BB0F40F4BF2B11F460FF04C06F5F7F4FD4
:102060008F4F9F4F089557FD9058440F551F59F0BB
:102070005F3F71F04795880F97FB991F61F09F3F75
:1020800079F087950895121613061406551FF2CF9E
:102090004695F1DF08C0161617061806991FF1CFEE
:1020A00086957105610508940895E894BB27662715
:1020B0007727CB0197F908950E94E70F08F48FEF77
:1020C00008950E9474100C9422100E94141038F08D
:1020D0000E941B1020F0952311F00C940B100C940F
:1020E000111011240C9456100E94331070F3959F18
:1020F000C1F3950F50E0551F629FF001729FBB27FF
:10210000F00DB11D639FAA27F00DB11DAA1F649F9A
:102110006627B00DA11D661F829F2227B00DA11D4D
:10212000621F739FB00DA11D621F839FA00D611DD3
:10213000221F749F3327A00D611D231F849F600DF4
:10214000211D822F762F6A2F11249F5750409AF01D
:10215000F1F088234AF0EE0FFF1FBB1F661F771FA9
:10216000881F91505040A9F79E3F510580F00C9474
:102170000B100C9456105F3FE4F3983ED4F3869511
:1021800077956795B795F795E7959F5FC1F7FE2B14
:10219000880F911D9695879597F908950E94E70FEE
:1021A000880B990B089597FB072E16F4009407D01F
:1021B00077FD09D00E94331107FC05D03EF49095BD
:1021C00081959F4F0895709561957F4F0895A1E285
:1021D0001A2EAA1BBB1BFD010DC0AA1FBB1FEE1FA1
:1021E000FF1FA217B307E407F50720F0A21BB30BEC
:1021F000E40BF50B661F771F881F991F1A9469F768
:1022000060957095809590959B01AC01BD01CF01C3
:102210000895052E97FB1EF400940E94201157FD8F
:1022200007D00E94E71007FC03D04EF40C94201155
:1022300050954095309521953F4F4F4F5F4F0895F2
:1022400090958095709561957F4F8F4F9F4F089522
:102250000E944D11A59F900DB49F900DA49F800DDD
:10226000911D11240895AA1BBB1B51E107C0AA1F91
:10227000BB1FA617B70710F0A61BB70B881F991F27
:102280005A95A9F780959095BC01CD010895EE0F60
:10229000FF1F0590F491E02D0994A29FB001B39F18
:1022A000C001A39F700D811D1124911DB29F700D5F
:0C22B000811D1124911D0895F894FFCFAA
:1022BC0000000000CA012A0157011C0288016601B6
:1022CC007A0100000000FA04CD042905A304C60419
:1022DC00B304A4046E616E00696E66006F766600CE
:1022EC00786E75636C656F5F6D6F6E69746F72007D
:00000001FF
