:100000000C94D4000C94FC000C94FC000C94FC00A8
:100010000C94FC000C94FC000C94FC000C94FC0070
:100020000C94FC000C94FC000C945D090C94CC091D
:100030000C94FC000C94FC000C94FC000C94FC0050
:100040000C94FC000C94FC000C94FC000C94FC0040
:100050000C94FC000C94FC000C94FC000C94130910
:100060000C94FC000C94FC000C94FC000C94FC0020
:100070000C94FC000C94FC000C94FC000C94FC0010
:100080000C94FC000C94FC000C94FC000C94FC0000
:100090000C94FE0B0C94FC000C94FC000C94FC00E3
:1000A0000C94FC000C94FC000C94FC00080B000267
:1000B0000202000009040000010202000005240001
:1000C0001001052401010104240206052406000193
:1000D0000705810310004009040100020A00000026
:1000E00007050202400000070583024000000403E8
:1000F000090412010002EF02014041233680000191
:100100000102030141726475696E6F204C4C43001B
:1001100041726475696E6F204C656F6E6172646FB9
:1001200000070605040100080A0B0C0D0900000079
:100130000200090F0000030401000C000000000091
:1001400000000000000000000000000000000000AF
:10015000250028002B002E003100000000002400A4
:1001600027002A002D0030000404040404030405C1
:100170000202020204030202020206060606060644
:10018000040402020204040408020110408040102A
:1001900020408040800802040180402010020110AD
:1001A0008010204040201D0D11241FBECFEFDAE04B
:1001B000DEBFCDBF22E0AAE4B1E001C01D92A53BA5
:1001C000B207E1F711E0A0E0B1E0ECE9FFE102C025
:1001D00005900D92AA34B107D9F710E0C4EDD0E034
:1001E00004C02197FE010E94A10EC33DD107C9F7AB
:1001F0000E948C0D0C94CC0F0C94000090E0FC013C
:10020000E957FE4F249188599E4FFC018491882321
:1002100099F090E0880F991FFC01E65AFE4FA591D6
:10022000B491FC01E45BFE4F859194918FB7F894F3
:10023000EC91E22BEC938FBF08952FB7F89483E0F5
:100240008093E9009091E800892F807295FF04C0A7
:100250009091F20080E4891B2FBF0895FC018091EA
:10026000D601882311F13FB7F89482E08093E9002A
:100270002091F200822F90E01816190614F481E004
:1002800090E0882339F0289844E64093D5014091C6
:10029000F1004083222339F02091F200211103C0A4
:1002A0002BE62093E8003FBF08958FEF9FEF08955E
:1002B0008091CD0181110DC082E08093C90184E05D
:1002C0008093CA011092CC011092CB0181E08093FF
:1002D000CD0189EC91E00895282F30E0F901E35D2C
:1002E000FE4F9491F901E957FE4F849128593E4FF2
:1002F000F9012491222309F430C09923E9F09150A7
:100300009F30D0F4E92FF0E0E857FE4F0C94A10E97
:10031000B601BA019701AE01B2019C019C019C019A
:10032000BD01C301C701CB01D1019C01D501909151
:1003300080009F7790938000E22FF0E0EE0FFF1F88
:10034000E45BFE4FA591B4919FB7F894EC916111D5
:1003500032C080958E238C939FBF0895909180002A
:100360009F7DE8CF90918000977FE4CF94B59F77F1
:1003700094BDE2CF94B59F7DFBCF909190009F7785
:1003800090939000D9CF909190009F7DF9CF90915C
:100390009000977FF5CF9091C0009F779093C00019
:1003A000CBCF9091C0009F7DF9CF9091C200977FF5
:1003B0009093C200C1CF8E2BCECF823108F08251F4
:1003C000E82FF0E0EF5DFE4FE49190917B008E2FDF
:1003D000880F880F80729F7D892B80937B00E77048
:1003E000E064E0937C0080917A00806480937A00DE
:1003F00080917A0086FDFCCF809178009091790001
:1004000008953FB7F8948091C5019091C601A091DD
:10041000C701B091C80126B5A89B05C02F3F19F0B0
:100420000196A11DB11D3FBFBA2FA92F982F882774
:10043000BC01CD01620F711D811D911D42E0660F4F
:10044000771F881F991F4A95D1F70895CF92DF92A1
:10045000EF92FF920E9401026B017C010E94010257
:100460006C197D098E099F09683E734081059105CD
:10047000A8F3FF90EF90DF90CF9008954091B601E0
:100480005091B7012091B4013091B5014217530743
:10049000B4F49091E8009570E1F39091E80092FD3A
:1004A00019C08093F1008091B6019091B701019637
:1004B0008F739927892B19F48EEF8093E800809130
:1004C000B6019091B70101969093B7018093B60160
:1004D00081E0089580E00895EF92FF920F931F93BB
:1004E000CF93DF93F82E192FE62E042F81E0860F8D
:1004F000880F0E943E0283E00E943E02CF2DD12F42
:10050000EC0EFD2EF11CCE15DF05B9F007FF13C070
:10051000FE0184910E943E02182F80E00E943E025C
:10052000812321968111EFCFDF91CF911F910F9100
:10053000FF90EF9008958881EDCF81E0F5CFDF92B5
:10054000EF92FF920F931F93CF93DF93D82E8A01E0
:10055000EB017B01E40EF51ECE15DF0559F0D7FE49
:1005600012C0FE0184910E943E0221968111F4CFB7
:100570000FEF1FEFC801DF91CF911F910F91FF90F7
:10058000EF90DF9008958881EECF0F931F93CF9364
:10059000DF931F92CDB7DEB782E0898342E450E05B
:1005A0006CEA70E080E80E949F020E945801DC0122
:1005B00012960D911C910115110589F0D801ED914C
:1005C000FC910280F381E02DBE016F5F7F4FC80177
:1005D000099597FD04C0F80100851185ECCF89814C
:1005E0000F90DF91CF911F910F910895615030F0DE
:1005F0002091F100FC0120830196F8CF289884E631
:100600008093D50108958F929F92AF92BF92CF921F
:10061000DF92EF92FF920F931F93CF93DF936C01C2
:100620007B018A0180910B01882309F458C08091D5
:10063000D601882309F453C08091BA0180FF05C018
:100640008091E00082608093E000E801B12C8AEFA5
:10065000A82E93E0892E2AE3922E209711F4BB2036
:10066000B9F10E941D01811106C0AA94AA20B9F116
:100670000E942602F2CF8C171D0611F00CF08C2F71
:100680009FB7F8948092E9002091E80025FD02C010
:100690009FBFE3CF282F30E0C21BD30BF70181505F
:1006A00020F041914093F100FACFE20EF31EBB20FF
:1006B00021F09092E800B12CEBCF8091E80085FD0D
:1006C000E7CF9092E800BB24B394209709F3F3CFCF
:1006D0005D9884E68093B901101611063CF081E024
:1006E00090E0F6019383828310E000E0C801DF917F
:1006F000CF911F910F91FF90EF90DF90CF90BF901F
:10070000AF909F908F900895CF93DF931F92CDB7B6
:10071000DEB76983DC01ED91FC910280F381E02D6D
:1007200041E050E0BE016F5F7F4F09950F90DF9170
:10073000CF91089583E08093E9008091F2008823AF
:1007400019F08AE38093E80008950E941D0190E06B
:100750000895CF93DF931F92CDB7DEB7FC01848558
:10076000958597FD08C02FEF3FEF358724870F90C1
:10077000DF91CF910895CE0101960E942E0101973D
:1007800019F4898190E0F3CF8FEF9FEFF0CFCF92F4
:10079000DF92EF92FF920F931F93CF93DF937C0131
:1007A0008C01060F171FEC016E01CE18DF080C1725
:1007B0001D0709F43DC02FB7F8948091D70190919F
:1007C000D801A091D901B091DA012FBF80933302F3
:1007D00090933402A0933502B09336028BE292E0FC
:1007E0000E94A90397FF2EC02FB7F8948091D701DC
:1007F0009091D801A091D901B091DA012FBF409119
:100800003302509134026091350270913602841B9C
:10081000950BA60BB70B40912F02509130026091BF
:1008200031027091320284179507A607B707B0F21C
:10083000C601DF91CF911F910F91FF90EF90DF9054
:10084000CF9008958993B0CF0F931F93CF93DF93E9
:100850001F92CDB7DEB78C01FC018485958597FF8B
:100860000BC0CE0101960E942E01019771F489817F
:1008700090E0F80195878487F801848595850F902D
:10088000DF91CF911F910F9108958FEF9FEFF1CFDF
:10089000FC018485958597FD0BC09FB7F89482E095
:1008A0008093E9008091F2009FBF90E00196089547
:1008B0009FB7F89482E08093E9008091F2009FBF97
:1008C00090E0089520916D01260F3327331F2132C8
:1008D0003105ECF420910102FC0190E080E024302D
:1008E00069F082E00895A0916D012191AC01455B12
:1008F0005E4FA40FB52FB11D2C930196861798F368
:1009000080916D01680F60936D0180E0089581E032
:1009100008951092010281E0809300021092DB01A1
:1009200061E082E00E946C0161E083E00E946C0162
:10093000E9EBF0E080818E7F808380818D7F8083F2
:1009400088E48093B80085E48093BC000895CF9339
:10095000DF9391E090934A018823B9F0C091B800E9
:10096000D091BA008091BC008A7B8093BC0060E08B
:1009700082E00E946C0160E083E00E946C010E94B2
:100980008904D093BA00C093B800DF91CF91089545
:100990008F929F92AF92BF92CF92DF92EF92FF928F
:1009A0000F931F93CF93DF93D0912A02D13208F097
:1009B000D7C0182FC09129020E9401026B017C014F
:1009C0008091010281116BC082E08093010210933B
:1009D00000028FEF8093FF011092FE01D093FD0182
:1009E000A9E0B2E0EDEDF1E080E0D81391C0109203
:1009F000DC018091DC01CC0FC82BC093DC0180911D
:100A0000DB01813009F088C01092DB010E940102F5
:100A10006B017C018091DC018093BB00809103021B
:100A200090910402A0910502B0910602892B8A2BB5
:100A30008B2BA1F00E94010200910302109104028D
:100A400020910502309106026C197D098E099F09DB
:100A5000061717072807390708F442C08091BC0021
:100A600083FDD8CF85EC8093BC000E9401026B010E
:100A70007C0180910102823009F450C08091FF0115
:100A80008F3F09F46FC08091FF01803209F46CC080
:100A90008091FF01803309F469C084E026C0809111
:100AA000030290910402A0910502B0910602892BE5
:100AB0008A2B8B2B09F484CF0E94010280900302C1
:100AC00090900402A0900502B09006026C197D0976
:100AD0008E099F0986169706A806B90608F070CFFA
:100AE000809102020E94A70485E0109208021092F1
:100AF0002A0210920702DF91CF911F910F91FF9070
:100B0000EF90DF90CF90BF90AF909F908F9008951F
:100B10009D9191938F5F69CF85EEA5CF8091030260
:100B200090910402A0910502B0910602892B8A2BB4
:100B30008B2B09F49ECF0E940102009103021091B9
:100B4000040220910502309106026C197D098E097C
:100B50009F09061717072807390708F08ACFC0CF63
:100B600081E0C3CF80E0C1CF82E0BFCF83E0BDCFC3
:100B7000089508950895E091930180919201E817F6
:100B800030F4F0E0EC56FE4F808190E008958FEF56
:100B90009FEF089590919301809192012FEF3FEF85
:100BA000981748F4E92FF0E0EC56FE4F208130E032
:100BB0009F5F90939301C901089580919201909154
:100BC0009301891B990B0895CF92DF92EF92FF92C8
:100BD0000F931F93CF93DF937C01CB018A01209168
:100BE0000702222389F0EB016B01C40ED51ECC1540
:100BF000DD0569F06991D701ED91FC910190F081DB
:100C0000E02DC7010995F3CF642F0E946204C8014B
:100C1000DF91CF911F910F91FF90EF90DF90CF90D8
:100C20000895CF93DF931F92CDB7DEB769832091EC
:100C300007022223F9F020912A02203258F021E005
:100C400030E0FC013383228390E080E00F90DF915D
:100C5000CF91089580910802E82FF0E0E75FFD4F03
:100C6000998190838F5F8093080280932A0281E0AC
:100C700090E0ECCF61E0CE0101960E946204F7CFD4
:100C800090E080E00895CF93DF93EB01FC01808535
:100C900091E090930702809329021092080210922B
:100CA0002A0260E48BE792E00E941106BE0184E014
:100CB000759567958A95E1F78BE792E00E9411069A
:100CC0006C2F6295607F8BE792E00E94110681E0B5
:100CD000DF91CF910C94C804FC0184810C94DD0158
:100CE000EF92FF920F931F93CF93DF93EC017B0161
:100CF0008A0169857A858D859E850E94C703ED8569
:100D0000FE85808190E0F70191838083ED85FE85EB
:100D1000818190E0982F88272281820F911DF80110
:100D200091838083DF91CF911F910F91FF90EF907E
:100D300008958FEF9FEF90933802809337021092BF
:100D40009301109292011092080210922A020E94BE
:100D5000890488EB95E090936C0180936B0189EB9B
:100D600095E09093700180936F0108950F931F9306
:100D7000CF93DF93EB01FC0106811781802F0E9446
:100D8000FE00209741F460E0802FDF91CF911F910A
:100D90000F910C946C01CF3FD10511F461E0F4CFB9
:100DA000F801FF27E35DFE4FE491E150EF3008F0DA
:100DB00080C0F0E0E252F94F0C94A10EED06F60669
:100DC000FB0605070F075907590759071907230796
:100DD0002D073707440759074C0784B5806884BD41
:100DE000C7BDDF91CF911F910F91089584B58062A7
:100DF00084BDC8BDF6CF809180008068809380005C
:100E0000D0938900C0938800ECCF809180008062ED
:100E100080938000D0938B00C0938A00E2CF8091B2
:100E20008000886080938000D0938D00C0938C00F8
:100E3000D8CF80919000806880939000D0939900E3
:100E4000C0939800CECF80919000806280939000F4
:100E5000D0939B00C0939A00C4CF8091900088608B
:100E600080939000D0939D00C0939C00BACF809156
:100E7000C00080688093C0008091C0008F7B809309
:100E8000C000C093CF00ADCF8091C000806280933E
:100E9000C000C093D000A5CF8091C200886080932D
:100EA000C2008091C2008B7F8093C200C093D200A9
:100EB00098CFC038D1050CF071CF65CFEF92FF927B
:100EC0000F931F93CF93DF93EC017B018A01698518
:100ED0007A858D859E850E94C703ED85FE8580817C
:100EE00090E0F70191838083ED85FE85818190E01C
:100EF000F80191838083DF91CF911F910F91FF9033
:100F0000EF900895CF93DF93EC010E9499061E8A1B
:100F100080E00E94FE001F8A8E898F3F19F060E0FA
:100F20000E946C018D8991E09093070280932902C1
:100F30001092080210922A0281E0DF91CF910C9466
:100F4000C8048F929F92AF92BF92CF92DF92EF929E
:100F5000FF920F931F93CF93DF938C01DC011496C4
:100F60001C921E92139715968D919C9116972C9119
:100F700031E0309307022093290210920802109268
:100F80002A02DC01ED91FC910190F081E02D6CE0F2
:100F9000099581E00E94C804C82F8AE99FEFC1111A
:100FA0009CC0D801DC910E9401026B017C01809100
:100FB0000102811164C081E08093010280930002EC
:100FC0009FEF9093FF011092FE018093FD018093AB
:100FD000DC018091DC01DD0FD82BD093DC01809106
:100FE000DB01813009F0A3C01092DB010E940102F5
:100FF0006B017C018091DC018093BB008091030236
:1010000090910402A0910502B0910602892B8A2BCF
:101010008B2BA1F00E9401028090030290900402A9
:10102000A0900502B09006026C197D098E099F09F7
:1010300086169706A806B90608F442C08091BC003F
:1010400083FDD8CF85EC8093BC000E9401026B0128
:101050007C0180910102813009F46BC08091FE0116
:10106000823008F088C08091FE01ADEDB1E0E4E986
:10107000F1E0C81749F19D919193CF5FFACF80912C
:10108000030290910402A0910502B0910602892BFF
:101090008A2B8B2B09F48BCF0E94010280900302D4
:1010A00090900402A0900502B09006026C197D0990
:1010B0008E099F0986169706A806B90608F077CF0D
:1010C000809102020E94A70410929301C0939201A2
:1010D000C23009F452C089E99FEFF80194838383F9
:1010E00090E080E09F70F801258536852115310557
:1010F00019F0820F931F9F70D80111962C911197B0
:101100002F3F41F412962C91213021F49195819535
:1011100091099F70DF91CF911F910F91FF90EF90F8
:10112000DF90CF90BF90AF909F908F90089585EE05
:101130008ACF8091030290910402A0910502B091A0
:101140000602892B8A2B8B2B09F483CF0E94010284
:101150008090030290900402A0900502B0900602D5
:101160006C197D098E099F0986169706A806B9068F
:1011700008F06FCFA5CF82E078CFD80115968D917A
:101180009C91DC01ED91FC910284F385E02D0995A1
:10119000D82FB0E0CB2FF80185819681DC01ED914D
:1011A000FC910284F385E02D09958C0F9D1F9ACF49
:1011B00045960C94A10785ED8093BC0080910302B5
:1011C00090910402A0910502B09106020796A11D1C
:1011D000B11D23E0B695A795979587952A95D1F7E8
:1011E0002091BC0024FD03C010920102089540919B
:1011F0000302509104026091050270910602452B92
:10120000462B472B69F30097A105B10541F02AE26F
:101210002A95F1F700C00197A109B109E1CF8091AA
:1012200002020C94A7041F920F920FB60F92112482
:101230002F933F938F939F93AF93BF938091D70149
:101240009091D801A091D901B091DA013091C401F7
:1012500023E0230F2D3758F50196A11DB11D2093D2
:10126000C4018093D7019093D801A093D901B09382
:10127000DA018091C5019091C601A091C701B0919A
:10128000C8010196A11DB11D8093C5019093C601AF
:10129000A093C701B093C801BF91AF919F918F9167
:1012A0003F912F910F900FBE0F901F90189526E839
:1012B000230F0296A11DB11DD2CF1F920F920FB620
:1012C0000F9211248F939F938091E1009091E10000
:1012D000937F9093E10083FF0FC01092E90091E0AB
:1012E0009093EB001092EC0092E39093ED0010923B
:1012F000D60198E09093F00082FF22C093E0909393
:10130000E9009091F200992319F09AE39093E80094
:101310009091B901992341F09091B9019150909326
:10132000B901911101C05D9A9091D501992341F0C5
:101330009091D50191509093D501911101C0289AB7
:1013400084FF18C08091E2008E7E81608093E2006D
:101350008091E1008F7E8093E1008091BA018E7EC2
:1013600080618093BA019F918F910F900FBE0F9073
:101370001F90189580FFF7CF8091E2008E7E8061EC
:101380008093E2008091E1008E7E8093E100809165
:10139000BA018E7E8160E5CF1F920F920FB60F9239
:1013A0001124CF92DF92EF92FF920F931F932F930E
:1013B0003F934F935F936F937F938F939F93AF93DD
:1013C000BF93EF93FF93CF93DF93CDB7DEB76C97C7
:1013D000DEBFCDBF1092E9008091E80083FF25C0F9
:1013E00068E0CE0145960E94F60282EF8093E80005
:1013F0008D8987FF39C09091E80090FFFCCF982F2E
:10140000907609F034C19E894F89588D2F89F88CC8
:10141000911131C0803861F58091BB018093F1005A
:101420001092F1008EEF8093E8006C960FB6F8945E
:10143000DEBF0FBECDBFDF91CF91FF91EF91BF9186
:10144000AF919F918F917F916F915F914F913F915C
:101450002F911F910F91FF90EF90DF90CF900F9001
:101460000FBE0F901F9018959EEF9093E800C7CF86
:101470001092F100D5CF913059F48111D3CF413082
:10148000510581F68091BB018D7F8093BB01CACF4E
:10149000933049F48111C6CF4130510519F680913E
:1014A000BB018260F2CF953041F48091E80080FF6B
:1014B000FCCF20682093E300B5CF963009F0A9C097
:1014C0000B8D1C8D22E01092E9001092B701109252
:1014D000B601F2122EC01092B5011092B4010E9412
:1014E000C5021F8299E09983FA8291E09E8390EA77
:1014F00098879AEF99872091B6013091B701275FBD
:101500003F4F3C832B838D831092E9001092B701EB
:101510001092B6011093B5010093B40149E050E078
:10152000BE016F5F7F4F80E00E949F020E94C50254
:1015300079CF1093B5010093B4010E945801DC01EA
:1015400012960D911C910115110509F451C1D80194
:10155000ED91FC910480F581E02DBE016B5E7F4F23
:10156000C8010995009709F03EC1F8010085118571
:10157000EACFF3E0FF120EC08F89882309F440C040
:10158000823061F440E860E180E191E00E946C0209
:10159000811148CF81E28093EB0047CF813029F45D
:1015A00040E86BE084E091E0F1CF833099F70E944E
:1015B0005801DC011296ED90FC908E010F5F1F4FD9
:1015C0006801E114F10479F0D701ED91FC910680F6
:1015D000F781E02DB801C7010995080F111DF7012A
:1015E000E084F184EECFD8011C92F6010190002036
:1015F000E9F73197BF016C197D0940E0C601C6CFFC
:101600006EEE70E0FB01449150E080E80E949F0282
:1016100009CF973009F4BECF983021F481E0809350
:10162000F10000CF993009F0FDCE837009F0B2CF00
:10163000E3E1F1E081E031E096E32191222371F0D2
:101640008093E9003093EB00DF0111972C912093F8
:10165000EC009093ED008F5F873079F78EE78093F1
:10166000EA001092EA008F898093D601DBCE8B8D41
:101670009C8D1092E9001092B7011092B6019093E0
:10168000B5018093B401898D811192C08E899D89A5
:10169000913A49F4813209F07DCF47E050E064E0AF
:1016A00071E080E0B3CF913209F074CF833269F4F6
:1016B0008F89988DB0E0A0E08093000190930101A4
:1016C000A0930201B0930301ADCE803269F4809102
:1016D000E80082FFFCCF67E084E091E00E94F60220
:1016E0008BEF8093E8009ECE823209F09BCE8F89EB
:1016F00080930B01EEEFFFE7859194918B3F9C4D1A
:1017000051F1E0E0F8E08091040190910501A09191
:101710000601B0910701803B9440A105B105F1F4A9
:1017200080910B0180FD1AC0EE3F8AE0F80789F531
:1017300087E797E791838083809160008093B80169
:1017400088E19BE00FB6F894A895809360000FBEE7
:101750009093600067CEEEEFFAE0D5CF8081918163
:101760008737974709F05ECEA89580916000886121
:10177000809360008091B80180936000EE3F2AE082
:10178000F20789F08091FE0A9091FF0A918380838D
:1017900049CE808191818737980751F29093FF0A53
:1017A0008093FE0AC5CF1092FF0A1092FE0A3ACE2D
:1017B0000E945801DC0112960D911C910115110532
:1017C00009F4E8CED801ED91FC910190F081E02D73
:1017D000BE016B5E7F4FC8010995811123CEF801D0
:1017E00000851185EBCF181619060CF41BCED2CE4E
:1017F000F1E0FF12BECE62EF70E004CF1F920F92B5
:101800000FB60F9211242F933F934F935F936F93D3
:101810007F938F939F93AF93BF93EF93FF938091A9
:10182000B900887F803609F44AC0F0F5883209F49F
:10183000A7C018F5803109F49BC0B8F4882309F4D7
:10184000F9C0883009F494C0FF91EF91BF91AF9136
:101850009F918F917F916F915F914F913F912F91C8
:101860000F900FBE0F901F901895883109F488C013
:10187000803251F78093FF0114C0803409F49DC079
:1018800040F48033B9F38833F9F68093FF0185EC97
:10189000B0C0803509F485C0883509F496C0883415
:1018A00099F60E94DB08D0CF883909F48CC038F54E
:1018B000883729F050F4883611F0803729F683E014
:1018C000809301021092910157C0883809F47BC0BF
:1018D000803919F0803809F0B7CF809191018032BA
:1018E00008F071C0E091910181E08E0F8093910129
:1018F0008091BB00F0E0EF58FE4F80833DC0803BFD
:1019000039F0E0F4803A09F479C0883A09F09CCFC4
:1019100084E08093010210926E0110926D01E091BB
:101920006B01F0916C01099580916D0181110FC0DF
:1019300081E080936D0110924B0109C0803C09F455
:10194000A6CF883C09F4A3CF883B09F07DCFE09176
:101950006E0181E08E0F80936E01F0E0E55BFE4F3B
:1019600080818093BB0090916E0180916D0129C0B0
:101970008091DC018093BB0085EC8093BC0064CF38
:101980009091FE018091FD01981758F5E091FE01BC
:1019900081E08E0F8093FE01F0E0E352FE4F8081E4
:1019A000E9CFE091FE0181E08E0F8093FE018091EE
:1019B000BB00F0E0E352FE4F80839091FE018091E6
:1019C000FD019817C8F285E8D8CFE091FE0181E0CB
:1019D0008E0F8093FE018091BB00F0E0E352FE4F3A
:1019E00080838091000281115CCF81E08093DB01D4
:1019F00084EA8093BC001092010226CF85EC80938C
:101A0000BC001092010280919101803230F4E0918B
:101A10009101F0E0EF58FE4F10826091910170E06B
:101A2000E0916F01F091700181E791E009951092CA
:101A300091010ACF1092FF0134CF0F931F93CF93E0
:101A4000DF93EBE2F2E01382128288EE93E0A0E0F3
:101A5000B0E084839583A683B7832DE131E03183A1
:101A600020832FEF3FEF358724870BE712E0F80143
:101A70001382128284839583A683B7838FE291E0D9
:101A800091838083C7E8D2E085E190E09B838A83DD
:101A90001D821C8285E090E09F838E8380E688878C
:101AA00082E090E09A87898783E090E09C878B872B
:101AB00082E090E00E94A70E9E878D8783E090E0F1
:101AC0000E94A70E988B8F8781E090E09A8B898B7C
:101AD00081E48B8B85E48C8B81E491E0998388830E
:101AE00086E38D8B8FEF8E8B1F8A198E188E1C8E3E
:101AF0001D8E1E8E1F8E19A218A21BA21AA21CA236
:101B00001DA21EA21FA219A618A61B8F0A8FDF9165
:101B1000CF911F910F910895789484B5826084BD10
:101B200084B5816084BD85B5826085BD85B58160E1
:101B300085BD80916E00816080936E00109281005F
:101B4000809181008260809381008091810081601A
:101B500080938100809180008160809380008091DB
:101B600091008260809391008091910081608093C8
:101B70009100809190008160809390008091C100DD
:101B800084608093C1008091C10082608093C10015
:101B90008091C10081608093C1008091C300816009
:101BA0008093C3008091C00082608093C0008091C8
:101BB000C20081608093C20080917A00846080932B
:101BC0007A0080917A00826080937A0080917A0016
:101BD000816080937A0080917A00806880937A0097
:101BE0001092D6011092BB011092BA018091D700D9
:101BF00081608093D70080EA8093D80089B58061A6
:101C000089BD89B5826089BD09B400FEFDCF0E94FF
:101C100026028091D8008F7C80618093D8008091CB
:101C2000E000807F8093E0008091E1008E7E8093D1
:101C3000E1008DE08093E200559A209A87E892E0D7
:101C40000E948207C0E0D0E08BE292E00E9448044C
:101C500018161906B4F540EC51E062EC71E087E823
:101C600092E00E945E078091C2019091C301813091
:101C7000910561F18230910509F45CC0892BA9F4CA
:101C8000E0919602F0919702809198028083E09112
:101C90009602F091970280919A028183E0919602D8
:101CA000F091970280919B02828340919202509121
:101CB000930260919602709197028BE292E00E94EB
:101CC0000303209709F20E940000BECF6091C0017B
:101CD0007091C10187E892E00E94B6068CE992E01B
:101CE0000E94A1079093BF018093BE018091890259
:101CF0000E94DD019093BD018093BC01E0919602AA
:101D0000F091970224E0959587952A95E1F7807FD9
:101D10009091BF01890F8083E0919602F091970224
:101D20008091BC018183E0919602F09197028091AD
:101D3000BE01BACF70E060E087E892E00E94B6068C
:101D4000B4CFEE0FFF1F0590F491E02D09940F938F
:101D50001F93CF93DF938230910510F482E090E0DF
:101D6000E091B302F091B40230E020E0B0E0A0E0F6
:101D7000309799F42115310509F44AC0281B390B15
:101D800024303105D8F58A819B816115710589F16F
:101D9000FB0193838283FE0111C040815181028146
:101DA000138148175907E0F04817590799F410971D
:101DB00061F012960C93129713961C933296CF01F2
:101DC000DF91CF911F910F9108950093B30210936B
:101DD000B402F4CF2115310551F04217530738F002
:101DE000A901DB019A01BD01DF01F801C1CFEF01BB
:101DF000F9CF9093B4028093B302CDCFFE01E20FEE
:101E0000F31F819391932250310939832883D7CFCF
:101E10002091B1023091B202232B41F420910E01A6
:101E200030910F013093B2022093B10220910C0146
:101E300030910D012115310541F42DB73EB7409188
:101E4000100150911101241B350BE091B102F0916A
:101E5000B202E217F307A0F42E1B3F0B2817390735
:101E600078F0AC014E5F5F4F2417350748F04E0FF6
:101E70005F1F5093B2024093B102819391939FCF21
:101E8000F0E0E0E09CCFCF93DF930097E9F0FC0116
:101E9000329713821282A091B302B091B402ED0185
:101EA00030E020E01097A1F420813181820F931F50
:101EB0002091B1023091B2022817390709F061C0B0
:101EC000F093B202E093B102DF91CF910895EA015D
:101ED000CE17DF07E8F54A815B819E014115510568
:101EE000B1F7E901FB83EA8349915991C40FD51FEA
:101EF000EC17FD0761F4808191810296840F951F94
:101F0000E90199838883828193819B838A83F0E0AE
:101F1000E0E012968D919C9113970097B9F52D9161
:101F20003C911197CD010296820F931F2091B1022F
:101F30003091B2022817390739F6309751F51092CF
:101F4000B4021092B302B093B202A093B102BCCF1C
:101F5000D383C28340815181840F951FC817D9074D
:101F600061F44E5F5F4F88819981480F591F5183FB
:101F700040838A819B81938382832115310509F0F7
:101F8000B0CFF093B402E093B3029ECFFD01DC0129
:0C1F9000C0CF13821282D7CFF894FFCF8D
:101F9C00FFFFFFFF00E10000000000000000B502A1
:101FAC00800000C180810000000000000084030359
:101FBC0003A5039A034804A903240400000000119C
:101FCC0006E4054006BA05DD05CA05BB05000000A0
:0A1FDC000082075E07D808B6060071
:00000001FF
