:100000000C9458000C9480000C9480000C94800098
:100010000C9480000C9480000C9480000C94800060
:100020000C9480000C9480000C9480000C94800050
:100030000C9480000C9480000C9480000C94800040
:100040000C94E40C0C9480000C94540D0C942E0D24
:100050000C9480000C9480000C9480000C94800020
:100060000C94860D0C9480000000000025002800F0
:100070002B00040404040404040402020202020229
:10008000030303030303010204081020408001025C
:1000900004081020010204081020000000080002DB
:1000A0000100000304070000000000000000A50E8E
:1000B00011241FBECFEFD8E0DEBFCDBF22E0A8E302
:1000C000B1E001C01D92A13DB207E1F711E0A0E04F
:1000D000B1E0E6E9F2E202C005900D92A833B10763
:1000E000D9F710E0C8E5D0E004C02197FE010E94D6
:1000F0001E10C735D107C9F70E940F0F0C94491184
:100100000C94000090E0FC01E656FF4F2491FC01A6
:10011000EA57FF4F3491FC01EE58FF4FE491EE2374
:10012000C9F0222339F0233001F1A8F4213019F16C
:10013000223029F1F0E0EE0FFF1FE859FF4FA591A3
:10014000B4918FB7F894EC91611126C030953E239D
:100150003C938FBF08952730A9F02830C9F0243090
:1001600049F7809180008F7D03C0809180008F7758
:1001700080938000DFCF84B58F7784BDDBCF84B5DB
:100180008F7DFBCF8091B0008F778093B000D2CF6E
:100190008091B0008F7DF9CF3E2BDACF8E3008F002
:1001A0008E502091000190E4299F900111248770C6
:1001B000822B80937C0080917A00806480937A0007
:1001C00080917A0086FDFCCF809178009091790033
:1001D00008953FB7F89480918F0190919001A0917C
:1001E0009101B091920126B5A89B05C02F3F19F04F
:1001F0000196A11DB11D3FBFBA2FA92F982F8827A7
:10020000BC01CD01620F711D811D911D42E0660F81
:10021000771F881F991F4A95D1F708952FB7F89433
:1002200060918B0170918C0180918D0190918E0174
:100230002FBF0895AF92BF92CF92DF92EF92FF92BD
:100240000F931F93CF93DF936C017B018B01040FFE
:10025000151FEB015E01AE18BF08C017D10759F09A
:100260006991D601ED91FC910190F081E02DC601DC
:100270000995892B79F7C501DF91CF911F910F91D6
:10028000FF90EF90DF90CF90BF90AF900895FC016A
:10029000538D448D252F30E0842F90E0821B930BEB
:1002A000541710F0CF96089501970895FC01918D91
:1002B000828D981761F0A28DAE0FBF2FB11D5D9694
:1002C0008C91928D9F5F9F73928F90E008958FEF36
:1002D0009FEF0895FC01918D828D981731F0828DEA
:1002E000E80FF11D858D90E008958FEF9FEF089541
:1002F000FC01918D228D892F90E0805C9F4F821BA5
:1003000091098F739927089583E092E00E94780104
:1003100021E0892B09F420E0822F089580E090E00D
:10032000892B29F00E94840181110C94000008950A
:10033000FC01A48DA80FB92FB11DA35ABF4F2C915A
:10034000848D90E001968F739927848FA689B78951
:100350002C93A089B1898C91837080648C93938D48
:10036000848D981306C00288F389E02D80818F7DEB
:1003700080830895EF92FF920F931F93CF93DF93A3
:10038000EC0181E0888F9B8D8C8D98131AC0E889D1
:10039000F989808185FF15C09FB7F894EE89FF89A0
:1003A0006083E889F98980818370806480839FBF3E
:1003B00081E090E0DF91CF911F910F91FF90EF903E
:1003C0000895F62E0B8D10E00F5F1F4F0F7311274E
:1003D000E02E8C8D8E110CC00FB607FCFACFE88989
:1003E000F989808185FFF5CFCE010E949801F1CF78
:1003F000EB8DEC0FFD2FF11DE35AFF4FF0829FB7FD
:10040000F8940B8FEA89FB8980818062CFCFCF93EC
:10041000DF93EC01888D8823B9F0AA89BB89E8892C
:10042000F9898C9185FD03C0808186FD0DC00FB6D2
:1004300007FCF7CF8C9185FFF2CF808185FFEDCF50
:10044000CE010E949801E9CFDF91CF9108952091CC
:100450005B01260F3327331F21323105ECF4209145
:10046000D901FC0190E080E0243069F082E0089539
:10047000A0915B012191AC01475C5E4FA40FB52FA9
:10048000B11D2C930196861798F380915B01680F3C
:1004900060935B0180E0089581E008951092D90196
:1004A00081E08093D8011092B30161E082E10E9463
:1004B000820061E083E10E948200E9EBF0E080814C
:1004C0008E7F808380818D7F808388E48093B800D5
:1004D00085E48093BC000895CF93DF9391E09093DF
:1004E00038018823B9F0C091B800D091BA0080914A
:1004F000BC008A7B8093BC0060E082E10E948200A5
:1005000060E083E10E9482000E944E02D093BA0014
:10051000C093B800DF91CF910895CF92DF92EF9210
:10052000FF920F931F93CF93DF93D091020281E04C
:10053000D13208F09CC0C09101020E94E9006B0119
:100540007C018091D90181116CC082E08093D90136
:1005500081E08093D8018FEF8093D7011092D6016C
:10056000D093D501A1EEB1E0E5EBF1E080E0D81346
:100570008DC01092B4018091B401CC0FC82BC093F0
:10058000B4018091B301813009F084C01092B301AD
:100590000E94E9006B017C018091B4018093BB0053
:1005A0008091DB019091DC01A091DD01B091DE0131
:1005B000892B8A2B8B2BA1F00E94E9000091DB0193
:1005C0001091DC012091DD013091DE016C197D0973
:1005D0008E099F09061717072807390708F442C034
:1005E0008091BC0083FDD8CF85EC8093BC000E9435
:1005F000E9006B017C018091D901823009F44CC083
:100600008091D7018F3F09F469C08091D701803272
:1006100009F466C08091D701803309F463C084E097
:1006200026C08091DB019091DC01A091DD01B091A9
:10063000DE01892B8A2B8B2B09F483CF0E94E900E2
:100640000091DB011091DC012091DD013091DE0190
:100650006C197D098E099F090617170728073907A6
:1006600008F06FCF8091DA010E946C0285E0109251
:10067000E001109202021092DF01DF91CF911F91F1
:100680000F91FF90EF90DF90CF9008959D919193FF
:100690008F5F6DCF85EEA9CF8091DB019091DC015A
:1006A000A091DD01B091DE01892B8A2B8B2B09F4FF
:1006B000A2CF0E94E9000091DB011091DC012091A2
:1006C000DD013091DE016C197D098E099F09061745
:1006D00017072807390708F08ECFC4CF80E0C7CFAF
:1006E00082E0C5CF83E0C3CFCF92DF92EF92FF923B
:1006F0000F931F93CF93DF93D82FC62F613208F04B
:1007000098C00E94E9006B017C018091D9018111A0
:100710006BC081E08093D9018093D8019FEF9093C3
:10072000D7011092D6019C0F9093D5018093B4010C
:100730008091B401DD0FD82BD093B4018091B30127
:10074000813009F078C01092B3010E94E9006B017A
:100750007C018091B4018093BB008091DB0190917A
:10076000DC01A091DD01B091DE01892B8A2B8B2B5E
:10077000A1F00E94E9000091DB011091DC012091C1
:10078000DD013091DE016C197D098E099F09061784
:1007900017072807390708F448C08091BC0083FD7B
:1007A000D8CF85EC8093BC000E94E9006B017C01EE
:1007B0008091D901813009F440C08091D6018C1715
:1007C00010F4C091D601E5EBF1E0A3E9B1E080E0DF
:1007D0008C1355C08C2FDF91CF911F910F91FF90FB
:1007E000EF90DF90CF9008958091DB019091DC0134
:1007F000A091DD01B091DE01892B8A2B8B2B09F4AE
:1008000084CF0E94E9000091DB011091DC0120916E
:10081000DD013091DE016C197D098E099F090617F3
:1008200017072807390708F070CF8091DA010E9476
:100830006C02C0E0CFCF85EEB5CF8091DB01909107
:10084000DC01A091DD01B091DE01892B8A2B8B2B7D
:1008500009F4AECF0E94E9000091DB011091DC01A8
:100860002091DD013091DE016C197D098E099F090F
:10087000061717072807390708F09ACFD6CF9191A6
:100880009D938F5FA5CF089508950895E09181010C
:1008900080918001E81730F4F0E0ED56FE4F808142
:1008A00090E008958FEF9FEF0895909181018091DE
:1008B00080012FEF3FEF981748F4E92FF0E0ED5655
:1008C000FE4F208130E09F5F90938101C901089520
:1008D0008091800190918101891B990B0895CF929D
:1008E000DF92EF92FF920F931F93CF93DF937C01E0
:1008F000CB018A012091DF01222389F0EB016B01FA
:10090000C40ED51ECC15DD0569F06991D701ED91B6
:10091000FC910190F081E02DC7010995F3CF642F80
:100920000E942702C801DF91CF911F910F91FF9084
:10093000EF90DF90CF900895CF93DF931F92CDB7C4
:10094000DEB769832091DF012223F9F020910202B2
:10095000203258F021E030E0FC013383228390E024
:1009600080E00F90DF91CF9108958091E001E82F12
:10097000F0E0EF51FE4F998190838F5F8093E0010B
:100980008093020281E090E0ECCF61E0CE0101961D
:100990000E942702F7CF0F931F93CF93DF93EC01B1
:1009A000142F052F898191E09093DF01809301023C
:1009B0001092E0011092020280EA92E00E949C04F0
:1009C000602F80EA92E00E949C04612F80EA92E00E
:1009D0000E949C040E948D028883DF91CF911F9119
:1009E0000F9108951F93CF93DF93EC01142F89810A
:1009F00091E09093DF01809301021092E001109248
:100A0000020280EA92E00E949C04612F80EA92E058
:100A10000E949C040E948D028883DF91CF911F91D8
:100A2000089590E080E00895CF93DF93EB01FC01FF
:100A3000808591E09093DF01809301021092E001A4
:100A40001092020260E480EA92E00E949C04BE01DF
:100A500084E0759567958A95E1F780EA92E00E94B7
:100A60009C046C2F6295607F80EA92E00E949C0457
:100A7000DF91CF910C948D02FC0184810C94CE0007
:100A80004F925F926F927F92AF92BF92CF92DF921E
:100A9000EF92FF920F931F93CF93DF938C015B0133
:100AA0007A01DC011D96CD91DC911E971996CD90AF
:100AB000DC90CC0EDD1ECC16DD0659F10E940E0135
:100AC00060930B0270930C0280930D0290930E02C0
:100AD00083E092E00E94560197FF41C00E940E0100
:100AE00040900B0250900C0260900D0270900E022C
:100AF0006419750986099709409007025090080209
:100B00006090090270900A026415750586059705C4
:100B1000F8F2D8011D96ED91FC911E97808190E02E
:100B2000F501918380831D96ED91FC91818190E088
:100B3000982F88272281820F911DD7018D939C9336
:100B4000DF91CF911F910F91FF90EF90DF90CF90A9
:100B5000BF90AF907F906F905F904F900895899372
:100B6000AACFE3E0F2E0A089B18982E08C93A4856A
:100B7000B5851C92A685B78580E18C93108EA489DB
:100B8000B58986E08C93A289B3898C9180618C931E
:100B9000A289B3898C9188608C93A289B3898C9146
:100BA00080688C930288F389E02D80818F7D80831B
:100BB00010928101109280011092E00110920202C5
:100BC0000E944E0283E494E090935A01809359016D
:100BD00084E494E090935E0180935D010895CF9347
:100BE000DF93EC01898191E09093DF018093010212
:100BF0001092E0011092020280EA92E00E949C04AE
:100C00000E948D02888362E089810E9474031092A1
:100C100081018093800180EA92E00E945504D82FE0
:100C200080E0C82F80EA92E00E9455048C2B9D2B17
:100C3000DF91CF910895CF93DF93EC01898191E00B
:100C40009093DF01809301021092E0011092020262
:100C500080EA92E00E949C040E948D02888361E0F9
:100C600089810E947403109281018093800180EA3F
:100C700092E00E945504DF91CF910895CF93DF93C6
:100C8000EC01462F416060E00E94F2040E940E01D8
:100C90007E836D8363E1CE010E941B06877089F419
:100CA0008A819B81892BB1F30E940E012D813E81A7
:100CB000621B730B8A819B818617970758F780E028
:100CC0000BC041E06BE0CE010E94F20440E060E026
:100CD000CE010E94F20481E0DF91CF9108958F92BE
:100CE0009F92AF92BF92CF92DF92EF92FF920F93BB
:100CF0001F93CF93DF936C017B01EA0160E50E94B3
:100D00001B068F5F880F90E09983888366E4C60195
:100D10000E941B06082F10E00F5F1F4F1D830C83DE
:100D2000A881B0E020E03FE24AE350E00E94DA0F01
:100D30006C507E4F8F4F9F4F38EE832E33E0932EB3
:100D4000A12CB12CA50194010E94F40FD8010E949E
:100D500016106C507E4F8F4F9F4FA50194010E943B
:100D6000F40F2A873B874C875D8761E5C6010E94A7
:100D7000EF058C01112702C0000F111F9A95E2F7B1
:100D80000F5F1F4F1F830E83A881B0E020E03FE27A
:100D90004AE350E00E94DA0F6C507E4F8F4F9F4F16
:100DA000A50194010E94F40FD8010E94DA0F6C5043
:100DB0007E4F8F4F9F4FA50194010E94F40F2E8705
:100DC0003F87488B598B60E7C6010E941B068F5FE7
:100DD000880F90E09B838A8361E7C6010E94EF053C
:100DE0009C01992702C0880F991F3A95E2F7019656
:100DF00099878887F7012381222331F02E813F8153
:100E0000821B930B99878887AA81B0E020E03FE29C
:100E10004AE350E00E94DA0F6C507E4F8F4F9F4F95
:100E200028EEC22E23E0D22EE12CF12CA701960150
:100E30000E94F40FA885B9850E94DA0F6C507E4F8E
:100E40008F4F9F4FA70196010E94F40F2A8B3B8B77
:100E50004C8B5D8BDF91CF911F910F91FF90EF90A5
:100E6000DF90CF90BF90AF909F908F900895CF93D9
:100E7000DF93EB0161E00E941B0684FB992790F948
:100E8000988383FB992790F99A8382FB992790F99D
:100E9000998386FB992790F99B83881F8827881F51
:100EA0008C83DF91CF9108952F923F924F925F9262
:100EB0006F927F928F929F92AF92BF92CF92DF926A
:100EC000EF92FF920F931F93CF93DF93CDB7DEB7CF
:100ED0006B970FB6F894DEBF0FBECDBF8C014A01F1
:100EE0005B01BE01695E7F4F0E943707AE014F5F15
:100EF0005F4FBE01695E7F4FC8010E946F068F89F8
:100F0000882309F494C08B859C85AD85BE858C575C
:100F1000924FAF4FBF4F298D222309F48DC04B85CF
:100F20005C856D857E854E545D4F6F4F7F4F440FBE
:100F3000551F661F771F840F951FA61FB71F3A8C7A
:100F4000332061F04F85588969897A894C565D4F05
:100F50006F4F7F4F840F951FA61FB71F2B8C22202A
:100F600009F4A1C06C017D0126E2C20E22E0D21E6E
:100F7000E11CF11C8C149D04AE04BF0408F496C05F
:100F8000AB81B0E020E03FE24AE350E00E94DA0F9C
:100F90002B013C01E4EF4E0EE1E05E1E611C711C72
:100FA000A50194012C193D094E095F09A8EEB3E093
:100FB0000E94DA0F6B017C01C301B20120ED37E022
:100FC00040E050E00E94F40FC20ED31EE41EF51E56
:100FD000C301B20128EE33E040E050E00E94F40F7C
:100FE000C701B6010E94F40F332031F08F8198853C
:100FF000280F391F411D511D21153105410551058E
:1010000009F44EC0BA01A9014150510961097109A1
:1010100090E080E02A013B014424452846284728E7
:10102000C1F076956795579547950196F3CF86E37E
:101030009BE0A0E0B0E06FCF288D222309F47FCFA2
:101040004B855C856D857E854C565D4F6F4F7F4F20
:1010500072CF982F8827482B592B61E7C8010E942F
:10106000CB04F80180869186A286B386822D6B968A
:101070000FB6F894DEBF0FBECDBFDF91CF911F91A9
:101080000F91FF90EF90DF90CF90BF90AF909F9027
:101090008F907F906F905F904F903F902F9008952A
:1010A00050E040E0DACF22242394E0CF212CDECFA1
:1010B0000F931F93CF93DF93EC010E940E017E8369
:1010C0006D8363E1CE010E941B068770C9F48A819B
:1010D0009B81892BB1F30E940E012D813E81621B01
:1010E000730B8A819B818617970758F781E08C8361
:1010F0000FEF1FEFC801DF91CF911F910F9108955E
:101100006EE1CE010E94EF058C0141E06BE0CE0163
:101110000E94F204EFCF45960C9458088F929F924C
:10112000AF92BF92CF92DF92EF92FF920F931F93F5
:10113000CF93DF93CDB7DEB7A1970FB6F894DEBF9C
:101140000FBECDBF7C010E94B105D701ED91FC918E
:101150000680F781E02D70E060E0C70109951092EC
:10116000000187010B5E1F4F60ECC8010E941B0647
:101170008E3E09F0A0C069E8C8010E941B06482FF6
:10118000416069E8C8010E94F20440E068E8C801D3
:101190000E94F20441E060E8C8010E94F20441E0CC
:1011A0006FEFC8010E94F20440E060E0C8010E94B5
:1011B000F20461E9C8010E941B06F701848F41E037
:1011C00060E0C8010E94F20440E06FEFC8010E9495
:1011D000F20440E060E8C8010E94F20460E6C80141
:1011E0000E941B06482F426160E6C8010E94F2047B
:1011F00040E250E064E4C8010E94CB044FEF61E09C
:10120000C8010E94F20441E060E8C8010E94F204B3
:1012100041E06FEFC8010E94F20440E060E0C801C5
:101220000E94F20446E06FEFC8010E94F20463E8F6
:10123000C8010E941B06482F446063E8C8010E9451
:10124000F20447E06FEFC8010E94F20441E061E858
:10125000C8010E94F20441E060E8C8010E94F20463
:101260004BE664E9C8010E94F20440E063E8C8016B
:101270000E94F2040E940E01D7015B967C936E934C
:101280005A9763E8C8010E941B06811157C0F701F5
:101290008789908D892BA9F30E940E01D7015A9658
:1012A0002D913C915B97621B730B57968D919C918E
:1012B0008617970730F740E25EE460E070E0C8010F
:1012C0000E94540741E060E8C8010E94F20441E036
:1012D0006FEFC8010E94F20440E060E0C8010E9484
:1012E000F204F701448D61E9C8010E94F20441E073
:1012F00060E0C8010E94F20440E06FEFC8010E9464
:10130000F20440E060E8C8010E94F20442E060E0BC
:10131000C8010E94F204A1960FB6F894DEBF0FBE7A
:10132000CDBFDF91CF911F910F91FF90EF90DF9094
:10133000CF90BF90AF909F908F90089541E063E869
:10134000C8010E94F20462E9C8010E941B06A82E8F
:1013500040E061E8C8010E94F20446E06FEFC80176
:101360000E94F20463E8C8010E941B06482F4B7FCD
:1013700063E8C8010E94F20441E06FEFC8010E94D7
:10138000F20441E060E0C8010E94F20440E06FEF27
:10139000C8010E94F20440E060E8C8010E94F20423
:1013A000F701868991E09093DF018093010210920A
:1013B000E0011092020260EB80EA92E00E949C043D
:1013C0000E948D02D70155968C93559766E05696EC
:1013D0008C910E94740310928101809380016E01B0
:1013E000B7E1CB0ED11C460147E0B42EBA94BB2026
:1013F00041F080EA92E00E945504F40181934F018C
:10140000F5CF41E06FEFC8010E94F20440E06FE4C5
:10141000C8010E94F2044CE26EE4C8010E94F2048A
:1014200040E06FEFC8010E94F20444EB66EBC80194
:101430000E94F204BCE0A7FEB0E0A0E090E061E012
:1014400070E08A2D8F77E92FE695E695E695AE2E2A
:10145000B12C96012A0D3B1DF9012081492F4770BF
:101460009B1710F08A132EC0F501EC0DFD1D5B01DA
:1014700002C0AA0CBB1C4A95E2F7A50140952423A3
:1014800020839F5F9033F9F6D70156968C9191E0B7
:101490009093DF01809301021092E001109202020A
:1014A00060EB80EA92E00E949C0437E0B32EBA948D
:1014B000BB2091F0F60161916F0180EA92E00E94F9
:1014C0009C04F5CF30E002C0359527954A95E2F7A8
:1014D00020FFD7CFAF5FD5CF0E948D02D7015596A1
:1014E0008C9341E06FEFC8010E94F20440E060E09D
:1014F000C8010E94F20440E06FEFC8010E94F204AC
:1015000040E069E0C8010E94F20440E060E1C801E7
:101510000E94F20440E061E1C8010E94F20441E04F
:1015200064E2C8010E94F2044FEF65E2C8010E9424
:10153000F20440E065E7C8010E94F20441E06FEF69
:10154000C8010E94F2044CE26EE4C8010E94F20459
:1015500040E068E4C8010E94F20440E260E3C80190
:101560000E94F20440E06FEFC8010E94F20449E0DB
:1015700060E3C8010E94F20440E064E5C8010E94F3
:10158000F20444E061E3C8010E94F20443E062E334
:10159000C8010E94F20443E860E4C8010E94F2041A
:1015A00045E266E4C8010E94F20440E060E6C8013A
:1015B0000E94F20440E067E2C8010E94F20446E0A3
:1015C00060E5C8010E94F20440E061E5C8010E94A4
:1015D000F20446E962E5C8010E94F20448E066E5CB
:1015E000C8010E94F20440E367E5C8010E94F204CA
:1015F00040E061E6C8010E94F20440E062E6C801F2
:101600000E94F20440E064E6C8010E94F20440E057
:1016100065E6C8010E94F20440EA66E6C8010E943D
:10162000F20441E06FEFC8010E94F20442E362E27B
:10163000C8010E94F20444E167E4C8010E94F20478
:101640004FEF69E4C8010E94F20440E06AE4C80177
:101650000E94F20440E06FEFC8010E94F2044AE0E9
:101660006AE7C8010E94F20440E06BE7C8010E94EB
:10167000F20441E268E7C8010E94F20441E06FEF22
:10168000C8010E94F20444E363E2C8010E94F2042C
:1016900040E062E4C8010E94F2044FEF64E4C80134
:1016A0000E94F20446E265E4C8010E94F20445E0AB
:1016B00066E4C8010E94F20440E460E4C8010E94AC
:1016C000F20446E06EE0C8010E94F2044AE160E2E2
:1016D000C8010E94F20440E463E4C8010E94F204DD
:1016E00040E06FEFC8010E94F20443E064E3C801E8
:1016F0000E94F20444E465E3C8010E94F20441E060
:101700006FEFC8010E94F20444E061E3C8010E9447
:10171000F20449E06BE4C8010E94F20445E06CE485
:10172000C8010E94F20444E06DE4C8010E94F20482
:1017300040E06FEFC8010E94F20440E064E4C80199
:101740000E94F20440E265E4C8010E94F20448E00D
:1017500067E4C8010E94F20448E268E4C8010E94FC
:10176000F20440E067E6C8010E94F20444E060E74A
:10177000C8010E94F20441E061E7C8010E94F2043E
:101780004EEF62E7C8010E94F20440E066E7C8013C
:101790000E94F20440E067E7C8010E94F20441E0C1
:1017A0006FEFC8010E94F20441E06DE0C8010E94A1
:1017B000F20440E06FEFC8010E94F20441E060E8EB
:1017C000C8010E94F20448EF61E0C8010E94F204DF
:1017D00041E06FEFC8010E94F20441E06EE8C801E9
:1017E0000E94F20441E060E0C8010E94F20440E07F
:1017F0006FEFC8010E94F20440E060E8C8010E9457
:10180000F20444E06AE0C8010E94F20464E8C801FE
:101810000E941B06482F4F7E64E8C8010E94F20414
:1018200041E06BE0C8010E94F204BE01635E7F4F9D
:10183000C8010E943707AE014F5F5F4FBE01635E74
:101840007F4FC8010E946F068D8D882309F472C0F6
:101850008B859C85AD85BE858C57924FAF4FBF4F12
:101860002F8D222309F46BC04B855C856D857E85A9
:101870004E545D4F6F4F7F4F440F551F661F771FAC
:10188000840F951FA61FB71F28A1222361F04F8543
:10189000588969897A894C565D4F6F4F7F4F840F05
:1018A000951FA61FB71F29A1222361F04B895C89D0
:1018B0006D897E894A5D5D4F6F4F7F4F840F951F05
:1018C000A61FB71FF701858F968FA78FB0A348EE8D
:1018D00061E0C8010E94F204D7015D964D915D91CF
:1018E0006D917C9190974032BEE45B076105710574
:1018F00018F0C8010E94540741E061E0C8010E944D
:10190000F20460E4C8010E943E06882309F4D3CCA7
:1019100042E061E0C8010E94F20460E0C8010E9458
:101920003E06882309F4C7CC48EE61E0C8010E9456
:10193000F204C1CC86E39BE0A0E0B0E091CF2E8D15
:10194000222309F4A1CF4B855C856D857E854C569D
:101950005D4F6F4F7F4F94CF85ED8093BC0080919A
:10196000DB019091DC01A091DD01B091DE010796D1
:10197000A11DB11D23E0B695A795979587952A954A
:10198000D1F72091BC0024FD03C01092D901089525
:101990004091DB015091DC016091DD017091DE012D
:1019A000452B462B472B69F30097A105B10541F064
:1019B0002AE22A95F1F700C00197A109B109E1CF08
:1019C0008091DA010C946C021F920F920FB60F9265
:1019D00011242F933F938F939F93AF93BF93809145
:1019E0008B0190918C01A0918D01B0918E0130916D
:1019F0008A0123E0230F2D3758F50196A11DB11D53
:101A000020938A0180938B0190938C01A0938D0188
:101A1000B0938E0180918F0190919001A0919101DE
:101A2000B09192010196A11DB11D80938F019093F9
:101A30009001A0939101B0939201BF91AF919F91BA
:101A40008F913F912F910F900FBE0F901F9018957F
:101A500026E8230F0296A11DB11DD2CF1F920F922F
:101A60000FB60F9211242F933F934F935F936F9371
:101A70007F938F939F93AF93BF93EF93FF9383E0F5
:101A800092E00E949801FF91EF91BF91AF919F91D9
:101A90008F917F916F915F914F913F912F910F9017
:101AA0000FBE0F901F9018951F920F920FB60F92B6
:101AB00011242F938F939F93EF93FF93E091130241
:101AC000F09114028081E0911902F0911A0282FDD6
:101AD0001BC0908180911C028F5F8F7320911D022B
:101AE000821741F0E0911C02F0E0ED5FFD4F958F11
:101AF00080931C02FF91EF919F918F912F910F90F6
:101B00000FBE0F901F9018958081F4CF1F920F92F7
:101B10000FB60F9211242F933F934F935F936F93C0
:101B20007F938F939F93AF93BF93EF93FF93809196
:101B3000B900887F803609F44AC0F0F5883209F48C
:101B4000A7C018F5803109F49BC0B8F4882309F4C4
:101B5000F9C0883009F494C0FF91EF91BF91AF9123
:101B60009F918F917F916F915F914F913F912F91B5
:101B70000F900FBE0F901F901895883109F488C000
:101B8000803251F78093D70114C0803409F49DC08E
:101B900040F48033B9F38833F9F68093D70185ECAC
:101BA000B0C0803509F485C0883509F496C0883402
:101BB00099F60E94AC0CD0CF883909F48CC038F566
:101BC000883729F050F4883611F0803729F683E001
:101BD0008093D90110927F0157C0883809F47BC0E7
:101BE000803919F0803809F0B7CF80917F018032B9
:101BF00008F071C0E0917F0181E08E0F80937F013A
:101C00008091BB00F0E0E15AFE4F80833DC0803BF5
:101C100039F0E0F4803A09F479C0883A09F09CCFB1
:101C200084E08093D90110925C0110925B01E091F5
:101C30005901F0915A01099580915B0181110FC002
:101C400081E080935B011092390109C0803C09F466
:101C5000A6CF883C09F4A3CF883B09F07DCFE09163
:101C60005C0181E08E0F80935C01F0E0E75CFE4F49
:101C700080818093BB0090915C0180915B0129C0C1
:101C80008091B4018093BB0085EC8093BC0064CF4D
:101C90009091D6018091D501981758F5E091D60121
:101CA00081E08E0F8093D601F0E0EB54FE4F8081EF
:101CB000E9CFE091D60181E08E0F8093D60180912B
:101CC000BB00F0E0EB54FE4F80839091D6018091F1
:101CD000D5019817C8F285E8D8CFE091D60181E008
:101CE0008E0F8093D6018091BB00F0E0EB54FE4F45
:101CF00080838091D80181115CCF81E08093B30112
:101D000084EA8093BC001092D90126CF85EC8093A1
:101D1000BC001092D90180917F01803230F4E091B3
:101D20007F01F0E0E15AFE4F108260917F0170E088
:101D3000E0915D01F0915E018FE591E009951092CF
:101D40007F010ACF1092D70134CFCF93DF93E3E026
:101D5000F2E01382128288EE93E0A0E0B0E0848388
:101D60009583A683B7832BE031E03183208325EC74
:101D700030E03587248724EC30E03787268720EC55
:101D800030E0318B208B21EC30E0338B228B22EC46
:101D900030E0358B248B26EC30E0378B268B118E90
:101DA000128E138E148EE0EAF2E013821282848384
:101DB0009583A683B7838DE191E091838083CCEAFC
:101DC000D2E08EE090E09B838A831D821C821F827A
:101DD0001E8280E6888783E090E09A8789879C87C7
:101DE0008B870E9424109E878D8783E090E00E945D
:101DF0002410988B8F8781E090E09A8B898B86E402
:101E00008B8B8CE48C8B8FE291E09983888389E2C1
:101E10008E8B188E1F8A198EDF91CF91089578943A
:101E200084B5826084BD84B5816084BD85B58260DF
:101E300085BD85B5816085BD80916E008160809390
:101E40006E001092810080918100826080938100F9
:101E50008091810081608093810080918000816009
:101E6000809380008091B10084608093B100809164
:101E7000B00081608093B00080917A00846080938C
:101E80007A0080917A00826080937A0080917A0053
:101E9000816080937A0080917A00806880937A00D4
:101EA0001092C1008CEA92E00E948E08C0E0D0E05F
:101EB00083E092E00E94780118161906B4F546E80E
:101EC00051E068E871E08CEA92E00E944005809160
:101ED0008801909189018130910589F182309105C5
:101EE00009F461C0892BA9F4E091BB02F091BC0216
:101EF0008091BD028083E091BB02F091BC02809191
:101F0000BF028183E091BB02F091BC028091C002CC
:101F100082834091B7025091B8026091BB027091E8
:101F2000BC0283E092E00E941A01209709F20E940D
:101F30008401882309F4BCCF0E940000B9CF6091CE
:101F40008601709187018CEA92E00E94140581EC71
:101F500092E00E94580890938501809384018091BB
:101F6000AE020E94CE009093830180938201E091A3
:101F7000BB02F091BC0224E0959587952A95E1F784
:101F8000807F90918501890F8083E091BB02F09161
:101F9000BC02809182018183E091BB02F091BC027E
:101FA00080918401B5CF70E060E08CEA92E00E94FD
:101FB0001405AFCF0E94E50FA59F900DB49F900D23
:101FC000A49F800D911D11240895A29FB001B39F7D
:101FD000C001A39F700D811D1124911DB29F700D32
:101FE000811D1124911D0895A1E21A2EAA1BBB1B6D
:101FF000FD010DC0AA1FBB1FEE1FFF1FA217B307D5
:10200000E407F50720F0A21BB30BE40BF50B661FEA
:10201000771F881F991F1A9469F7609570958095AE
:1020200090959B01AC01BD01CF010895B7FF0C94C1
:10203000DA0F0E94DA0F821B930B0895EE0FFF1F39
:102040000590F491E02D09940F931F93CF93DF93A4
:102050008230910510F482E090E0E091CF02F0919F
:10206000D00230E020E0B0E0A0E0309799F42115F4
:10207000310509F44AC0281B390B24303105D8F545
:102080008A819B816115710589F1FB0193838283AC
:10209000FE0111C040815181028113814817590707
:1020A000E0F04817590799F4109761F012960C93D5
:1020B000129713961C933296CF01DF91CF911F9107
:1020C0000F9108950093CF021093D002F4CF211501
:1020D000310551F04217530738F0A901DB019A018D
:1020E000BD01DF01F801C1CFEF01F9CF9093D0021C
:1020F0008093CF02CDCFFE01E20FF31F8193919326
:102100002250310939832883D7CF2091CD023091D5
:10211000CE02232B41F4209103013091040130932E
:10212000CE022093CD0220910101309102012115B0
:10213000310541F42DB73EB740910501509106019C
:10214000241B350BE091CD02F091CE02E217F3078C
:10215000A0F42E1B3F0B2817390778F0AC014E5F17
:102160005F4F2417350748F04E0F5F1F5093CE0284
:102170004093CD02819391939FCFF0E0E0E09CCF1C
:10218000CF93DF930097E9F0FC013297138212821C
:10219000A091CF02B091D002ED0130E020E0109785
:1021A000A1F420813181820F931F2091CD023091C3
:1021B000CE022817390709F061C0F093CE02E093F0
:1021C000CD02DF91CF910895EA01CE17DF07E8F540
:1021D0004A815B819E0141155105B1F7E901FB83FD
:1021E000EA8349915991C40FD51FEC17FD0761F49B
:1021F000808191810296840F951FE90199838883DC
:10220000828193819B838A83F0E0E0E012968D9136
:102210009C9113970097B9F52D913C911197CD01A1
:102220000296820F931F2091CD023091CE02281783
:10223000390739F6309751F51092D0021092CF023B
:10224000B093CE02A093CD02BCCFD383C283408192
:102250005181840F951FC817D90761F44E5F5F4FF6
:1022600088819981480F591F518340838A819B81BE
:10227000938382832115310509F0B0CFF093D0020A
:10228000E093CF029ECFFD01DC01C0CF138212820A
:06229000D7CFF894FFCF48
:10229600010000D102800000000000BA011A0147C7
:1022A600010702780156016A01000000009C046FD4
:1022B6000411054504680455044604000000008E18
:0822C6000840058B0814050017
:00000001FF
