:100000000C9435010C9466010C9466010C94660105
:100010000C9466010C9466010C9466010C946601C4
:100020000C9466010C9466010C9466010C946601B4
:100030000C9466010C9466010C9466010C946601A4
:100040000C9466010C9466010C9466010C94660194
:100050000C9466010C9466010C9466010C94390EA4
:100060000C9466010C94AD0E0C94830E0C946601F6
:100070000C9466010C9466010C9466010C94660164
:100080000C9466010C9466010C9466010C94660154
:100090000C9466010C9466010C9466010C94E30EBA
:1000A0000C9466010C9466010C9466010C94660134
:1000B0000C9466010C9466010C9466010C94660124
:1000C0000C9466010C9466010C9466010C94660114
:1000D0000C9466010C9466010C9466010C94660104
:1000E0000C9466010C9484020C94E3090C94AA0508
:1000F0000C94E0010C9475020C9499050C94B301D6
:100100000C94EA010C94B7010C94E4010C940710D0
:100110000C949D010C94D2010C94CE010C94980582
:100120000C9469060C942B030C9448020C94DC018B
:100130000C9495060C949B050C94E0090C94AF016B
:100140000C94D6010C94C4050C94BD050C94F105D7
:100150000C94A6020C94BB010C94EE010C94980133
:100160000C9466060C94C4010C94DE020C94BE013F
:100170000C949A050C94C8010C949802000022007B
:10018000250028002B002E00310034000201000061
:10019000050108010B010505050507050808080804
:1001A000020202020A0A080804040404010101010F
:1001B000010101010303030303030303040707070A
:1001C0000C0C0C0C0C0C0C0C0202020206060606AF
:1001D000060606060B0B0B0B0B0B0B0B010210207C
:1001E000200808102040102040800201020108046D
:1001F0000201010204081020408080402010080401
:100200000201800402018040201008040201080459
:10021000020101020408102040800102040810209D
:10022000408000000A0B02090C0D0E0807030401B0
:1002300000000000000000000000000000000000BE
:10024000000000000000000000000000000012118B
:10025000100000000000000000000000000000008E
:100260000000000000000000071011241FBECFEFA7
:10027000D1E2DEBFCDBF00E00CBF23E0A8E3B2E0D7
:1002800001C01D92A13DB207E1F712E0A0E0B2E08B
:10029000E6EAF5E200E00BBF02C007900D92A8333A
:1002A000B107D9F711E0C5E3D1E000E006C021971E
:1002B0000109802FFE010E949C11C433D10780E008
:1002C0000807A9F70E9471100C94D1120C94000039
:1002D000282F30E0F901EE5DFD4F9491F901E452D1
:1002E000FE4F44912A563E4FF9012491222309F4EE
:1002F00035C0992311F191509231F8F4E92FF0E0D3
:100300008827EA57FE4F8F4F0C949C11B701BB0111
:100310009801AF01B3019D01BE01C401C801CE0126
:10032000D201D601DC01E0019D01E401EA01EE0108
:10033000809180008F7780938000E22FF0E0EE0FB5
:10034000FF1FE458FE4FA591B4918FB7F894EC913C
:10035000611148C040954E234C938FBF0895809102
:1003600080008F7DE8CF80918000877FE4CF84B5C7
:100370008F7784BDE2CF84B58F7DFBCF8091B000B5
:100380008F778093B000D9CF8091B0008F7DF9CF67
:10039000809190008F7780939000CFCF80919000D4
:1003A0008F7DF9CF80919000877FF5CF8091A0005D
:1003B0008F778093A000C1CF8091A0008F7DF9CF6F
:1003C0008091A000877FF5CF809120018F77809367
:1003D0002001B3CF809120018F7DF9CF8091200142
:1003E000877FF5CF4E2BB8CF863308F08653209108
:1003F0007B00982F9870277F922B90937B00209101
:10040000000290E4299F900111248770822B809331
:100410007C0080917A00806480937A0080917A00D9
:1004200086FDFCCF809178009091790008953FB7C8
:10043000F89480918F0290919002A0919102B091D6
:10044000920226B5A89B05C02F3F19F00196A11D69
:10045000B11D3FBFBA2FA92F982F8827BC01CD010E
:10046000620F711D811D911D42E0660F771F881F6D
:10047000991F4A95D1F708952FB7F89460918B0290
:1004800070918C0280918D0290918E022FBF089501
:10049000AF92BF92CF92DF92EF92FF920F931F9392
:1004A000CF93DF936C017B018B01040F151FEB01D0
:1004B0005E01AE18BF08C017D10759F06991D60187
:1004C000ED91FC910190F081E02DC6011995892BE9
:1004D00079F7C501DF91CF911F910F91FF90EF90B8
:1004E000DF90CF90BF90AF900895FC01538D448D65
:1004F000252F30E0842F90E0821B930B541710F0CF
:10050000CF96089501970895FC01918D828D9817DB
:1005100061F0A28DAE0FBF2FB11D5D968C91928DB3
:100520009F5F9F73928F90E008958FEF9FEF0895E4
:10053000FC01918D828D981731F0828DE80FF11DAD
:10054000858D90E008958FEF9FEF0895FC01918DC8
:10055000228D892F90E0805C9F4F821B91098F73C1
:100560009927089583E093E00E94A60221E0892B59
:1005700009F420E0822F0895FC01A48DA80FB92F63
:10058000B11DA35ABF4F2C91848D90E001968F73BB
:100590009927848FA689B7892C93A089B1898C91DA
:1005A000837080648C93938D848D981306C0028829
:1005B000F389E02D80818F7D80830895EF92FF92F3
:1005C0000F931F93CF93DF93EC0181E0888F9B8D76
:1005D0008C8D98131AC0E889F989808185FF15C030
:1005E0009FB7F894EE89FF896083E889F989808153
:1005F0008370806480839FBF81E090E0DF91CF9122
:100600001F910F91FF90EF900895F62E0B8D10E043
:100610000F5F1F4F0F731127E02E8C8D8E110CC0B2
:100620000FB607FCFACFE889F989808185FFF5CFFD
:10063000CE010E94BC02F1CFEB8DEC0FFD2FF11D1E
:10064000E35AFF4FF0829FB7F8940B8FEA89FB893A
:1006500080818062CFCFCF93DF93EC01888D882398
:10066000B9F0AA89BB89E889F9898C9185FD03C015
:10067000808186FD0DC00FB607FCF7CF8C9185FFFA
:10068000F2CF808185FFEDCFCE010E94BC02E9CF81
:10069000DF91CF91089580E090E0892B29F00E94AE
:1006A000B20281110E94000080E090E0892B49F0A5
:1006B00080E090E0892B29F00E94000081110E94C7
:1006C000000080E090E0892B49F080E090E0892BE9
:1006D00029F00E94000081110E94000080E090E05B
:1006E000892B49F080E090E0892B29F00E940000DE
:1006F00081110C940000089520915B02260F33278E
:10070000331F21323105ECF42091D902FC0190E035
:1007100080E0243069F082E00895A0915B0221918D
:10072000AC01475C5D4FA40FB52FB11D2C93019612
:10073000861798F380915B02680F60935B0280E0FC
:10074000089581E008951092D90281E08093D80243
:100750001092B30261E084E10E94680161E085E1EA
:100760000E946801E9EBF0E080818E7F80838081C8
:100770008D7F808388E48093B80085E48093BC00FB
:100780000895CF93DF9391E0909338028823B9F0D6
:10079000C091B800D091BA008091BC008A7B809350
:1007A000BC0060E084E10E94680160E085E10E9495
:1007B00068010E94A303D093BA00C093B800DF91F0
:1007C000CF910895CF92DF92EF92FF920F931F93F4
:1007D000CF93DF93D091020381E0D13208F09CC027
:1007E000C09101030E9417026B017C018091D90224
:1007F00081116CC082E08093D90281E08093D8029D
:100800008FEF8093D7021092D602D093D502A1EE3B
:10081000B2E0E5EBF2E080E0D8138DC01092B402B4
:100820008091B402CC0FC82BC093B4028091B30264
:10083000813009F084C01092B3020E9417026B014C
:100840007C018091B4028093BB008091DB02909187
:10085000DC02A091DD02B091DE02892B8A2B8B2B6A
:10086000A1F00E9417020091DB021091DC0220919E
:10087000DD023091DE026C197D098E099F09061791
:1008800017072807390708F442C08091BC0083FD90
:10089000D8CF85EC8093BC000E9417026B017C01CD
:1008A0008091D902823009F44CC08091D7028F3FE9
:1008B00009F469C08091D702803209F466C0809142
:1008C000D702803309F463C084E026C08091DB0244
:1008D0009091DC02A091DD02B091DE02892B8A2B7F
:1008E0008B2B09F483CF0E9417020091DB02109139
:1008F000DC022091DD023091DE026C197D098E0947
:100900009F09061717072807390708F06FCF80914E
:10091000DA020E94C10385E01092E0021092020305
:100920001092DF02DF91CF911F910F91FF90EF9016
:10093000DF90CF9008959D9191938F5F6DCF85EE5D
:10094000A9CF8091DB029091DC02A091DD02B091F1
:10095000DE02892B8A2B8B2B09F4A2CF0E9417026F
:100960000091DB021091DC022091DD023091DE0269
:100970006C197D098E099F09061717072807390783
:1009800008F08ECFC4CF80E0C7CF82E0C5CF83E030
:10099000C3CFCF92DF92EF92FF920F931F93CF932B
:1009A000DF93D82FC62F613208F098C00E9417023B
:1009B0006B017C018091D90281116BC081E0809331
:1009C000D9028093D8029FEF9093D7021092D6025B
:1009D0009C0F9093D5028093B4028091B402DD0FF6
:1009E000D82BD093B4028091B302813009F078C043
:1009F0001092B3020E9417026B017C018091B40235
:100A00008093BB008091DB029091DC02A091DD021B
:100A1000B091DE02892B8A2B8B2BA1F00E9417024A
:100A20000091DB021091DC022091DD023091DE02A8
:100A30006C197D098E099F090617170728073907C2
:100A400008F448C08091BC0083FDD8CF85EC80932A
:100A5000BC000E9417026B017C018091D902813099
:100A600009F440C08091D6028C1710F4C091D602D0
:100A7000E5EBF2E0A3E9B2E080E08C1355C08C2FE7
:100A8000DF91CF911F910F91FF90EF90DF90CF906A
:100A900008958091DB029091DC02A091DD02B0917B
:100AA000DE02892B8A2B8B2B09F484CF0E9417023C
:100AB0000091DB021091DC022091DD023091DE0218
:100AC0006C197D098E099F09061717072807390732
:100AD00008F070CF8091DA020E94C103C0E0CFCF4E
:100AE00085EEB5CF8091DB029091DC02A091DD0212
:100AF000B091DE02892B8A2B8B2B09F4AECF0E949A
:100B000017020091DB021091DC022091DD0230918E
:100B1000DE026C197D098E099F0906171707280741
:100B2000390708F09ACFD6CF91919D938F5FA5CFCB
:100B3000089508950895E091810280918002E81758
:100B400030F4F0E0ED56FD4F808190E008958FEF96
:100B50009FEF089590918102809180022FEF3FEFE7
:100B6000981748F4E92FF0E0ED56FD4F208130E072
:100B70009F5F90938102C9010895809180029091B6
:100B80008102891B990B0895CF92DF92EF92FF9219
:100B90000F931F93CF93DF937C01CB018A012091A8
:100BA000DF02222389F0EB016B01C40ED51ECC15A8
:100BB000DD0569F06991D701ED91FC910190F0811B
:100BC000E02DC7011995F3CF642F0E947C03C80163
:100BD000DF91CF911F910F91FF90EF90DF90CF9019
:100BE0000895CF93DF931F92CDB7DEB7698320912D
:100BF000DF022223F9F020910203203258F021E095
:100C000030E0FC013383228390E080E00F90DF919D
:100C1000CF9108958091E002E82FF0E0EF51FD4F71
:100C2000998190838F5F8093E0028093020381E03B
:100C300090E0ECCF61E0CE0101960E947C03F7CFFB
:100C40000F931F93CF93DF93EC01142F052F89810E
:100C500091E09093DF02809301031092E0021092E2
:100C6000020380EA93E00E94F105602F80EA93E09E
:100C70000E94F105612F80EA93E00E94F1050E9435
:100C8000E2038883DF91CF911F910F9108951F9305
:100C9000CF93DF93EC01142F898191E09093DF02D1
:100CA000809301031092E0021092020380EA93E025
:100CB0000E94F105612F80EA93E00E94F1050E94F5
:100CC000E2038883DF91CF911F91089590E080E047
:100CD0000895CF93DF93EB01FC01808591E0909321
:100CE000DF02809301031092E0021092020360E49D
:100CF00080EA93E00E94F105BE0184E07595679556
:100D00008A95E1F780EA93E00E94F1056C2F6295E5
:100D1000607F80EA93E00E94F105DF91CF910C940F
:100D2000E203FC0184810C94F4014F925F926F9274
:100D30007F92AF92BF92CF92DF92EF92FF920F938A
:100D40001F93CF93DF938C015B017A01DC011D9629
:100D5000CD91DC911E971996CD90DC90CC0EDD1EC6
:100D6000CC16DD0659F10E943C0260930B03709390
:100D70000C0380930D0390930E0383E093E00E9495
:100D8000840297FF41C00E943C0240900B035090A8
:100D90000C0360900D0370900E03641975098609A9
:100DA00097094090070350900803609009037090E2
:100DB0000A036415750586059705F8F2D8011D9696
:100DC000ED91FC911E97808190E0F50191838083E5
:100DD0001D96ED91FC91818190E0982F88272281CA
:100DE000820F911DD7018D939C93DF91CF911F911D
:100DF0000F91FF90EF90DF90CF90BF90AF907F90DA
:100E00006F905F904F9008958993AACFE3E0F3E04D
:100E1000A089B18982E08C93A485B5851C92A685B2
:100E2000B78580E18C93108EA489B58986E08C9378
:100E3000A289B3898C9180618C93A289B3898C91AA
:100E400088608C93A289B3898C9180688C93028886
:100E5000F389E02D80818F7D808310928102109232
:100E600080021092E002109202030E94A30388E91C
:100E700095E090935A028093590289E995E0909306
:100E80005E0280935D020895CF93DF93EC01898128
:100E900091E09093DF02809301031092E0021092A0
:100EA000020380EA93E00E94F1050E94E203888336
:100EB00062E089810E94C9041092810280938002BD
:100EC00080EA93E00E94AA05D82F80E0C82F80EA2C
:100ED00093E00E94AA058C2B9D2BDF91CF91089562
:100EE000CF93DF93EC01898191E09093DF028093AF
:100EF00001031092E0021092020380EA93E00E9444
:100F0000F1050E94E203888361E089810E94C9049F
:100F1000109281028093800280EA93E00E94AA05E9
:100F2000DF91CF910895CF93DF93EC01462F41607D
:100F300060E00E9447060E943C027E836D8363E16D
:100F4000CE010E947007877089F48A819B81892B6A
:100F5000B1F30E943C022D813E81621B730B8A819A
:100F60009B818617970758F780E00BC041E06BE044
:100F7000CE010E94470640E060E0CE010E94470695
:100F800081E0DF91CF9108958F929F92AF92BF92AF
:100F9000CF92DF92EF92FF920F931F93CF93DF9345
:100FA0006C017B01EA0160E50E9470078F5F880F8A
:100FB00090E09983888366E4C6010E947007082F39
:100FC00010E00F5F1F4F1D830C83A881B0E020E06D
:100FD0003FE24AE350E00E9460116C507E4F8F4F19
:100FE0009F4F38EE832E33E0932EA12CB12CA50118
:100FF00094010E947A11D8010E94A4116C507E4F76
:101000008F4F9F4FA50194010E947A112A873B8739
:101010004C875D8761E5C6010E9444078C0111275A
:1010200002C0000F111F9A95E2F70F5F1F4F1F8339
:101030000E83A881B0E020E03FE24AE350E00E9446
:1010400060116C507E4F8F4F9F4FA50194010E94FD
:101050007A11D8010E9460116C507E4F8F4F9F4FC4
:10106000A50194010E947A112E873F87488B598BE6
:1010700060E7C6010E9470078F5F880F90E09B8336
:101080008A8361E7C6010E9444079C01992702C038
:10109000880F991F3A95E2F7019699878887F7019B
:1010A0002381222331F02E813F81821B930B99876C
:1010B0008887AA81B0E020E03FE24AE350E00E9446
:1010C00060116C507E4F8F4F9F4F28EEC22E23E051
:1010D000D22EE12CF12CA70196010E947A11A8854D
:1010E000B9850E9460116C507E4F8F4F9F4FA701B2
:1010F00096010E947A112A8B3B8B4C8B5D8BDF9182
:10110000CF911F910F91FF90EF90DF90CF90BF9004
:10111000AF909F908F900895CF93DF93EB0161E0A4
:101120000E94700784FB992790F9988383FB992785
:1011300090F99A8382FB992790F9998386FB9927E6
:1011400090F99B83881F8827881F8C83DF91CF911C
:1011500008952F923F924F925F926F927F928F925B
:101160009F92AF92BF92CF92DF92EF92FF920F9336
:101170001F93CF93DF93CDB7DEB76B970FB6F8947D
:10118000DEBF0FBECDBF8C014A015B01BE01695EAF
:101190007F4F0E948C08AE014F5F5F4FBE01695EBA
:1011A0007F4FC8010E94C4078F89882309F494C027
:1011B0008B859C85AD85BE858C57924FAF4FBF4FB9
:1011C000298D222309F48DC04B855C856D857E8534
:1011D0004E545D4F6F4F7F4F440F551F661F771F53
:1011E000840F951FA61FB71F3A8C332061F04F85DF
:1011F000588969897A894C565D4F6F4F7F4F840FAC
:10120000951FA61FB71F2B8C222009F4A1C06C01CB
:101210007D0126E2C20E22E0D21EE11CF11C8C14DC
:101220009D04AE04BF0408F496C0AB81B0E020E09A
:101230003FE24AE350E00E9460112B013C01E4EFE1
:101240004E0EE1E05E1E611C711CA50194012C197B
:101250003D094E095F09A8EEB3E00E9460116B01E1
:101260007C01C301B20120ED37E040E050E00E9474
:101270007A11C20ED31EE41EF51EC301B20128EE80
:1012800033E040E050E00E947A11C701B6010E94AD
:101290007A11332031F08F819885280F391F411D35
:1012A000511D211531054105510509F44EC0BA0102
:1012B000A901415051096109710990E080E02A01BA
:1012C0003B014424452846284728C1F07695679578
:1012D000579547950196F3CF86E39BE0A0E0B0E0F9
:1012E0006FCF288D222309F47FCF4B855C856D85D8
:1012F0007E854C565D4F6F4F7F4F72CF982F88275A
:10130000482B592B61E7C8010E942006F80180860E
:101310009186A286B386822D6B960FB6F894DEBFB7
:101320000FBECDBFDF91CF911F910F91FF90EF9036
:10133000DF90CF90BF90AF909F908F907F906F90F5
:101340005F904F903F902F90089550E040E0DACFAB
:1013500022242394E0CF212CDECF0F931F93CF9331
:10136000DF93EC010E943C027E836D8363E1CE013A
:101370000E9470078770C9F48A819B81892BB1F321
:101380000E943C022D813E81621B730B8A819B81EE
:101390008617970758F781E08C830FEF1FEFC8017E
:1013A000DF91CF911F910F9108956EE1CE010E94C0
:1013B00044078C0141E06BE0CE010E944706EFCF6D
:1013C00045960C94AD098F929F92AF92BF92CF92A7
:1013D000DF92EF92FF920F931F93CF93DF93CDB7DE
:1013E000DEB7A1970FB6F894DEBF0FBECDBF7C016C
:1013F0000E940607D701ED91FC910680F781E02D50
:1014000070E060E0C70119951092000287010B5E41
:101410001F4F60ECC8010E9470078E3E09F0A0C00B
:1014200069E8C8010E947007482F416069E8C80157
:101430000E94470640E068E8C8010E94470641E074
:1014400060E8C8010E94470641E06FEFC8010E94B2
:10145000470640E060E0C8010E94470661E9C80114
:101460000E947007F701848F41E060E0C8010E948C
:10147000470640E06FEFC8010E94470640E060E881
:10148000C8010E94470660E6C8010E947007482F05
:10149000426160E6C8010E94470640E250E064E411
:1014A000C8010E9420064FEF61E0C8010E94470674
:1014B00041E060E8C8010E94470641E06FEFC801C3
:1014C0000E94470640E060E0C8010E94470646E0EF
:1014D0006FEFC8010E94470663E8C8010E947007C9
:1014E000482F446063E8C8010E94470647E06FEF59
:1014F000C8010E94470641E061E8C8010E94470612
:1015000041E060E8C8010E9447064BE664E9C80173
:101510000E94470640E063E8C8010E9447060E9417
:101520003C02D7015B967C936E935A9763E8C8019F
:101530000E947007811157C0F7018789908D892B10
:10154000A9F30E943C02D7015A962D913C915B97DA
:10155000621B730B57968D919C918617970730F7F6
:1015600040E25EE460E070E0C8010E94A90841E04A
:1015700060E8C8010E94470641E06FEFC8010E9481
:10158000470640E060E0C8010E944706F701448D2D
:1015900061E9C8010E94470641E060E0C8010E947D
:1015A000470640E06FEFC8010E94470640E060E850
:1015B000C8010E94470642E060E0C8010E94470659
:1015C000A1960FB6F894DEBF0FBECDBFDF91CF91CD
:1015D0001F910F91FF90EF90DF90CF90BF90AF9051
:1015E0009F908F90089541E063E8C8010E944706EC
:1015F00062E9C8010E947007A82E40E061E8C801B6
:101600000E94470646E06FEFC8010E94470663E864
:10161000C8010E947007482F4B7F63E8C8010E94F1
:10162000470641E06FEFC8010E94470641E060E0D5
:10163000C8010E94470640E06FEFC8010E944706BC
:1016400040E060E8C8010E944706F701868991E002
:101650009093DF02809301031092E0021092020344
:1016600060EB80EA93E00E94F1050E94E203D7015B
:1016700055968C93559766E056968C910E94C904B6
:1016800010928102809380026E01B7E1CB0ED11CD3
:10169000460147E0B42EBA94BB2041F080EA93E0C3
:1016A0000E94AA05F40181934F01F5CF41E06FEF4D
:1016B000C8010E94470640E06FE4C8010E94470647
:1016C0004CE26EE4C8010E94470640E06FEFC8019B
:1016D0000E94470644EB66EBC8010E944706BCE047
:1016E000A7FEB0E0A0E090E061E070E08A2D8F7787
:1016F000E92FE695E695E695AE2EB12C96012A0DDA
:101700003B1DF9012081492F47709B1710F08A1368
:101710002EC0F501EC0DFD1D5B0102C0AA0CBB1C27
:101720004A95E2F7A5014095242320839F5F9033DB
:10173000F9F6D70156968C9191E09093DF02809351
:1017400001031092E0021092020360EB80EA93E042
:101750000E94F10537E0B32EBA94BB2091F0F60158
:1017600061916F0180EA93E00E94F105F5CF30E0CE
:1017700002C0359527954A95E2F720FFD7CFAF5F96
:10178000D5CF0E94E203D70155968C9341E06FEFCD
:10179000C8010E94470640E060E0C8010E94470679
:1017A00040E06FEFC8010E94470640E069E0C801D1
:1017B0000E94470640E060E1C8010E94470640E001
:1017C00061E1C8010E94470641E064E2C8010E944D
:1017D00047064FEF65E2C8010E94470640E065E713
:1017E000C8010E94470641E06FEFC8010E9447060A
:1017F0004CE26EE4C8010E94470640E068E4C8017C
:101800000E94470640E260E3C8010E94470640E0AC
:101810006FEFC8010E94470649E060E3C8010E94DB
:10182000470640E064E5C8010E94470644E061E3E2
:10183000C8010E94470643E062E3C8010E944706D0
:1018400043E860E4C8010E94470645E266E4C80137
:101850000E94470640E060E6C8010E94470640E05B
:1018600067E2C8010E94470646E060E5C8010E94A1
:10187000470640E061E5C8010E94470646E962E587
:10188000C8010E94470648E066E5C8010E94470675
:1018900040E367E5C8010E94470640E061E6C801F1
:1018A0000E94470640E062E6C8010E94470640E009
:1018B00064E6C8010E94470640E065E6C8010E9450
:1018C000470640EA66E6C8010E94470641E06FEF1E
:1018D000C8010E94470642E362E2C8010E9447062F
:1018E00044E167E4C8010E9447064FEF69E4C8017C
:1018F0000E94470640E06AE4C8010E94470640E0B3
:101900006FEFC8010E9447064AE06AE7C8010E94DB
:10191000470640E06BE7C8010E94470641E268E7DE
:10192000C8010E94470641E06FEFC8010E944706C8
:1019300044E363E2C8010E94470640E062E4C80154
:101940000E9447064FEF64E4C8010E94470646E242
:1019500065E4C8010E94470645E066E4C8010E94AC
:10196000470640E460E4C8010E94470646E06EE096
:10197000C8010E9447064AE160E2C8010E9447068A
:1019800040E463E4C8010E94470640E06FEFC801ED
:101990000E94470643E064E3C8010E94470644E40E
:1019A00065E3C8010E94470641E06FEFC8010E944D
:1019B000470644E061E3C8010E94470649E06BE442
:1019C000C8010E94470645E06CE4C8010E94470632
:1019D00044E06DE4C8010E94470640E06FEFC80193
:1019E0000E94470640E064E4C8010E94470640E2C6
:1019F00065E4C8010E94470648E067E4C8010E9408
:101A0000470648E268E4C8010E94470640E067E6EE
:101A1000C8010E94470644E060E7C8010E944706EB
:101A200041E061E7C8010E9447064EEF62E7C80146
:101A30000E94470640E066E7C8010E94470640E072
:101A400067E7C8010E94470641E06FEFC8010E94A6
:101A5000470641E06DE0C8010E94470640E06FEF95
:101A6000C8010E94470641E060E8C8010E9447069D
:101A700048EF61E0C8010E94470641E06FEFC801EE
:101A80000E94470641E06EE8C8010E94470641E017
:101A900060E0C8010E94470640E06FEFC8010E9465
:101AA000470640E060E8C8010E94470644E06AE05B
:101AB000C8010E94470664E8C8010E947007482FC9
:101AC0004F7E64E8C8010E94470641E06BE0C80110
:101AD0000E944706BE01635E7F4FC8010E948C08CA
:101AE000AE014F5F5F4FBE01635E7F4FC8010E9432
:101AF000C4078D8D882309F472C08B859C85AD85C4
:101B0000BE858C57924FAF4FBF4F2F8D222309F4C4
:101B10006BC04B855C856D857E854E545D4F6F4FE8
:101B20007F4F440F551F661F771F840F951FA61FF9
:101B3000B71F28A1222361F04F85588969897A89C6
:101B40004C565D4F6F4F7F4F840F951FA61FB71FD9
:101B500029A1222361F04B895C896D897E894A5DC8
:101B60005D4F6F4F7F4F840F951FA61FB71FF70163
:101B7000858F968FA78FB0A348EE61E0C8010E94C1
:101B80004706D7015D964D915D916D917C9190973F
:101B90004032BEE45B076105710518F0C8010E9480
:101BA000A90841E061E0C8010E94470660E4C8015D
:101BB0000E949307882309F4D3CC42E061E0C80176
:101BC0000E94470660E0C8010E949307882309F439
:101BD000C7CC48EE61E0C8010E944706C1CC86E34D
:101BE0009BE0A0E0B0E091CF2E8D222309F4A1CF9D
:101BF0004B855C856D857E854C565D4F6F4F7F4F65
:101C000094CF85ED8093BC008091DB029091DC0243
:101C1000A091DD02B091DE020796A11DB11D23E067
:101C2000B695A795979587952A95D1F72091BC00F1
:101C300024FD03C01092D90208954091DB02509117
:101C4000DC026091DD027091DE02452B462B472BB2
:101C500069F30097A105B10541F02AE22A95F1F751
:101C600000C00197A109B109E1CF8091DA020C947B
:101C7000C1031F920F920FB60F9211242F933F931F
:101C80008F939F93AF93BF9380918B0290918C021F
:101C9000A0918D02B0918E0230918A0223E0230F31
:101CA0002D3758F50196A11DB11D20938A0280930E
:101CB0008B0290938C02A0938D02B0938E02809140
:101CC0008F0290919002A0919102B09192020196A0
:101CD000A11DB11D80938F0290939002A093910259
:101CE000B0939202BF91AF919F918F913F912F91AD
:101CF0000F900FBE0F901F90189526E8230F0296A5
:101D0000A11DB11DD2CF1F920F920FB60F921124B9
:101D10000BB60F922F933F934F935F936F937F93E5
:101D20008F939F93AF93BF93EF93FF9383E093E0E1
:101D30000E94BC02FF91EF91BF91AF919F918F9153
:101D40007F916F915F914F913F912F910F900BBEBB
:101D50000F900FBE0F901F9018951F920F920FB605
:101D60000F9211240BB60F922F938F939F93EF93A3
:101D7000FF93E0911303F09114038081E091190324
:101D8000F0911A0382FD1DC0908180911C038F5F2A
:101D90008F7320911D03821741F0E0911C03F0E046
:101DA000ED5FFC4F958F80931C03FF91EF919F9106
:101DB0008F912F910F900BBE0F900FBE0F901F9021
:101DC00018958081F2CF1F920F920FB60F921124B7
:101DD0000BB60F922F933F934F935F936F937F9325
:101DE0008F939F93AF93BF93EF93FF938091B9002D
:101DF000887F803609F44DC008F040C0883209F46D
:101E0000A9C028F5803109F49DC0C8F4882309F4DD
:101E1000FBC0883009F496C0FF91EF91BF91AF915C
:101E20009F918F917F916F915F914F913F912F91F2
:101E30000F900BBE0F900FBE0F901F90189588311A
:101E400009F488C0803241F78093D70214C08034EF
:101E500009F49DC040F48033B9F38833E9F68093E8
:101E6000D70285ECB0C0803509F485C0883509F407
:101E700096C0883489F60E94010ECECF883909F4C5
:101E80008CC038F5883729F050F4883611F0803747
:101E900019F683E08093D90210927F0257C08838E8
:101EA00009F47BC0803919F0803809F0B5CF8091F2
:101EB0007F02803208F071C0E0917F0281E08E0FD6
:101EC00080937F028091BB00F0E0E15AFD4F808358
:101ED0003DC0803B39F0E0F4803A09F479C0883A9B
:101EE00009F09ACF84E08093D90210925C0210929C
:101EF0005B02E0915902F0915A02199580915B02C0
:101F000081110FC081E080935B021092390209C0F9
:101F1000803C09F4A6CF883C09F4A3CF883B09F0A4
:101F20007BCFE0915C0281E08E0F80935C02F0E059
:101F3000E75CFD4F80818093BB0090915C028091B3
:101F40005B0229C08091B4028093BB0085EC809332
:101F5000BC0062CF9091D6028091D502981758F5B7
:101F6000E091D60281E08E0F8093D602F0E0EB5430
:101F7000FD4F8081E9CFE091D60281E08E0F809302
:101F8000D6028091BB00F0E0EB54FD4F808390912E
:101F9000D6028091D5029817C8F285E8D8CFE09193
:101FA000D60281E08E0F8093D6028091BB00F0E0D4
:101FB000EB54FD4F80838091D80281115CCF81E08A
:101FC0008093B30284EA8093BC001092D90224CF9C
:101FD00085EC8093BC001092D90280917F02803200
:101FE00030F4E0917F02F0E0E15AFD4F1082609101
:101FF0007F0270E0E0915D02F0915E028FE592E079
:10200000199510927F0208CF1092D70234CFCF9348
:10201000DF93E3E0F3E01382128288EE93E0A0E026
:10202000B0E084839583A683B7832BE032E03183CD
:10203000208325EC30E03587248724EC30E0378797
:10204000268720EC30E0318B208B21EC30E0338B85
:10205000228B22EC30E0358B248B26EC30E0378B62
:10206000268B118E128E138E148EE0EAF3E013820B
:10207000128284839583A683B7838DE192E0918356
:102080008083CCEAD3E086E390E09B838A831D8241
:102090001C821F821E8280E6888783E090E09A87F8
:1020A00089879C878B870E94AC119E878D8783E0F0
:1020B00090E00E94AC11988B8F8781E090E09A8B22
:1020C000898B86E48B8B8CE48C8B8FE292E09983F6
:1020D000888389E28E8B188E1F8A198EDF91CF91AB
:1020E0000895789484B5826084BD84B5816084BD90
:1020F00085B5826085BD85B5816085BD80916E00A6
:10210000816080936E0010928100809181008260D6
:102110008093810080918100816080938100809113
:1021200080008160809380008091B1008460809302
:10213000B1008091B00081608093B00080919100E7
:1021400082608093910080919100816080939100E2
:10215000809190008160809390008091A1008260C6
:102160008093A1008091A10081608093A100809163
:10217000A00081608093A000809121018260809303
:1021800021018091210181608093210180912001B2
:1021900081608093200180917A00846080937A002E
:1021A00080917A00826080937A0080917A008160C9
:1021B00080937A0080917A00806880937A001092F0
:1021C000C1008CEA93E00E94E30983E093E00E945F
:1021D000A60218161906B4F546E852E068E872E05F
:1021E0008CEA93E00E949506809188029091890282
:1021F0008130910551F18230910509F45AC0892B43
:10220000A9F4E091BB03F091BC038091BD038083EE
:10221000E091BB03F091BC038091BF038183E09107
:10222000BB03F091BC038091C00382834091B7034C
:102230005091B8036091BB037091BC0383E093E0BD
:102240000E9448020E944B03C0CF609186027091A9
:1022500087028CEA93E00E94690681EC93E00E9479
:10226000AD0990938502809384028091AE030E9411
:10227000F4019093830280938202E091BB03F0917A
:10228000BC0324E0959587952A95E1F7807F90918E
:102290008502890F8083E091BB03F091BC0380919C
:1022A00082028183E091BB03F091BC0380918402A0
:1022B000BCCF70E060E08CEA93E00E946906B6CF84
:1022C0000E946B11A59F900DB49F900DA49F800D4F
:1022D000911D11240895A29FB001B39FC001A39F37
:1022E000700D811D1124911DB29F700D811D11244F
:1022F000911D0895A1E21A2EAA1BBB1BFD010DC062
:10230000AA1FBB1FEE1FFF1FA217B307E407F507A5
:1023100020F0A21BB30BE40BF50B661F771F881F81
:10232000991F1A9469F760957095809590959B0117
:10233000AC01BD01CF010895EE0FFF1F881F8BBFB9
:102340000790F691E02D1994B7FF0C9460110E944C
:102350006011821B930B08950F931F93CF93DF930C
:102360008230910510F482E090E0E091CF03F0918B
:10237000D00330E020E0B0E0A0E0309799F42115E0
:10238000310509F44AC0281B390B24303105D8F532
:102390008A819B816115710589F1FB019383828399
:1023A000FE0111C0408151810281138148175907F4
:1023B000E0F04817590799F4109761F012960C93C2
:1023C000129713961C933296CF01DF91CF911F91F4
:1023D0000F9108950093CF031093D003F4CF2115EC
:1023E000310551F04217530738F0A901DB019A017A
:1023F000BD01DF01F801C1CFEF01F9CF9093D00308
:102400008093CF03CDCFFE01E20FF31F8193919311
:102410002250310939832883D7CF2091CD033091C1
:10242000CE03232B41F42091030230910402309318
:10243000CE032093CD032091010230910202211599
:10244000310541F42DB73EB7409105025091060287
:10245000241B350BE091CD03F091CE03E217F30777
:10246000A0F42E1B3F0B2817390778F0AC014E5F04
:102470005F4F2417350748F04E0F5F1F5093CE0370
:102480004093CD03819391939FCFF0E0E0E09CCF08
:10249000CF93DF930097E9F0FC0132971382128209
:1024A000A091CF03B091D003ED0130E020E0109770
:1024B000A1F420813181820F931F2091CD033091AF
:1024C000CE032817390709F061C0F093CE03E093DB
:1024D000CD03DF91CF910895EA01CE17DF07E8F52C
:1024E0004A815B819E0141155105B1F7E901FB83EA
:1024F000EA8349915991C40FD51FEC17FD0761F488
:10250000808191810296840F951FE90199838883C8
:10251000828193819B838A83F0E0E0E012968D9123
:102520009C9113970097B9F52D913C911197CD018E
:102530000296820F931F2091CD033091CE0328176E
:10254000390739F6309751F51092D0031092CF0326
:10255000B093CE03A093CD03BCCFD383C28340817D
:102560005181840F951FC817D90761F44E5F5F4FE3
:1025700088819981480F591F518340838A819B81AB
:10258000938382832115310509F0B0CFF093D003F6
:10259000E093CF039ECFFD01DC01C0CF13821282F6
:0625A000D7CFF894FFCF35
:1025A600010000D103800000000000DE0248027531
:1025B600022B03A6028402980200000000F105C463
:1025C6000566069A05BD05AA059B0500000000E301
:0825D600099506E00969060001
:00000001FF
