:100000000C9435010C9466010C9466010C94660105
:100010000C9466010C9466010C9466010C946601C4
:100020000C9466010C9466010C9466010C946601B4
:100030000C9466010C9466010C9466010C946601A4
:100040000C9466010C9466010C9466010C94660194
:100050000C9466010C9466010C9466010C945A068B
:100060000C9466010C94CE060C94A4060C946601C4
:100070000C9466010C9466010C9466010C94660164
:100080000C9466010C9466010C9466010C94660154
:100090000C9466010C9466010C9466010C940407A0
:1000A0000C9466010C9466010C9466010C94660134
:1000B0000C9466010C9466010C9466010C94660124
:1000C0000C9466010C9466010C9466010C94660114
:1000D0000C9466010C9466010C9466010C94660104
:1000E0000C9466010C94B7010C949D010C94B3011F
:1000F0000C94D2010C94FB030C9402040C949A020D
:100100000C948C020C94E4010C94BB010C942F040D
:100110000C945F050C94EE010C94E0010C94D60154
:100120000C9469020C9428080C941D060C941F036F
:100130000C94E8030C94BE010C94C4010C94D603F7
:100140000C94D8030C94DC010C9478020C94D20229
:100150000C9498010C94C8010C94D7030C943C02A5
:100160000C94EA010C9463050C94AF010C94D90330
:100170000C9461040C94CE010C945E0400002200E7
:10018000250028002B002E00310034000201000061
:10019000050108010B010505050507050808080804
:1001A000020202020A0A080804040404010101010F
:1001B000010101010303030303030303040707070A
:1001C0000C0C0C0C0C0C0C0C0202020206060606AF
:1001D000060606060B0B0B0B0B0B0B0B010210207C
:1001E000200808102040102040800201020108046D
:1001F0000201010204081020408080402010080401
:100200000201800402018040201008040201080459
:10021000020101020408102040800102040810209D
:10022000408000000A0B02090C0D0E0807030401B0
:1002300000000000000000000000000000000000BE
:10024000000000000000000000000000000012118B
:10025000100000000000000000000000000000008E
:100260000000000000000000280811241FBECFEF8E
:10027000D1E2DEBFCDBF00E00CBF23E0A8E3B2E0D7
:1002800001C01D92A53CB207E1F712E0A0E0B2E088
:10029000EAE5F5E100E00BBF02C007900D92A8333C
:1002A000B107D9F711E0C5E3D1E000E006C021971E
:1002B0000109802FFE010E947E09C433D10780E02E
:1002C0000807A9F70E948F080C94AB0A0C94000051
:1002D000282F30E0F901EE5DFD4F9491F901E452D1
:1002E000FE4F44912A563E4FF9012491222309F4EE
:1002F00035C0992311F191509231F8F4E92FF0E0D3
:100300008827EA57FE4F8F4F0C947E09B701BB0137
:100310009801AF01B3019D01BE01C401C801CE0126
:10032000D201D601DC01E0019D01E401EA01EE0108
:10033000809180008F7780938000E22FF0E0EE0FB5
:10034000FF1FE458FE4FA591B4918FB7F894EC913C
:10035000611148C040954E234C938FBF0895809102
:1003600080008F7DE8CF80918000877FE4CF84B5C7
:100370008F7784BDE2CF84B58F7DFBCF8091B000B5
:100380008F778093B000D9CF8091B0008F7DF9CF67
:10039000809190008F7780939000CFCF80919000D4
:1003A0008F7DF9CF80919000877FF5CF8091A0005D
:1003B0008F778093A000C1CF8091A0008F7DF9CF6F
:1003C0008091A000877FF5CF809120018F77809367
:1003D0002001B3CF809120018F7DF9CF8091200142
:1003E000877FF5CF4E2BB8CF863308F08653209108
:1003F0007B00982F9870277F922B90937B00209101
:10040000000290E4299F900111248770822B809331
:100410007C0080917A00806480937A0080917A00D9
:1004200086FDFCCF809178009091790008953FB7C8
:10043000F8948091FF0290910003A0910103B09184
:10044000020326B5A89B05C02F3F19F00196A11DF8
:10045000B11D3FBFBA2FA92F982F8827BC01CD010E
:10046000620F711D811D911D42E0660F771F881F6D
:10047000991F4A95D1F70895AF92BF92CF92DF921C
:10048000EF92FF920F931F93CF93DF936C017B0149
:100490008B01040F151FEB015E01AE18BF08C017DA
:1004A000D10759F06991D601ED91FC910190F0814D
:1004B000E02DC6011995892B79F7C501DF91CF9100
:1004C0001F910F91FF90EF90DF90CF90BF90AF9072
:1004D0000895FC01538D448D252F30E0842F90E04A
:1004E000821B930B541710F0CF960895019708952F
:1004F000FC01918D828D981761F0A28DAE0FBF2FF8
:10050000B11D5D968C91928D9F5F9F73928F90E04D
:1005100008958FEF9FEF0895FC01918D828D9817BC
:1005200031F0828DE80FF11D858D90E008958FEFF9
:100530009FEF0895FC01918D228D892F90E0805CC2
:100540009F4F821B91098F739927089583E093E051
:100550000E949A0221E0892B09F420E0822F08955D
:10056000FC01A48DA80FB92FB11DA35ABF4F2C9128
:10057000848D90E001968F739927848FA689B7891F
:100580002C93A089B1898C91837080648C93938D16
:10059000848D981306C00288F389E02D80818F7DB9
:1005A00080830895EF92FF920F931F93CF93DF9371
:1005B000EC0181E0888F9B8D8C8D98131AC0E8899F
:1005C000F989808185FF15C09FB7F894EE89FF896E
:1005D0006083E889F98980818370806480839FBF0C
:1005E00081E090E0DF91CF911F910F91FF90EF900C
:1005F0000895F62E0B8D10E00F5F1F4F0F7311271C
:10060000E02E8C8D8E110CC00FB607FCFACFE88956
:10061000F989808185FFF5CFCE010E94B002F1CF2C
:10062000EB8DEC0FFD2FF11DE35AFF4FF0829FB7CA
:10063000F8940B8FEA89FB8980818062CFCFCF93BA
:10064000DF93EC01888D8823B9F0AA89BB89E889FA
:10065000F9898C9185FD03C0808186FD0DC00FB6A0
:1006600007FCF7CF8C9185FFF2CF808185FFEDCF1E
:10067000CE010E94B002E9CFDF91CF91089580E0D2
:1006800090E0892B29F00E94A60281110E940000AF
:1006900080E090E0892B49F080E090E0892B29F000
:1006A0000E94000081110E94000080E090E0892BF0
:1006B00049F080E090E0892B29F00E940000811130
:1006C0000E94000080E090E0892B49F080E090E0FB
:1006D000892B29F00E94000081110C9400000895DC
:1006E0002091A602260F3327331F21323105ECF467
:1006F0002091CC02FC0190E080E0243069F082E09F
:100700000895A091A6022191AC014C575D4FA40F12
:10071000B52FB11D2C930196861798F38091A602F0
:10072000680F6093A60280E0089581E0089510921A
:10073000CC0281E08093CE021092CD0261E084E190
:100740000E94680161E085E10E946801E9EBF0E048
:1007500080818E7F808380818D7F808388E48093F9
:10076000B80085E48093BC000895CF93DF9391E0B7
:10077000909383028823B9F0C091B800D091BA0059
:100780008091BC008A7B8093BC0060E084E10E9481
:10079000680160E085E10E9468010E949703D093A0
:1007A000BA00C093B800DF91CF91089508950895DD
:1007B0000895E0917B0280917A02E81730F4F0E02E
:1007C000E65AFD4F808190E008958FEF9FEF0895E6
:1007D00090917B0280917A022FEF3FEF981748F4B7
:1007E000E92FF0E0E65AFD4F208130E09F5F9093C3
:1007F0007B02C901089580917A0290917B02891B46
:10080000990B0895CF92DF92EF92FF920F931F936F
:10081000CF93DF937C01CB018A01209159022223DF
:1008200089F0EB016B01C40ED51ECC15DD0569F016
:100830006991D701ED91FC910190F081E02DC70104
:100840001995F3CF642F0E947003C801DF91CF91F7
:100850001F910F91FF90EF90DF90CF900895CF936D
:10086000DF931F92CDB7DEB769832091590222230F
:10087000F9F020917C02203258F021E030E0FC01B8
:100880003383228390E080E00F90DF91CF91089531
:1008900080917D02E82FF0E0E75CFD4F9981908325
:1008A0008F5F80937D0280937C0281E090E0ECCFAB
:1008B00061E0CE0101960E947003F7CF90E080E0E6
:1008C00008958F929F92AF92BF92CF92DF92EF9254
:1008D000FF920F931F93CF938B01FC01C08581E0A2
:1008E00080935902C093380210927D0210927C02CC
:1008F00060E480EA93E00E942F04B80184E07595DB
:1009000067958A95E1F780EA93E00E942F04602FB3
:100910006295607F80EA93E00E942F0410917C0230
:10092000113208F092C00E9417026B017C01809185
:10093000CC02811165C082E08093CC0281E080937B
:10094000CE028FEF8093CB021092F0021093EF0251
:10095000A9E3B2E0EFECF2E080E0181388C0109257
:10096000F1028091F102CC0FC82BC093F10280916B
:10097000CD02813009F07FC01092CD020E94170293
:100980006B017C018091F1028093BB0080917F021A
:1009900090918002A0918102B0918202892B8A2BD2
:1009A0008B2B99F00E94170200917F021091800218
:1009B00020918102309182026C197D098E099F0974
:1009C0000617170728073907E0F18091BC0083FD5F
:1009D000D9CF85EC8093BC000E9417026B017C018B
:1009E0008091CC02823009F448C08091CB028F3FC5
:1009F00061F18091CB02803241F18091CB0225C020
:100A000080917F0290918002A0918102B091820238
:100A1000892B8A2B8B2B09F48ACF0E941702809096
:100A20007F0290908002A0908102B09082026C19A7
:100A30007D098E099F0986169706A806B90608F053
:100A400076CF80917E020E94B50310927D021092B3
:100A50007C0210925902CF911F910F91FF90EF905D
:100A6000DF90CF90BF90AF909F908F9008959D9111
:100A700091938F5F72CF85EEADCF80917F02909181
:100A80008002A0918102B0918202892B8A2B8B2B4C
:100A900009F4A6CF0E94170200917F0210918002F4
:100AA00020918102309182026C197D098E099F0983
:100AB000061717072807390708F092CFC2CFFC01A5
:100AC00084810C94F401AF92BF92CF92DF92EF92A7
:100AD000FF920F931F93CF93DF938C015B017A01F9
:100AE000DC011D96CD91DC911E971996CD90DC907E
:100AF000CC0EDD1ECC16DD0609F43DC02FB7F894F0
:100B00008091FB029091FC02A091FD02B091FE0247
:100B10002FBF80930B0390930C03A0930D03B0930E
:100B20000E0383E093E00E94780297FF46C02FB740
:100B3000F8948091FB029091FC02A091FD02B0918B
:100B4000FE022FBF40910B0350910C0360910D03E7
:100B500070910E03841B950BA60BB70B40910703F6
:100B6000509108036091090370910A038417950757
:100B7000A607B707B0F2D8011D96ED91FC911E971C
:100B8000808190E0F501918380831D96ED91FC9129
:100B9000818190E0982F88272281820F911DD701B3
:100BA0008D939C93DF91CF911F910F91FF90EF90C8
:100BB000DF90CF90BF90AF90089589939BCFE3E0F3
:100BC000F3E0A089B18982E08C93A485B5851C925D
:100BD000A685B78580E18C93108EA489B58986E0BF
:100BE0008C93A289B3898C9180618C93A289B389FB
:100BF0008C9188608C93A289B3898C9180688C9346
:100C00000288F389E02D80818F7D808310927B02A2
:100C100010927A0210927D0210927C020E94970339
:100C200086ED93E09093A5028093A40287ED93E074
:100C30009093A9028093A80208950E94DF05109264
:100C40000002089585ED8093BC0080917F02909111
:100C50008002A0918102B09182020796A11DB11D70
:100C600023E0B695A795979587952A95D1F720917A
:100C7000BC0024FD03C01092CC02089540917F0275
:100C8000509180026091810270918202452B462B27
:100C9000472B69F30097A105B10541F02AE22A9597
:100CA000F1F700C00197A109B109E1CF80917E025F
:100CB0000C94B5031F920F920FB60F9211242F932D
:100CC0003F938F939F93AF93BF938091FB0290913B
:100CD000FC02A091FD02B091FE023091FA0223E0E5
:100CE000230F2D3758F50196A11DB11D2093FA024F
:100CF0008093FB029093FC02A093FD02B093FE024E
:100D00008091FF0290910003A0910103B091020332
:100D10000196A11DB11D8093FF0290930003A09343
:100D20000103B0930203BF91AF919F918F913F91C7
:100D30002F910F900FBE0F901F90189526E8230F4C
:100D40000296A11DB11DD2CF1F920F920FB60F9226
:100D500011240BB60F922F933F934F935F936F9392
:100D60007F938F939F93AF93BF93EF93FF9383E012
:100D700093E00E94B002FF91EF91BF91AF919F91DC
:100D80008F917F916F915F914F913F912F910F9034
:100D90000BBE0F900FBE0F901F9018951F920F92D1
:100DA0000FB60F9211240BB60F922F938F939F9330
:100DB000EF93FF93E0911303F09114038081E0918E
:100DC0001903F0911A0382FD1DC0908180911C03CC
:100DD0008F5F8F7320911D03821741F0E0911C03F8
:100DE000F0E0ED5FFC4F958F80931C03FF91EF9136
:100DF0009F918F912F910F900BBE0F900FBE0F9070
:100E00001F9018958081F2CF1F920F920FB60F920C
:100E100011240BB60F922F933F934F935F936F93D1
:100E20007F938F939F93AF93BF93EF93FF938091A3
:100E3000B900887F803609F44DC008F040C0883280
:100E400009F4A9C028F5803109F49DC0C8F48823AD
:100E500009F4FBC0883009F496C0FF91EF91BF916F
:100E6000AF919F918F917F916F915F914F913F9142
:100E70002F910F900BBE0F900FBE0F901F901895E3
:100E8000883109F488C0803241F78093CB0214C0C6
:100E9000803409F49DC040F48033B9F38833E9F617
:100EA0008093CB0285ECB0C0803509F485C08835CD
:100EB00009F496C0883489F60E942206CECF88397C
:100EC00009F48CC038F5883729F050F4883611F0D1
:100ED000803719F683E08093CC021092CA0257C083
:100EE000883809F47BC0803919F0803809F0B5CF13
:100EF0008091CA02803208F071C0E091CA0281E09C
:100F00008E0F8093CA028091BB00F0E0E655FD4F42
:100F100080833DC0803B39F0E0F4803A09F479C029
:100F2000883A09F09ACF84E08093CC021092A7020D
:100F30001092A602E091A402F091A5021995809169
:100F4000A60281110FC081E08093A6021092840254
:100F500009C0803C09F4A6CF883C09F4A3CF883BA4
:100F600009F07BCFE091A70281E08E0F8093A7026A
:100F7000F0E0EC57FD4F80818093BB009091A70279
:100F80008091A60229C08091F1028093BB0085EC7C
:100F90008093BC0062CF9091F0028091EF0298178D
:100FA00058F5E091F00281E08E0F8093F002F0E0BE
:100FB000E153FD4F8081E9CFE091F00281E08E0F97
:100FC0008093F0028091BB00F0E0E153FD4F8083FD
:100FD0009091F0028091EF029817C8F285E8D8CF7F
:100FE000E091F00281E08E0F8093F0028091BB00CF
:100FF000F0E0E153FD4F80838091CE0281115CCF00
:1010000081E08093CD0284EA8093BC001092CC02F0
:1010100024CF85EC8093BC001092CC028091CA0250
:10102000803230F4E091CA02F0E0E655FD4F1082C4
:101030006091CA0270E0E091A802F091A9028AEAE8
:1010400092E019951092CA0208CF1092CB0234CFC9
:10105000CF93DF93E3E0F3E01382128288EE93E014
:10106000A0E0B0E084839583A683B7832BE032E0D1
:101070003183208325EC30E03587248724EC30E071
:101080003787268720EC30E0318B208B21EC30E055
:10109000338B228B22EC30E0358B248B26EC30E036
:1010A000378B268B118E128E138E148EE0EAF3E0AE
:1010B0001382128284839583A683B7838DE192E0A5
:1010C00091838083CCEAD3E086E390E09B838A839C
:1010D00089E390E09D838C831F821E8280E688874F
:1010E00083E090E09A8789879C878B870E94860996
:1010F0009E878D8783E090E00E948609988B8F877A
:1011000081E090E09A8B898B8DE48B8B87E48C8BCC
:101110008FE292E099838883DF91CF91089578944C
:1011200084B5826084BD84B5816084BD85B58260EC
:1011300085BD85B5816085BD80916E00816080939D
:101140006E00109281008091810082608093810006
:101150008091810081608093810080918000816016
:10116000809380008091B10084608093B100809171
:10117000B00081608093B000809191008260809384
:101180009100809191008160809391008091900006
:101190008160809390008091A10082608093A10083
:1011A0008091A10081608093A1008091A000816066
:1011B0008093A00080912101826080932101809121
:1011C00021018160809321018091200181608093C1
:1011D000200180917A00846080937A0080917A0067
:1011E000826080937A0080917A00816080937A0097
:1011F00080917A00806880937A001092C1008CEA16
:1012000093E00E941D0683E093E00E949A02181664
:101210001906B4F546EF52E068EF72E08CEA93E00D
:101220000E9463058091F8029091F9028130910546
:1012300051F18230910509F45AC0892BA9F4E0914B
:10124000BB03F091BC038091BD038083E091BB039D
:10125000F091BC038091BF038183E091BB03F091C7
:10126000BC038091C00382834091B7035091B803BF
:101270006091BB037091BC0383E093E00E943C0249
:101280000E943F03C0CF6091F6027091F7028CEA92
:1012900093E00E9461048CEA93E00E945F059093C2
:1012A000F5028093F4028091AE030E94F4019093C2
:1012B000F3028093F202E091BB03F091BC0324E0BF
:1012C000959587952A95E1F7807F9091F502890F92
:1012D0008083E091BB03F091BC038091F202818393
:1012E000E091BB03F091BC038091F402BCCF70E0AD
:1012F00060E08CEA93E00E946104B6CFEE0FFF1F1E
:10130000881F8BBF0790F691E02D19940F931F93C0
:10131000CF93DF938230910510F482E090E0E0916A
:10132000C303F091C40330E020E0B0E0A0E03097C8
:1013300099F42115310509F44AC0281B390B2430D2
:101340003105D8F58A819B816115710589F1FB0111
:1013500093838283FE0111C04081518102811381F8
:1013600048175907E0F04817590799F4109761F0AA
:1013700012960C93129713961C933296CF01DF911D
:10138000CF911F910F9108950093C3031093C4034D
:10139000F4CF2115310551F04217530738F0A90158
:1013A000DB019A01BD01DF01F801C1CFEF01F9CFE7
:1013B0009093C4038093C303CDCFFE01E20FF31FCC
:1013C000819391932250310939832883D7CF20917B
:1013D000C1033091C203232B41F4209103023091C9
:1013E00004023093C2032093C10320910102309183
:1013F00002022115310541F42DB73EB74091050297
:1014000050910602241B350BE091C103F091C203F9
:10141000E217F307A0F42E1B3F0B2817390778F0CB
:10142000AC014E5F5F4F2417350748F04E0F5F1F2A
:101430005093C2034093C103819391939FCFF0E0F7
:10144000E0E09CCFCF93DF930097E9F0FC01329767
:1014500013821282A091C303B091C403ED0130E066
:1014600020E01097A1F420813181820F931F2091F9
:10147000C1033091C2032817390709F061C0F09306
:10148000C203E093C103DF91CF910895EA01CE1723
:10149000DF07E8F54A815B819E0141155105B1F7EF
:1014A000E901FB83EA8349915991C40FD51FEC17D9
:1014B000FD0761F4808191810296840F951FE901F7
:1014C00099838883828193819B838A83F0E0E0E023
:1014D00012968D919C9113970097B9F52D913C919F
:1014E0001197CD010296820F931F2091C103309175
:1014F000C2032817390739F6309751F51092C40303
:101500001092C303B093C203A093C103BCCFD38393
:10151000C28340815181840F951FC817D90761F498
:101520004E5F5F4F88819981480F591F51834083D7
:101530008A819B81938382832115310509F0B0CF85
:10154000F093C403E093C3039ECFFD01DC01C0CF41
:0A15500013821282D7CFF894FFCF68
:10155A00010000C503800000000000D2023C0269BD
:10156A00021F039A0278028C02000000002F040274
:10157A00045E04D803FB03E803D903000000001D3E
:08158A000663055F0561040022
:00000001FF
