:100000000C945D000C9485000C9485000C94850084
:100010000C9485000C9485000C9485000C9485004C
:100020000C9485000C9485000C9485000C9485003C
:100030000C9485000C9485000C9485000C9485002C
:100040000C9422070C9485000C9492070C946C0776
:100050000C9485000C9485000C9485000C9485000C
:100060000C94C4070C9485000000000800020100F5
:100070000003040700000000000000000000000072
:10008000250028002B0000000000240027002A0083
:10009000040404040404040402020202020203032E
:1000A0000303030301020408102040800102040836
:1000B0001020010204081020E30811241FBECFEF16
:1000C000D8E0DEBFCDBF22E0A6E3B1E001C01D92C3
:1000D000A83DB207E1F711E0A0E0B1E0E4ECF6E101
:1000E00002C005900D92A633B107D9F710E0CDE517
:1000F000D0E004C02197FE010E94350ACC35D1071B
:10010000C9F70E946A090C94600B0C94000090E0FF
:10011000FC01EC55FF4F249180579F4FFC018491C7
:10012000882399F090E0880F991FFC01EA57FF4F50
:10013000A591B491FC01E458FF4F859194918FB73C
:10014000F894EC91E22BEC938FBF089590E0FC01C2
:10015000E859FF4F2491FC01EC55FF4F3491FC010D
:10016000E057FF4FE491EE23C9F0222339F023300A
:1001700001F1A8F4213019F1223029F1F0E0EE0F5D
:10018000FF1FE458FF4FA591B4918FB7F894EC91FD
:10019000611126C030953E233C938FBF08952730D0
:1001A000A9F02830C9F0243049F7809180008F7D74
:1001B00003C0809180008F7780938000DFCF84B56B
:1001C0008F7784BDDBCF84B58F7DFBCF8091B0006E
:1001D0008F778093B000D2CF8091B0008F7DF9CF20
:1001E0003E2BDACF8E3008F08E508770806480937B
:1001F0007C0080917A00806480937A0080917A00FC
:1002000086FDFCCF809178009091790008953FB7EA
:10021000F8948091A9019091AA01A091AB01B091AD
:10022000AC0126B5A89B05C02F3F19F00196A11D72
:10023000B11D3FBFBA2FA92F982F8827BC01CD0130
:10024000620F711D811D911D42E0660F771F881F8F
:10025000991F4A95D1F70895AF92BF92CF92DF923E
:10026000EF92FF920F931F93CF93DF936C017B016B
:100270008B01040F151FEB015E01AE18BF08C017FC
:10028000D10759F06991D601ED91FC910190F0816F
:10029000E02DC6010995892B79F7C501DF91CF9132
:1002A0001F910F91FF90EF90DF90CF90BF90AF9094
:1002B0000895FC01538D448D252F30E0842F90E06C
:1002C000821B930B541710F0CF9608950197089551
:1002D000FC01918D828D981761F0A28DAE0FBF2F1A
:1002E000B11D5D968C91928D9F5F9F73928F90E070
:1002F00008958FEF9FEF0895CF92DF92EF92FF92D4
:100300000F931F93CF93DF937C018C01060F171F70
:10031000EC016E01CE18DF080C171D0709F43DC073
:100320002FB7F8948091AD019091AE01A091AF01EB
:10033000B091B0012FBF8093090290930A02A0935D
:100340000B02B0930C0281E092E00E94680197FFDB
:100350002EC02FB7F8948091AD019091AE01A0917D
:10036000AF01B091B0012FBF4091090250910A0234
:1003700060910B0270910C02841B950BA60BB70BBE
:1003800040910502509106026091070270910802A7
:1003900084179507A607B707B0F2C601DF91CF9182
:1003A0001F910F91FF90EF90DF90CF900895899368
:1003B000B0CFFC01918D828D981731F0828DE80FBE
:1003C000F11D858D90E008958FEF9FEF0895FC015A
:1003D000918D228D892F90E0805C9F4F821B910927
:1003E0008F739927089581E092E00E94E70121E050
:1003F000892B09F420E0822F089580E090E0892B7A
:1004000029F00E94F30181110C9400000895FC0171
:10041000A48DA80FB92FB11DA35ABF4F2C91848D65
:1004200090E001968F739927848FA689B7892C93C2
:10043000A089B1898C91837080648C93938D848D15
:10044000981306C00288F389E02D80818F7D808318
:100450000895EF92FF920F931F93CF93DF93EC01D8
:1004600081E0888F9B8D8C8D98131AC0E889F9895B
:10047000808185FF15C09FB7F894EE89FF8960835E
:10048000E889F98980818370806480839FBF81E0DF
:1004900090E0DF91CF911F910F91FF90EF90089521
:1004A000F62E0B8D10E00F5F1F4F0F731127E02EFC
:1004B0008C8D8E110CC00FB607FCFACFE889F98934
:1004C000808185FFF5CFCE010E940702F1CFEB8D31
:1004D000EC0FFD2FF11DE35AFF4FF0829FB7F89408
:1004E0000B8FEA89FB8980818062CFCFCF93DF9326
:1004F000EC01888D8823B9F0AA89BB89E889F9893C
:100500008C9185FD03C0808186FD0DC00FB607FC70
:10051000F7CF8C9185FFF2CF808185FFEDCFCE01A3
:100520000E940702E9CFDF91CF91089520915901F0
:10053000260F3327331F21323105ECF42091D701E8
:10054000FC0190E080E0243069F082E00895A09101
:1005500059012191AC01495C5E4FA40FB52FB11D2B
:100560002C930196861798F380915901680F609338
:10057000590180E0089581E008951092D70181E04B
:100580008093D6011092B10161E082E10E94A60041
:1005900061E083E10E94A600E9EBF0E080818E7FBC
:1005A000808380818D7F808388E48093B80085E498
:1005B0008093BC000895CF93DF9391E09093360130
:1005C0008823B9F0C091B800D091BA008091BC00E6
:1005D0008A7B8093BC0060E082E10E94A60060E01C
:1005E00083E10E94A6000E94BD02D093BA00C0938E
:1005F000B800DF91CF9108958F929F92AF92BF92F2
:10060000CF92DF92EF92FF920F931F93CF93DF93DE
:10061000D0910002D13208F0D7C0182FC091FF014D
:100620000E9407016B017C018091D70181116BC091
:1006300082E08093D7011093D6018FEF8093D5018C
:100640001092D401D093D301AFEDB1E0E3EBF1E030
:1006500080E0D81391C01092B2018091B201CC0F0A
:10066000C82BC093B2018091B101813009F088C0DC
:100670001092B1010E9407016B017C018091B201CF
:100680008093BB008091D9019091DA01A091DB01A8
:10069000B091DC01892B8A2B8B2BA1F00E940701E2
:1006A0000091D9011091DA012091DB013091DC0138
:1006B0006C197D098E099F09061717072807390746
:1006C00008F442C08091BC0083FDD8CF85EC8093B4
:1006D000BC000E9407016B017C018091D701823030
:1006E00009F450C08091D5018F3F09F46FC080910B
:1006F000D501803209F46CC08091D501803309F4B2
:1007000069C084E026C08091D9019091DA01A0915E
:10071000DB01B091DC01892B8A2B8B2B09F484CF70
:100720000E9407018090D9019090DA01A090DB012E
:10073000B090DC016C197D098E099F098616970619
:10074000A806B90608F070CF8091D8010E94DB029C
:1007500085E01092DE01109200021092DD01DF911F
:10076000CF911F910F91FF90EF90DF90CF90BF90AE
:10077000AF909F908F9008959D9191938F5F69CFD7
:1007800085EEA5CF8091D9019091DA01A091DB018E
:10079000B091DC01892B8A2B8B2B09F49ECF0E9410
:1007A00007010091D9011091DA012091DB0130910C
:1007B000DC016C197D098E099F09061717072807A8
:1007C000390708F08ACFC0CF81E0C3CF80E0C1CF26
:1007D00082E0BFCF83E0BDCF089508950895E091F2
:1007E0007F0180917E01E81730F4F0E0E058FE4F81
:1007F000808190E008958FEF9FEF089590917F01A1
:1008000080917E012FEF3FEF981748F4E92FF0E039
:10081000E058FE4F208130E09F5F90937F01C90137
:10082000089580917E0190917F01891B990B089515
:10083000CF92DF92EF92FF920F931F93CF93DF93AC
:100840007C01CB018A012091DD01222389F0EB019B
:100850006B01C40ED51ECC15DD0569F06991D70179
:10086000ED91FC910190F081E02DC7010995F3CF46
:10087000642F0E949602C801DF91CF911F910F91C2
:10088000FF90EF90DF90CF900895CF93DF931F926A
:10089000CDB7DEB769832091DD012223F9F02091E5
:1008A0000002203258F021E030E0FC013383228343
:1008B00090E080E00F90DF91CF9108958091DE016C
:1008C000E82FF0E0E152FE4F998190838F5F809393
:1008D000DE018093000281E090E0ECCF61E0CE0188
:1008E00001960E949602F7CF90E080E00895CF93A2
:1008F000DF93EB01FC01808591E09093DD01809313
:10090000FF011092DE011092000260E48EE992E095
:100910000E944504BE0184E0759567958A95E1F7CC
:100920008EE992E00E9445046C2F6295607F8EE90B
:1009300092E00E94450481E0DF91CF910C94FC028B
:10094000FC0184810C94F200EF92FF920F931F93AD
:10095000CF93DF93EC017B018A0169857A858D85D0
:100960009E850E947C01ED85FE85808190E0F701E7
:1009700091838083ED85FE85818190E0982F882783
:100980002281820F911DF80191838083DF91CF91A5
:100990001F910F91FF90EF900895E1E0F2E0A089A0
:1009A000B18982E08C93A485B5851C92A685B78514
:1009B00080E18C93108EA489B58986E08C93A289FE
:1009C000B3898C9180618C93A289B3898C91886062
:1009D0008C93A289B3898C9180688C930288F38967
:1009E000E02D80818F7D808310927F0110927E01A7
:1009F0001092DE01109200020E94BD028CEE93E084
:100A000090935801809357018DEE93E090935C0191
:100A100080935B0108950F931F93CF93DF93EB01B6
:100A2000FC0106811781802F0E948700209741F4E6
:100A300060E0802FDF91CF911F910F910C94A60061
:100A4000CF3FD10511F461E0F4CFF801FF27E85959
:100A5000FF4FE491E33039F140F4E130B1F0E2309E
:100A6000E9F0C038D1057CF7E3CFE73031F1E83069
:100A700061F1E430B1F78091800080628093800062
:100A8000D0938B00C0938A0004C084B5806884BD75
:100A9000C7BDDF91CF911F910F91089584B58062FA
:100AA00084BDC8BDF6CF80918000806880938000AF
:100AB000D0938900C0938800ECCF8091B00080680B
:100AC0008093B000C093B300E4CF8091B000806207
:100AD0008093B000C093B400DCCFEF92FF920F93ED
:100AE0001F93CF93DF93EC017B018A0169857A859F
:100AF0008D859E850E947C01ED85FE85808190E03C
:100B0000F70191838083ED85FE85818190E0F80176
:100B100091838083DF91CF911F910F91FF90EF9090
:100B20000895CF93DF93EC010E94CD041E8A80E0EC
:100B30000E9487001F8A8E898F3F19F060E00E9413
:100B4000A6008D8991E09093DD018093FF011092C2
:100B5000DE011092000281E0DF91CF910C94FC0243
:100B60008F929F92AF92BF92CF92DF92EF92FF92BD
:100B70000F931F93CF93DF938C01DC0114961C928B
:100B80001E92139715968D919C9116972C9131E09A
:100B90003093DD012093FF011092DE0110920002DC
:100BA000DC01ED91FC910190F081E02D6CE0099564
:100BB00081E00E94FC02C82F8AE99FEFC1119CC00E
:100BC000D801DC910E9407016B017C018091D70163
:100BD000811164C081E08093D7018093D6019FEF9B
:100BE0009093D5011092D4018093D3018093B201E8
:100BF0008091B201DD0FD82BD093B2018091B10169
:100C0000813009F0A3C01092B1010E9407016B016D
:100C10007C018091B2018093BB008091D9019091B9
:100C2000DA01A091DB01B091DC01892B8A2B8B2B9F
:100C3000A1F00E9407018090D9019090DA01A09064
:100C4000DB01B090DC016C197D098E099F098616C5
:100C50009706A806B90608F442C08091BC0083FD3F
:100C6000D8CF85EC8093BC000E9407016B017C010A
:100C70008091D701813009F46BC08091D40182301A
:100C800008F088C08091D401A3EBB1E0E0E8F1E086
:100C9000C81749F19D919193CF5FFACF8091D90107
:100CA0009091DA01A091DB01B091DC01892B8A2BB4
:100CB0008B2B09F48BCF0E9407018090D901909073
:100CC000DA01A090DB01B090DC016C197D098E097E
:100CD0009F0986169706A806B90608F077CF809177
:100CE000D8010E94DB0210927F01C0937E01C230C6
:100CF00009F452C089E99FEFF8019483838390E05F
:100D000080E09F70F801258536852115310519F0A1
:100D1000820F931F9F70D80111962C9111972F3F2E
:100D200041F412962C91213021F4919581959109ED
:100D30009F70DF91CF911F910F91FF90EF90DF9007
:100D4000CF90BF90AF909F908F90089585EE8ACFFF
:100D50008091D9019091DA01A091DB01B091DC0181
:100D6000892B8A2B8B2B09F483CF0E94070180905B
:100D7000D9019090DA01A090DB01B090DC016C19F0
:100D80007D098E099F0986169706A806B90608F000
:100D90006FCFA5CF82E078CFD80115968D919C9129
:100DA000DC01ED91FC910284F385E02D0995D82FAB
:100DB000B0E0CB2FF80185819681DC01ED91FC91AB
:100DC0000284F385E02D09958C0F9D1F9ACF4596DF
:100DD0000C94B00585ED8093BC008091D901909171
:100DE000DA01A091DB01B091DC010796A11DB11DD4
:100DF00023E0B695A795979587952A95D1F72091E9
:100E0000BC0024FD03C01092D70108954091D90180
:100E10005091DA016091DB017091DC01452B462B8A
:100E2000472B69F30097A105B10541F02AE22A9505
:100E3000F1F700C00197A109B109E1CF8091D80174
:100E40000C94DB021F920F920FB60F9211242F9376
:100E50003F938F939F93AF93BF938091AD019091F8
:100E6000AE01A091AF01B091B0013091A80123E093
:100E7000230F2D3758F50196A11DB11D2093A80110
:100E80008093AD019093AE01A093AF01B093B001F8
:100E90008091A9019091AA01A091AB01B091AC0100
:100EA0000196A11DB11D8093A9019093AA01A09361
:100EB000AB01B093AC01BF91AF919F918F913F91E6
:100EC0002F910F900FBE0F901F90189526E8230FBB
:100ED0000296A11DB11DD2CF1F920F920FB60F9295
:100EE00011242F933F934F935F936F937F938F932F
:100EF0009F93AF93BF93EF93FF9381E092E00E94A3
:100F00000702FF91EF91BF91AF919F918F917F91D8
:100F10006F915F914F913F912F910F900FBE0F9066
:100F20001F9018951F920F920FB60F9211242F93B6
:100F30008F939F93EF93FF93E0911102F091120230
:100F40008081E0911702F091180282FD1BC0908110
:100F500080911A028F5F8F7320911B02821741F0DC
:100F6000E0911A02F0E0EF5FFD4F958F80931A0237
:100F7000FF91EF919F918F912F910F900FBE0F9046
:100F80001F9018958081F4CF1F920F920FB60F9289
:100F900011242F933F934F935F936F937F938F937E
:100FA0009F93AF93BF93EF93FF938091B900887F96
:100FB000803609F44AC0F0F5883209F4A7C018F564
:100FC000803109F49BC0B8F4882309F4F9C0883053
:100FD00009F494C0FF91EF91BF91AF919F918F91D0
:100FE0007F916F915F914F913F912F910F900FBE25
:100FF0000F901F901895883109F488C0803251F7FE
:101000008093D50114C0803409F49DC040F480332E
:10101000B9F38833F9F68093D50185ECB0C08035FB
:1010200009F485C0883509F496C0883499F60E9481
:10103000EA06D0CF883909F48CC038F5883729F012
:1010400050F4883611F0803729F683E08093D70179
:1010500010927D0157C0883809F47BC0803919F09F
:10106000803809F0B7CF80917D01803208F071C0DF
:10107000E0917D0181E08E0F80937D018091BB0026
:10108000F0E0E35AFE4F80833DC0803B39F0E0F44E
:10109000803A09F479C0883A09F09CCF84E08093C3
:1010A000D70110925A0110925901E0915701F09125
:1010B000580109958091590181110FC081E08093F9
:1010C00059011092370109C0803C09F4A6CF883C31
:1010D00009F4A3CF883B09F07DCFE0915A0181E06C
:1010E0008E0F80935A01F0E0E95CFE4F808180937F
:1010F000BB0090915A018091590129C08091B201A1
:101100008093BB0085EC8093BC0064CF9091D401A8
:101110008091D301981758F5E091D40181E08E0FAA
:101120008093D401F0E0ED54FE4F8081E9CFE0914F
:10113000D40181E08E0F8093D4018091BB00F0E058
:10114000ED54FE4F80839091D4018091D301981784
:10115000C8F285E8D8CFE091D40181E08E0F80936A
:10116000D4018091BB00F0E0ED54FE4F808380916C
:10117000D60181115CCF81E08093B10184EA809334
:10118000BC001092D70126CF85EC8093BC00109252
:10119000D70180917D01803230F4E0917D01F0E053
:1011A000E35AFE4F108260917D0170E0E0915B0197
:1011B000F0915C018DE591E0099510927D010ACFD7
:1011C0001092D50134CF0F931F93CF93DF93E1E0BB
:1011D000F2E01382128288EE93E0A0E0B0E0848314
:1011E0009583A683B7832AE031E03183208325EC01
:1011F00030E03587248724EC30E03787268720ECE1
:1012000030E0318B208B21EC30E0338B228B22ECD1
:1012100030E0358B248B26EC30E0378B268B118E1B
:10122000128E138E148E0EE912E0F80113821282D0
:1012300084839583A683B7838CE191E09183808337
:10124000CAEAD2E081E190E09B838A831D821C82FE
:1012500085E090E09F838E8380E6888782E090E03F
:101260009A87898783E090E09C878B8782E090E073
:101270000E943B0A9E878D8783E090E00E943B0A94
:10128000988B8F8781E090E09A8B898B81E48B8BA0
:1012900085E48C8B8EE291E09983888386E38D8B45
:1012A0008FEF8E8B1F8A198E188E1C8E1D8E1E8EB0
:1012B0001F8E19A218A21BA21AA21CA21DA21EA256
:1012C0001FA219A618A61B8F0A8FDF91CF911F911D
:1012D0000F910895789484B5826084BD84B581604F
:1012E00084BD85B5826085BD85B5816085BD8091F1
:1012F0006E00816080936E00109281008091810069
:101300008260809381008091810081608093810060
:10131000809180008160809380008091B100846022
:101320008093B1008091B00081608093B000809183
:101330007A00846080937A0080917A008260809342
:101340007A0080917A00816080937A0080917A009F
:10135000806880937A001092C1008AEA92E00E942D
:101360009105C0E0D0E081E092E00E94E70118160C
:101370001906B4F544EA51E066EA71E08AEA92E0BF
:101380000E946D058091A6019091A7018130910581
:1013900089F18230910509F461C0892BA9F4E091AB
:1013A000B902F091BA028091BB028083E091B90248
:1013B000F091BA028091BD028183E091B902F0916F
:1013C000BA028091BE0282834091B5025091B6026A
:1013D0006091B9027091BA0281E092E00E942C0102
:1013E000209709F20E94F301882309F4BCCF0E94E0
:1013F0000000B9CF6091A4017091A5018AEA92E042
:101400000E940B058FEB92E00E94B0059093A30120
:101410008093A2018091AC020E94F2009093A101FE
:101420008093A001E091B902F091BA0224E0959571
:1014300087952A95E1F7807F9091A301890F80839A
:10144000E091B902F091BA028091A0018183E0910C
:10145000B902F091BA028091A201B5CF70E060E0CC
:101460008AEA92E00E940B05AFCFEE0FFF1F0590B6
:10147000F491E02D09940F931F93CF93DF93823063
:10148000910510F482E090E0E091D602F091D7024D
:1014900030E020E0B0E0A0E0309799F4211531056C
:1014A00009F44AC0281B390B24303105D8F58A814C
:1014B0009B816115710589F1FB0193838283FE0194
:1014C00011C0408151810281138148175907E0F012
:1014D0004817590799F4109761F012960C931297D8
:1014E00013961C933296CF01DF91CF911F910F91EC
:1014F00008950093D6021093D702F4CF2115310539
:1015000051F04217530738F0A901DB019A01BD01E0
:10151000DF01F801C1CFEF01F9CF9093D70280939B
:10152000D602CDCFFE01E20FF31F8193919322509B
:10153000310939832883D7CF2091D4023091D50245
:10154000232B41F420910201309103013093D50205
:101550002093D40220910001309101012115310521
:1015600041F42DB73EB74091040150910501241B71
:10157000350BE091D402F091D502E217F307A0F405
:101580002E1B3F0B2817390778F0AC014E5F5F4FD9
:101590002417350748F04E0F5F1F5093D502409334
:1015A000D402819391939FCFF0E0E0E09CCFCF9362
:1015B000DF930097E9F0FC01329713821282A09129
:1015C000D602B091D702ED0130E020E01097A1F4EF
:1015D00020813181820F931F2091D4023091D50256
:1015E0002817390709F061C0F093D502E093D402BF
:1015F000DF91CF910895EA01CE17DF07E8F54A8120
:101600005B819E0141155105B1F7E901FB83EA8336
:1016100049915991C40FD51FEC17FD0761F48081E2
:1016200091810296840F951FE901998388838281B5
:1016300093819B838A83F0E0E0E012968D919C91E8
:1016400013970097B9F52D913C911197CD01029612
:10165000820F931F2091D4023091D50228173907A9
:1016600039F6309751F51092D7021092D602B09306
:10167000D502A093D402BCCFD383C28340815181D1
:10168000840F951FC817D90761F44E5F5F4F88819B
:101690009981480F591F518340838A819B8193838D
:1016A00082832115310509F0B0CFF093D702E09382
:1016B000D6029ECFFD01DC01C0CF13821282D7CFAC
:0416C000F894FFCFCC
:1016C4000000D80280000000000029022C0159010A
:1016D4007602E7016801D9010000000045041804FE
:1016E4007404EE031104FE03EF03000000009105EF
:0616F4006D05E7060B0581
:00000001FF
